:02000002B0004C
:1040000000400B0080810B00000006000C00050240
:084010000401810C0000000016
:0440180050780B00D1
:10401C0009480A49884208B505D0094A824202D0AB
:10402C00121A03F085FA0748074A0021121A03F006
:10403C00A7FA014808BD00BF38FA0220E4800B0043
:10404C00ACFA0220ACFA0220EDE7032070B5074E63
:10405C00074C02F0A7FDA41BA4080025AC4200D11C
:10406C0070BD56F8043B98470135F7E7B0800B005C
:10407C00D4800B0000F0BAB808B500F0DFFCBDE846
:10408C00084002F047BD01F0CDB901F0CBB901F009
:10409C00D1B90078B0FA80F0400970470123037061
:1040AC007047000010B50378212B044610D14378DB
:1040BC00422B11D18378352B2CD1C378312B29D1BC
:1040CC003C4B3D48196800F059FF2378212B00D058
:1040DC0010BD6378422B1DD06378422BF8D1A378A6
:1040EC00312B4AD1E278312A03D132490A680132A4
:1040FC000A60332B54D1E378312B51D12F4B012251
:10410C001A702F4B00221A602378212BE0D1637890
:10411C00422B44E0A378362B0ED1E378312B0BD114
:10412C00244B25481968494200F028FF2378212B9D
:10413C00CED16378422BCFD1A378382B0ED1E37834
:10414C00312B0BD11B4B1F481968494200F016FF4D
:10415C002378212BBCD16378422BBDD1A378372B8C
:10416C00BAD1E378312BB7D1124B1648196800F04D
:10417C0005FF2378212BAFD0AAE7322BB9D1E378F6
:10418C00312B0DD10B490B680122013B002BCCBF0D
:10419C00184610460C4B08601A702378212B97D1C7
:1041AC00A378342B94D1E378312B91D1074B012296
:1041BC001A708DE708FB022078E60320ADFA022086
:1041CC0044E603204CE60320AEFA022034FB022026
:1041DC000EB403B503AB002153F8042B019302F08A
:1041EC00F6FB02B05DF804EB03B0704770B58EB00F
:1041FC0002F0E0FD4FF4165102F0D0FD40F6B8305D
:10420C0002F05CFC02F0D6FDB549FFF7E1FF02F0CD
:10421C00FDFF4FF4E13102F049FE02F0F7FFB14926
:10422C00FFF7D6FFC82002F049FC02F0EFFF03684D
:10423C001B699847002819DD02F0BCFDAA49AB4C5C
:10424C00FFF7C6FF02F0E2FF0A22014609A802F0BE
:10425C0005FC09A9204601F0FBF909A801F07CF93D
:10426C0002F0A8FD2268A249FFF7B2FF02F0CEFFD0
:10427C00A04BA1491A68FFF7ABFFC82002F01EFC47
:10428C0002F0C4FF03681B699847002819DD02F08F
:10429C0091FD9A49954CFFF79BFF02F0B7FF0A225C
:1042AC00014609A802F0DAFB09A9204601F0D0F971
:1042BC0009A801F051F902F07DFD22689049FFF741
:1042CC0087FF02F0A3FF8F4B8F491A68FFF780FF1F
:1042DC00C82002F0F3FB02F099FF03681B699847B2
:1042EC00002819DD02F066FD8849804CFFF770FF4D
:1042FC0002F08CFF0A22014609A802F0AFFB09A9C3
:10430C00204601F0A5F909A801F026F902F052FDAA
:10431C0022687F49FFF75CFF02F078FF7D49FFF7C9
:10432C0057FFC82002F0CAFB02F070FF03681B693C
:10433C009847002819DD02F03DFD6B496B4CFFF7E7
:10434C0047FF02F063FF0A22014609A802F086FB30
:10435C0009A9204601F07CF909A801F0FDF802F04A
:10436C0029FD22686C49FFF733FF02F04FFF6B49C0
:10437C00FFF72EFFC82002F0A1FB02F047FF0368F5
:10438C001B699847002819DD02F014FD5649574C5B
:10439C00FFF71EFF02F03AFF0A22014609A802F0BD
:1043AC005DFB09A9204601F053F909A801F0D4F8E6
:1043BC0002F000FD22685A49FFF70AFF02F026FFBF
:1043CC005849FFF705FF4FF4FA7002F077FB02F043
:1043DC001DFF03681B69984700281EDD02F0EAFCEC
:1043EC004149FFF7F5FE02F011FF0A22014609A828
:1043FC0002F034FB09A93D4801F02AF909A801F0A3
:10440C00ABF8494939482822002301F05FF902F042
:10441C00D1FC454A4549FFF7DBFE01F063FC01F096
:10442C00ABFC01F05FFC424A424C014609A802F089
:10443C0069F909A801F047FD01F054FC3E4A014618
:10444C0009A802F05FF909A801F03DFD0FCC04ADFD
:10445C000FC504AD0FCD266809AC0FC409A82660A2
:10446C0001F0BAFA044609A894BB01F0D1FA009401
:10447C00ADF80E0002230DF10E0203212F4801F0BE
:10448C0049FE01F02FFC00222C4901F0BFFC2C4806
:10449C000A2100F0A1FC2B480A2100F09DFC002110
:1044AC00132002F06DFE0021032002F069FE0021B2
:1044BC00042002F065FE0121122002F061FE224A66
:1044CC0000231370214A1370214A13700EB070BD73
:1044DC0001F0A0FA00230093024610230721CDE738
:1044EC0064780B0079780B007E780B00B0FB02200F
:1044FC008E780B0038FA022099780B00A9780B0003
:10450C00C6780B003CFA0220D9780B00EB780B0034
:10451C000A790B001D790B002B790B0042790B00EB
:10452C0052790B0069790B000CFB022074790B009B
:10453C00A4E60320BCFA0220C0FB022040FB0220B0
:10454C0078E603204CE60320ADFA0220ACFA0220F8
:10455C0034FB02202DE9F04F734F744EDFF800B29C
:10456C00DFF800827248DFF80092DFF8D8A187B03C
:10457C004FF0FF3300251921C8F800303D6035603D
:10458C00CBF8005000F0FAFC6A48192100F0F6FC58
:10459C000121122002F005FE2946122002F001FE34
:1045AC0019233B60336002F031FE6349FFF710FEC4
:1045BC00624800F053FD00F059FD2B46C9F800008D
:1045CC00019300F053FD001BB0F57A7F019B27D9B6
:1045DC00322B24DC00F04AFDD9F80010411ACAF83D
:1045EC0000100446D8F80010514800F0C7FC386899
:1045FC00D8F80010524B4218DBF800103A60013129
:10460C000C20CBF80010414303EB010EDAF800004C
:10461C0058503168019BCEF80420CEF808100133B5
:10462C00322B26D100F022FDD9F800304FF0FF31AB
:10463C00C31A04463F48CAF8003000F09FFCDBF870
:10464C0000303F4A316801330C20CBF80030434333
:10465C00DAF80000D05002EB030C3B680139CCE9CE
:10466C000131D8F8003031605B42C8F800300135B8
:10467C000023322DA4D12E48324D6FF0180100F0DA
:10468C007DFC19212B4800F079FC3B68D9F800001F
:10469C00193B3B603368241A193333602C6002F0E9
:1046AC0089FB2949FFF794FD00F0E0FC274B2449D6
:1046BC001860DBF80030286801330C22CBF800308E
:1046CC005343CA18C8503B6853603368936002F078
:1046DC009DFD1F49FFF77CFD02F06CFB1D49FFF7A8
:1046EC0077FDC82002F0EAF902F090FD03681B691F
:1046FC009847002814DD02F089FD174C0A22014668
:10470C0002A802F0ABF902A9204600F0A1FF02A812
:10471C0000F022FF02F04EFB22681049FFF758FD13
:10472C0007B0BDE8F08F00BF38FB02203CFB022035
:10473C004CE6032078E603208C790B0054710D00B5
:10474C00E4FB022048E603209E790B0058FB022074
:10475C00AC790B00BE790B00B0FB0220C9790B00C1
:10476C0044E603205CFB0220E0FB022038B5094C38
:10477C00094D2168094800F001FC2968084800F03F
:10478C00FDFB02F017FB2B6822680649FFF720FDA2
:10479C0038BD00BFD8FB0220DCFB02204CE6032016
:1047AC0078E60320DF790B00F7B502F003FB0F4925
:1047BC000F4C104F104EFFF70BFD00253B68AB4222
:1047CC0004F10C040FDD02F0F5FA54F8043C0193EB
:1047DC0054F8083C00932A4654F80C3C3146FFF739
:1047EC00F7FC0135EAE703B0F0BD00BFF0790B0030
:1047FC00E4FB022044E60320FC790B00F8B5164BD1
:10480C0016481E68164B00220C2741F2883407FB11
:10481C0002F1C958711A81EAE17CACEBE17C844568
:10482C00B8BF154602F10102B8BF0846A242EED14C
:10483C000C2202FB05330B4D5A680B4C9B682B600A
:10484C000A4B226000221A6002F0B4FA2B6822682C
:10485C000749FFF7BDFCF8BD50FB022071DB6F0070
:10486C00E4FB0220DCFB0220D8FB022044E6032000
:10487C00097A0B002DE9F047684C694D694E6A4F77
:10488C00002323602368322B25DCC8225B43B3FB57
:10489C00F2F32B6002F08EFA2B6822686349FFF763
:1048AC0097FC02F087FA3A6833686149FFF790FC8D
:1048BC00236839685F48C91A00F060FB2B683168BF
:1048CC005D48C91A00F05AFB23682A683B60013323
:1048DC0032602360D6E70023DFF850A1DFF8509157
:1048EC00DFF8508123603B6033602368322B25DC7A
:1048FC00C8225B43B3FBF2F32B6002F05BFA2B682C
:10490C0022685146FFF764FC02F054FA3A683368A7
:10491C004946FFF75DFC3B6821684046C91A00F028
:10492C002DFB336829684448C91A00F027FB23681B
:10493C002A683B60013332602360D6E70023DFF83E
:10494C00ECA0DFF8EC90DFF8EC8023603B60336088
:10495C00236813F1320F25DBC8225B43B3FBF2F360
:10496C002B6002F027FA2B6822685146FFF730FCC7
:10497C0002F020FA3A6833684946FFF729FC2368AD
:10498C0039684046C91A00F0F9FA2B6831682A4890
:10499C00C91A00F0F3FA23682A683B60013B3260C5
:1049AC002360D5E70023DFF884A0DFF88490DFF8DC
:1049BC00848023603B603360236813F1320F25DB66
:1049CC00C8225B43B3FBF2F32B6002F0F3F92B68C4
:1049DC0022685146FFF7FCFB02F0ECF93A683368A9
:1049EC004946FFF7F5FB3B6821684046C91A00F0C1
:1049FC00C5FA336829681048C91A00F0BFFA236851
:104A0C002A683B60013B32602360D5E700232360BA
:104A1C003B602B603360BDE8F08700BFF8FA0220E2
:104A2C0000FB022004FB0220FCFA0220227A0B007D
:104A3C00327A0B004CE6032078E603202DE9F04394
:104A4C0089B002F0E3FB0368534D1B6998470028BB
:104A5C0000F0838002F0AEF95049DFF87081DFF886
:104A6C0070914F4F4F4C504EFFF7B2FB02F0CEFB04
:104A7C002C22014604A801F0F1FF04A9404600F0E5
:104A8C00E7FD04A800F068FD02F0C0FB2C220146F3
:104A9C0004A801F0E3FF04A9484600F0D9FD04A8DE
:104AAC0000F05AFD02F0B2FB2C22014604A801F0E2
:104ABC00D5FF04A9384600F0CBFD04A800F04CFD4E
:104ACC0002F0A4FB2C22014604A801F0C7FF04A9A4
:104ADC00204600F0BDFD04A800F03EFD02F096FB60
:104AEC000A22014604A801F0B9FF04A9304600F0DF
:104AFC00AFFD04A800F030FD02F05CF933680293BE
:104B0C00236801933B68D8F8002028490093D9F812
:104B1C000030FFF75DFB384600F0F0FD244F3860A5
:104B2C00204600F0EBFD234C2060304600F0E6FD03
:104B3C00214B186002F03EF923683A681F49FFF7D1
:104B4C0047FB236823B902F035F91D49FFF740FBF9
:104B5C002368072BC4BF01232B701A4C23782BB16D
:104B6C00FFF7F8FCFFF720FE002323702B782BB106
:104B7C00FFF744FEFFF7FAFD00232B70124C23784D
:104B8C003BB1FFF777FEFFF775FEFFF773FE0023CF
:104B9C00237009B0BDE8F083ACFA0220447A0B0014
:104BAC0080FB022090FB0220A0FB02205E7A0B000F
:104BBC004CFB022050FB022054FB0220807A0B009D
:104BCC00A27A0B00ADFA022034FB022060FB02201B
:104BDC0070FB02202DE9F047564B574A9A6000278C
:104BEC0098B0C3E90077022000F090FB0723052260
:104BFC00CDE900324FF40061062308224F48504C97
:104C0C00504D514E00F0C6F80D230B210E22CDE96C
:104C1C0000314E480C234FF4006100F0BBF84C49B6
:104C2C00204600F077FF4B49284600F073FF4A49B5
:104C3C00304600F06FFF0FCE0DF1100CA046ACE823
:104C4C000F00B8E80F00D6F800A0CCF800A009AE11
:104C5C000FC60DF1100CBCE80F00D8F80090C6F888
:104C6C0000900EAE0FC6DFF824E1C6F800A00DF1DF
:104C7C00240CCEE90077BCE80F0013AE0FC6C6F8C3
:104C8C00009013AE0EAB7046CDE901773349009618
:104C9C004FF0100201F010FC0FCD0DF1100CACE830
:104CAC000F000FCCD5F800E0D8F80080CCF800E06D
:104CBC0009AD0FC5C5F8008004AD0FCD0EAC0FC407
:104CCC00DFF8CCC0C4F800E009ADCCE900770FCD1B
:104CDC0034460FC4224BC4F8008060464FF00402E7
:104CEC00CDE900631F4902970EAB01F0E5FB1E48AE
:104CFC0001F01BFA1D491E4800F079FC1B491D48A8
:104D0C0000F075FC19491C4800F071FC17491B4850
:104D1C0000F06DFC15491A4800F069FC134919485C
:104D2C0000F065FC1149184818B0BDE8F04700F0D8
:104D3C005EBC00BFB0FA02200000FFFF78E6032043
:104D4C00BCFA0220D0FA0220E4FA02204CE603203E
:104D5C00B57A0B00DA7A0B00FF7A0B00247B0B0080
:104D6C00B1400B00277B0B0040FB02209D790B0010
:104D7C00B0FB022060FB022070FB022080FB0220B3
:104D8C0090FB0220A0FB0220C8FB0220A4E603201B
:104D9C00C0FB022038B5C0E90523049BC36104465F
:104DAC00059B03620025056105608562816090B2F8
:104DBC00012102F0E5F9208B012102F0E1F9A08B31
:104DCC00012102F0DDF9208C012102F0D9F9042334
:104DDC006562E360204638BD8268034B93FBF2F3B7
:104DEC0093FBF1F1416070470087930338B5C368BA
:104DFC00022B04460D460DD103290BD8DFE801F038
:104E0C000213151B0021A08A02F0CBF90121208B83
:104E1C0002F0C7F9E368042B1FD1032D1DD8DFE87E
:104E2C0005F00C2A303E0121EDE70121A08A02F0A9
:104E3C00B8F90021EBE70021F8E70121A08A02F084
:104E4C00B0F90021208B02F0ACF90121A08B02F00B
:104E5C00A8F90021208C02F0A4F9E368052B40F09E
:104E6C008C80092D00F28980DFE805F01F29374975
:104E7C005F6167717F850021A08A02F092F90121A0
:104E8C00E0E70021A08A02F08CF90121208B02F0CE
:104E9C0088F90021A08B02F084F90121DAE70121C5
:104EAC00A08A02F07EF90021F0E70021A08A02F02E
:104EBC0078F90121208B02F074F9012108E0A08A15
:104ECC00002102F06EF90121208B02F06AF9002119
:104EDC00A08B02F066F900210CE0A08A002102F000
:104EEC0060F9208B012102F05CF90021A08B02F00B
:104EFC0058F90121208C02F054F9012110E0002115
:104F0C00A08A02F04EF90121208B02F04AF900210F
:104F1C00A08B02F046F90121208C02F042F900210D
:104F2C00A08CBDE8384002F03CB90121E8E7012132
:104F3C00A08A02F036F90021E6E7A08A012102F0EE
:104F4C0030F90021208B02F02CF90121E0E7A08A36
:104F5C00012102F026F9208B002102F022F9012117
:104F6C00A08B02F01EF90021D6E70121A08A02F0E5
:104F7C0018F900219EE70021F8E738BDF8B50029A3
:104F8C0081EAE1750446A5EBE17524DD012323607C
:104F9C0000270A2685B300F069F8A36A6268C31A71
:104FAC009342F7D322682369A062012A16D1A26822
:104FBC000133934208BF3B462361D4E90331052BEF
:104FCC0005F1FF3510D191FBF6F306FB13112046CA
:104FDC00FFF70CFFDEE7DBD00023D8E70BB9A368A3
:104FEC0023612369013BE7E74B4203F0030301F024
:104FFC00030158BF5942EAE7F8BD000008B5024B5F
:10500C001B689B68019308BD6802030008B5024B3E
:10501C001B68DB68019308BD6802030008B5024BEE
:10502C001B689B68019308BD2C02030008B5024B5A
:10503C001B68DB68019308BD2C02030008B5024B0A
:10504C001B681B69019308BD2C02030008B5024BB9
:10505C001B685B68019308BD1802030008B5024B7E
:10506C001B68DB68019308BD1802030008B5024BEE
:10507C001B681B69019308BD1802030008B5024B9D
:10508C001B685B69019308BD1802030008B5024B4D
:10509C001B689B68019308BD7802030008B5024B9E
:1050AC001B681B6D019308BD7802030008B5024B09
:1050BC001B689B6D019308BD7802030008B5024B79
:1050CC001B681B6E019308BD7802030008B5034BE7
:1050DC001B68D3F89830019308BD000078020300D8
:1050EC0008B5034B1B68D3F8A830019308BD00002A
:1050FC007802030008B5034B1B68D3F8EC3001931E
:10510C0008BD00007802030008B5034B1B68D3F8F8
:10511C00F030019308BD00007802030008B5024B83
:10512C001B685B6C019308BD4802030008B5024B79
:10513C001B68DB6C019308BD4802030008B5024BE9
:10514C001B685B6D019308BD4802030008B5024B58
:10515C001B685B69019308BD6402030008B5024B30
:10516C001B68DB68019308BD3C02030008B5024BC9
:10517C001B681B69019308BD3C02030008B5024B78
:10518C001B685B69019308BD3C02030008B5024B28
:10519C001B689B69019308BD3C02030008B5024BD8
:1051AC001B68DB69019308BD3C02030008B5024B88
:1051BC001B681B6A019308BD3C02030008B5024B37
:1051CC001B689B6A019308BD3C02030008B5024BA7
:1051DC001B68DB6A019308BD3C02030008B5024B57
:1051EC001B681B6C019308BD3C02030008B5024B05
:1051FC001B681B6A019308BD2802030008B5024B0B
:10520C001B685B6A019308BD2802030008B5024BBA
:10521C001B689B6A019308BD2802030008B5024B6A
:10522C001B68DB6A019308BD2802030008B5024B1A
:10523C001B681B6B019308BD2802030008B5024BC9
:10524C001B685B6B019308BD2802030008B5024B79
:10525C001B681B6C019308BD2802030008B5024BA8
:10526C001B68DB69019308BD3002030008B5024BD3
:10527C001B681B6A019308BD3002030008B5024B82
:10528C001B681B68019308BD4C02030008B5024B58
:10529C001B685B68019308BD4C02030008B5024B08
:1052AC001B681B69019308BD4C02030008B5024B37
:1052BC001B685B69019308BD4C02030008B5024BE7
:1052CC001B689B69019308BD4C02030008B5024B97
:1052DC001B68DB69019308BD4C02030008B5024B47
:1052EC001B681B6A019308BD4C02030008B5024BF6
:1052FC001B685B6B019308BD6002030008B5024B91
:10530C001B681B6D019308BD6002030008B5024BBE
:10531C001B685B68019308BD2002030008B5024BB3
:10532C001B685B69019308BD2002030008B5034BA1
:10533C001B68D3F88830019308BD000020020300DD
:10534C0008B5034B1B68D3F89430019308BD0000DB
:10535C002002030008B5024B1B685B68019308BD73
:10536C004002030008B5024B1B689B68019308BD03
:10537C004002030008B5024B1B68DB68019308BDB3
:10538C004002030008B5024B1B681B69019308BD62
:10539C004002030008B5024B1B685B69019308BD12
:1053AC004002030008B5024B1B689B69019308BDC2
:1053BC004002030008B5024B1B68DB69019308BD72
:1053CC004002030008B5024B1B681B6A019308BD21
:1053DC004002030008B5024B1B681B6B019308BD10
:1053EC004002030008B5024B1B685B6B019308BDC0
:1053FC004002030008B5024B1B681B6C019308BDEF
:10540C004002030008B5024B1B685B6C019308BD9E
:10541C004002030008B5024B1B68DB6B019308BD0F
:10542C004402030008B5024B1B681B68019308BDBE
:10543C001C02030008B5024B1B685B68019308BD96
:10544C001C02030008B5024B1B689B68019308BD46
:10545C001C02030008B5024B1B685B6A019308BD74
:10546C001C02030008B5024B1B68DB6A019308BDE4
:10547C001C02030008B5024B1B68DB6B019308BDD3
:10548C001C02030008B5024B1B681B6C019308BD82
:10549C001C02030008B5024B1B685B6C019308BD32
:1054AC001C020300002240681146FFF78BBF00224C
:1054BC0040681146FFF796BF40680022FFF78ABF8D
:1054CC004068002281F00101FFF774BF002340689F
:1054DC001A461946FFF766BF002340681A4619465C
:1054EC00FFF758BF002240681146FFF74BBF002260
:1054FC0040681146FFF736BF406800220221FFF7D3
:10550C0039BF002340681A46FFF724BF024B032221
:10551C005A60024A1A607047ACE60320347B0B00D9
:10552C0010B5044608462170FFF798FE002363600F
:10553C00204610BD054B02221A60054B054A9A60A5
:10554C000020C3E90000FFF7E1BE00BFC0E6032066
:10555C00B4E603200000FFFF10B504460068FFF717
:10556C0069FF204610BD10B50446006808B1FFF76E
:10557C0061FF0023C4E90133236010BD38B5044634
:10558C000D4600680131FFF75DFF10B1C4E900055D
:10559C00012038BD10B50368044623B143688B4223
:1055AC0001D3012010BD2046FFF7E8FF0028F9D0F9
:1055BC00A368002BF5D122681370F2E737B50D46BE
:1055CC00114601920446FFF7E5FF019A28B92046DF
:1055DC00FFF7C9FF204603B030BDA2602946206802
:1055EC0001F0A6FF2268A3680021D154F2E7002342
:1055FC0013B5C0E9003304468360037341B1084618
:10560C00019102F005F8019902462046FFF7D6FFFA
:10561C00204602B010BD38B5054600680C4668B18E
:10562C006A688B689A4207D3096801F0E9FFA3689E
:10563C00AB600023A36038BDFFF7FCFE23682B6032
:10564C0063686B60A368AB600023C4E90033F1E7C7
:10565C00884210B5044601D0FFF7DDFF204610BD8F
:10566C0013B5044659B10846019101F0D1FF0199D7
:10567C0002462046FFF7A2FF204602B010BDFFF7FE
:10568C0072FFF9E770B505460E4609B9002070BDEA
:10569C006AB1846814442146FFF77CFF0028F5D0DA
:1056AC002868AB683146184401F0AAFFAC600120B1
:1056BC00EDE707B500238DF80410012201A98DF840
:1056CC000530FFF7DFFF03B05DF804FB58B50E465D
:1056DC002AB121B18468A34202D300230B7058BDB8
:1056EC00E41A013A0168944228BF14461944224630
:1056FC00304601F095FF00233355F0E7006808B100
:10570C0001F002BF70477047704770477047000048
:10571C00064B994210B500F10C0405D0084601F077
:10572C00DBFD002808BF0024204610BDB07C0B0018
:10573C00064B994210B500F10C0405D0084601F057
:10574C00CBFD002808BF0024204610BDB07C0B0008
:10575C00064B994210B500F10C0405D0084601F037
:10576C00BBFD002808BF0024204610BDB07C0B00F8
:10577C0010B568210446FEF78AFC204610BD10B512
:10578C0028210446FEF783FC204610BD10B53021BD
:10579C000446FEF77CFC204610BD6821FEF777BC62
:1057AC002821FEF774BC3021FEF771BCF0B5002542
:1057BC00EC1C8C420DD86E1C445D875D974205D164
:1057CC002644B14205D31D60601CF0BD0134254454
:1057DC00EEE70020F9E70000024A00210A20FFF75B
:1057EC0085BD00BF69500B0030B40D4611461A46FA
:1057FC00036809682868D3E90043A44630BC6047B5
:10580C00012A38B5044602D10B68236003E0022A52
:10581C0003D0032A0DD0002038BD08200D68FEF7F8
:10582C0032FC03460028F0D095E8030083E803001F
:10583C00EBE700680028EED00821FEF728FCEAE729
:10584C0010B58368044613B10322014698472046DD
:10585C0010BD10B504465830FFF7F2FF04F14800B4
:10586C00BDE81040FFF778BE10B54368013B044615
:10587C00436063B903689B689847A368013BA360C6
:10588C002BB923682046DB68BDE81040184710BDD3
:10589C00A0F13003DAB2092A01D818467047A0F1FA
:1058AC006103052B01D857387047A0F14103052B34
:1058BC0094BF37384FF0FF307047000010B500230D
:1058CC000370044B04461868FFF730FC0123237067
:1058DC00204610BDCCE6032010B5037804461BB15E
:1058EC00024B1868FFF72AFC204610BDCCE60320BB
:1058FC0082B00346086849686A4603C26A4603CA0E
:10590C0018601846596002B0704708B582798B79D7
:10591C009A4206D1062201F0FBFDB0FA80F0400954
:10592C0008BD0020FCE74FF0FF33036083800020AC
:10593C00704708B50246002101604160FFF7F3FF94
:10594C009171104608BD000010B501230361054B91
:10595C00024603F1100153F8044B42F8044B8B42FE
:10596C00F9D110BDBE7C0B0010B50B460446B1B18D
:10597C00012A01F110020AD1014653F8040B41F837
:10598C00040B9342F9D101232361204610BD411E23
:10599C0012F8010D01F8010F9A42F9D1F3E7102228
:1059AC0001F0EEFDF1E738B5044615461A46FFF74F
:1059BC00DBFFA581204638BD08B5026922B9808974
:1059CC00003818BF012008BD0249102201F0A0FDCB
:1059DC00F6E700BFDE7C0B000069704738B50C465B
:1059EC0014220021054601F0CBFD23691BB9A389C4
:1059FC002B80284638BD01232B7421462B4604F1FD
:105A0C00100251F8040B43F8040B9142F9D1F0E762
:105A1C0080897047704708B502690B699A4206D1B4
:105A2C00102201F075FDB0FA80F0400908BD00208D
:105A3C00FCE7000001232DE9F3410361344B0C46D4
:105A4C000646024603F1100153F8040B42F8040B0E
:105A5C008B42F9D144B32421204601F0F4FD0428F3
:105A6C004FF0000523D1ADF8045001AFA51C06344E
:105A7C0015F8020CFFF70CFFB0F1000812DB15F85B
:105A8C00010CFFF705FF00280CDB023540EA08107B
:105A9C00A54207F8010BEBD19DF8053033739DF847
:105AAC00043073730023336102B0BDE8F0814FF012
:105ABC0010082421204601F0C6FDA84207D8424612
:105ACC000021304602B0BDE8F04101F059BDB8F1FB
:105ADC00000FE9D0605DFFF7DBFE030615D4000173
:105AEC0008F1FF38C7B206F808702421204601F0EF
:105AFC00AAFD0135A84208D9605DFFF7C9FE40B286
:105B0C000028A4BF384306F808000135D1E700BFD0
:105B1C00BE7C0B0013B504460191FFF715FF204620
:105B2C000199FFF787FF204602B010BD38B54FF63C
:105B3C00FF730025044643800E222946057005712B
:105B4C00063001F01DFD04F11400FFF7FDFE04F119
:105B5C002800FFF7F9FE044904F13C00FFF747FD6C
:105B6C006565204638BD00BF9D790B0010B5D0E9A6
:105B7C00063203EBC2029342184606D0046824880E
:105B8C008C4203F10803F6D110BD0020FCE70000A5
:105B9C002DE9F04100260660074628200C46FEF74A
:105BAC0072FA051E05F10C080FD00123C5E901336B
:105BBC00084B2B604046FFF7C7FE0FCC2E6285F8D2
:105BCC00246046460FC623683360C7E90085384613
:105BDC00BDE8F081807C0B0070B5002505600646A1
:105BEC003020FEF750FA044688B10123C0E9013396
:105BFC00094B03604FF6FF7383810E30FFF799FE5C
:105C0C00C4E90655C4E90855C4E90A55A57574607C
:105C1C000C343460304670BD9C7C0B0037B50D469F
:105C2C00044601A8FFF74AFE2A68D2F80230236026
:105C3C00D2F80630636001A8FFF74EFE204603B091
:105C4C0030BD30B5054687B00C4601A8FFF736FECF
:105C5C002A68236812881B889A420DD1294602A80B
:105C6C00FFF7DCFF214604A8FFF7D8FF04A902A820
:105C7C00FFF74BFE044600B9002401A8FFF72CFEE9
:105C8C00204607B030BD000010B504465420FEF786
:105C9C00FAF9014660B10023C0E90033C0E90233D0
:105CAC00C0E90433C0E906330362C362C363C3644F
:105CBC00216019B9094A0A20FFF718FB0020FFF7E9
:105CCC00E5F920B1054A00210A20FFF70FFB2168F6
:105CDC0003480022FFF718FA204610BD69500B004C
:105CEC0069620B0010B50A4C2378BFF35B8FDB079E
:105CFC000CD42046FEF7CDF940B10648FFF7C4FF9F
:105D0C002046FEF7CBF9044801F0F8FB014810BD22
:105D1C00C4E60320D0E603203D5F0B0030B50368DA
:105D2C00093B012B8DB004460D4611D8FFF7DAFF65
:105D3C00A1880068FFF71AFF034658B92022CDE965
:105D4C0004200B4A00920B4904AA3220FFF7D6FA22
:105D5C000DB030BD6A6D002AFAD0D4E9032105F1EB
:105D6C004C00CDE90312AC6D04AA03A9A047EFE7E0
:105D7C008F7B0B00687B0B0008B50020FFF786F9C2
:105D8C0000EAE07008BD19B90A460846FFF786B963
:105D9C00D1E900010022F9E738B5141E4368054625
:105DAC0002DB62189A4200DD5C1A2A68501801194D
:105DBC001A44521A01F0CAFB6A68121B6A6038BD99
:105DCC0037B50A4604460D4601ABD0E90001FFF792
:105DDC00EDFC024638B101992046FFF7DDFF29465C
:105DEC002046FFF7EDFF03B030BD10B50C4629B9C6
:105DFC000A460846BDE81040FFF758B90121204675
:105E0C00FFF7DEFFD4E900010022F3E738B50446C2
:105E1C001546FFF7B8FF00280ADB29462046FFF796
:105E2C00E4FF002804DBBDE838400020FFF746B94A
:105E3C0038BD000038B500230446836008200D46A9
:105E4C00FEF721F918B12B6803606B684360034BB4
:105E5C00E360034B2060A360204638BDF5570B0070
:105E6C000D580B000B68036013B15A6801325A606D
:105E7C00704710B551F8043B044640F8043BFFF75B
:105E8C00F1FF23680BB9FFF7A7FC204610BD10B536
:105E9C0051F8043B044640F8043BFFF7E3FF20466F
:105EAC0010BD10B551F8043B044640F8043BFFF715
:105EBC00D9FF204610BD10B50446006808B1FFF7A5
:105ECC00D3FC204610BD10B504460430FFF7F3FF99
:105EDC00204610BD70B5D0E90053044605EBC3064F
:105EEC00AE4204D0281DFFF7E6FF0835F8E720681E
:105EFC00FFF7A0FA204670BD70B5D0E900530446F8
:105F0C0005EBC306AE4204D0281DFFF7D4FF0835BD
:105F1C00F8E72068FFF78EFA204670BD10B50446EE
:105F2C002430FFF7E9FF04F11800FFF7D3FF10BD91
:105F3C0070B5154B1C6834B304F14400FFF780FCBA
:105F4C0004F13400FFF77CFC04F12400FFF778FC2B
:105F5C00D4E9065305EBC306AE4204D0281DFFF767
:105F6C00AAFF0835F8E7A069FFF764FA04F10C0002
:105F7C00FFF7C2FF2046FFF7ADFF20465421BDE8D6
:105F8C007040FEF784B870BDD0E6032013B5002333
:105F9C00D1E90042C1E9003303680093046043680F
:105FAC00426001A80193FFF786FF02B010BD826822
:105FBC0010B50AB901F08CF9BDE81040C368184758
:105FCC0038B50D1E0446006803DDFFF73BFA18B91F
:105FDC0038BDFFF72FFA00202060A5600120F7E7FD
:105FEC0008B583688B4202DAFFF7EAFF08BD01208F
:105FFC00FCE72DE9F0410F4641681D4619448368C2
:10600C0099420446904612DC266862683E44D21BD4
:10601C003146701901F09AFA2A464146304601F091
:10602C0087FA63682B4463600120BDE8F081FFF7B9
:10603C00C7FF0028E8D1F8E7F8B50D46D0E9011301
:10604C009942044616460BDA276862687919521B86
:10605C00481C01F07BFA7E55636801336360F8BD20
:10606C000131FFF7ADFF0028EED1F8E70A46416891
:10607C00FFF7E2BF2DE9F74304461D460F4601AB7F
:10608C0090460A46D0E900019DF82890FFF78EFB58
:10609C00AE1C63680246B9F1000F26D128B3334415
:1060AC001B1AFF2B09D801992046FFF775FE616872
:1060BC0020463144FFF794FF18B9606803B0BDE87F
:1060CC00F0836A1C0199D2B22046FFF7B5FF019903
:1060DC003A4601312046FFF7AFFF01992B46424665
:1060EC0002312046FFF785FFE7E7F118FF29E4D8D6
:1060FC002046FFF775FF0028DFD0691CC9B2204687
:10610C00FFF7B4FF39462046FFF7B0FF61682B4616
:10611C004246E6E730B49DF808501AB1029530BCFF
:10612C00FFF7A8BF406830BC70471FB50023C0E91B
:10613C00003383600622009301238DF80F2019464B
:10614C000DF10F020446FFF7E5FF204604B010BD29
:10615C008842F8B504460D46164614D9904213D21F
:10616C00A2F10806751AA1F108072C44B74218D001
:10617C001CB131462046FFF794FE301DFFF79BFE05
:10618C00083E083CF2E70CD0B5420AD01CB12946B7
:10619C002046FFF786FE281DFFF78DFE08350834D4
:1061AC00F2E7F8BDF7B5044646686846FFF779FE96
:1061BC00D4E901739F4212DB0137002F29DDF8006F
:1061CC00FFF730F90546F0B1D4E9001201EBC20239
:1061DC00FFF7BEFF2068FFF72DF92560A760236845
:1061EC00626803EBC60603EBC202314606F10800F7
:1061FC00FFF7AEFF1EB169463046FFF752FE6368EB
:10620C0001336360012501A8FFF755FE284603B052
:10621C00F0BD0025DEE7F8B5D0E9004305460F4692
:10622C0004EBC306A64205D039462046FFF709FD0C
:10623C0008B114B9F8BD0834F4E7201DFFF73BFE94
:10624C00D5E9003204F1080103EBC2022046FFF746
:10625C007FFF6B68013B6B60ECE700002DE9F041C0
:10626C0005468EB003A80C46FFF728FB2E68042EBB
:10627C0075D007D8032E32D003A8FFF72DFB0EB034
:10628C00BDE8F081A6F10C03042BF5D8A9892046B2
:10629C00FFF76CFC0028EFD0E36C002BECD0002354
:1062AC000D2EADF8163002D0102E40F0A080002339
:1062BC0069681A4606258DF8153004918DF814205E
:1062CC000690DDE9040109AB8DF81C60089583E8A4
:1062DC000300236D06A904F144009847CCE704A8F9
:1062EC00FFF77AFC049BAA891A8069680498083124
:1062FC000230FFF7FDFA04A906A8FFF7D2FD06A9A4
:10630C0004F11800FFF74EFF054607A8FFF7D3FD71
:10631C00202306938DB93D4B3D49009332202B46EB
:10632C0006AA0795FEF7EAFF049B29461888FEF794
:10633C00CDFE05A8FFF7BFFD9EE7364A009200236D
:10634C003349079306AA0120FEF7D8FFE36A002B16
:10635C00EFD004A904F12400FFF729FEE9E7A9898D
:10636C002046FFF703FC0646002885D00568D5E9D2
:10637C0006324FF6FF71298003EBC2029A4203D01A
:10638C0053F8080B4180F9E7D5E9037307EBC30811
:10639C00B84504D0381DFFF78EFD0837F8E7002309
:1063AC002B61D5E9067307EBC308B84504D0381D3B
:1063BC00FFF781FD0837F8E70023EB61AB72E36B65
:1063CC0023B1314604F13400FFF7F1FD0023202204
:1063DC00CDE90623104A00920D4906AA0120FEF7CA
:1063EC008DFF314604F11800FFF715FF44E70F2E1F
:1063FC0001BF2B7A696803F0010208250FBFC3F3B4
:10640C0040031A4619461D4655E700BFA77B0B00F3
:10641C00687B0B00CD7B0B00EA7B0B0013B50B46A6
:10642C000246D0E900016C4684E8030093E80300BF
:10643C0082E8030094E8030083E8030002B010BD77
:10644C0038B505460C46FFF7E9FFAB68A268AA60B1
:10645C00A360EB68E268EA60E36038BD70B504469F
:10646C008CB00E4601921D46FFF760FB2671019918
:10647C0004F13C00FFF7F4F804F14C06CDB1109B8D
:10648C00029502A904A80393FFF7D4FC002308A9E2
:10649C0004A80A93FFF7D4FF314608A8FFF7D0FFF2
:1064AC0008A8FFF7CDF904A8FFF7CAF920460CB0ED
:1064BC0070BD0695EAE700002DE9F04F87B01D4648
:1064CC00DDE9104380468B469246129903930022D5
:1064DC00682002910492FDF7D6FD061E06F10C0908
:1064EC0018D001223746C6E901220299144A47F80E
:1064FC00202B039B00915A4651464846FFF7AEFFAE
:10650C000FCD0FC72B683B600FCC06F134050FC5C0
:10651C0023682B6004A94046CDE90496FFF736FDAD
:10652C0005A8FFF7C8FCD8F8001031B9054A0A20B5
:10653C0007B0BDE8F04FFEF7D9BE07B0BDE8F08F4D
:10654C00647C0B0069500B008842F8B504460D467C
:10655C00164614D9904213D2A2F10806751AA1F16D
:10656C0008072C44B74218D01CB131462046FFF71F
:10657C008EFC301DFFF79FFC083E083CF2E70CD068
:10658C00B5420AD01CB129462046FFF780FC281DD5
:10659C00FFF791FC08350834F2E7F8BD70B50E1E14
:1065AC00054611DDF000FEF73DFF044658B1D5E974
:1065BC00001201EBC202FFF7C7FF2868FEF73AFF93
:1065CC002C60AE60012070BD0024F6E773B5044664
:1065DC0045686846FFF75BFCD4E90113994210DA71
:1065EC002368626803EBC50503EBC202294605F17B
:1065FC000800FFF7A9FF8DB96368013363600126BA
:10660C0006E001312046FFF7C9FF06460028E7D116
:10661C0001A8FFF750FC304602B070BD6946284611
:10662C00FFF735FCE8E78842F8B504460D461646F8
:10663C0014D9904213D2A2F10806751AA1F10807D9
:10664C002C44B74218D01CB131462046FFF711FC40
:10665C00301DFFF730FC083E083CF2E70CD0B54289
:10666C000AD01CB129462046FFF703FC281DFFF772
:10667C0022FC08350834F2E7F8BD70B50E1E05464D
:10668C0011DDF000FEF7CEFE044658B1D5E900123C
:10669C0001EBC202FFF7C7FF2868FEF7CBFE2C60A8
:1066AC00AE60012070BD0024F6E773B50446456862
:1066BC006846FFF7DEFBD4E90113994210DA236830
:1066CC00626803EBC50503EBC202294605F108001D
:1066DC00FFF7A9FF8DB9636801336360012606E0FB
:1066EC0001312046FFF7C9FF06460028E7D101A873
:1066FC00FFF7E1FB304602B070BD69462846FFF754
:10670C00B8FBE8E72DE9F04F1746A1B080460AA880
:10671C000E46FFF7D3F83C68237953B93946404607
:10672C00FFF7A7FB0AA8FFF7D7F8404621B0BDE852
:10673C00F08F3368D3E9035305EBC303039304F1E0
:10674C00280A04F1140B039B9D4221D0D5F800902C
:10675C00584609F11401FFF75EF9B8B109F12801A7
:10676C005046FFF758F988B12368D9F800205340F8
:10677C0033F47F430AD12022CDE915235E4A0092DF
:10678C0015AA5E493220FEF7B9FDC7E70835DAE7EE
:10679C005046FFF711F960B95949012215A815ADFA
:1067AC00FFF7E2F80FCDD446ACE80F002B68CCF81D
:1067BC0000303368D3E9005305EBC30B5D45A946A4
:1067CC0051466ED055F8080BFFF725F90028F5D087
:1067DC0004F1140A5046FFF7EFF888B9494B4849C1
:1067EC001A88013292B21A8015A8012315ADFFF751
:1067FC00DAF80FCDD446ACE80F002B68CCF800309B
:10680C00414B15932822002116A800F0B9FE5146E1
:10681C0004A8FFF7E3F804AB18AA0DF1200C1868D4
:10682C005968154603C5083363452A46F7D11868DD
:10683C00286023798DF85830D9F800309B8AADF850
:10684C007430E36B1793314B0022A11D15A8CDE9D1
:10685C001E34FEF74FFC00287FF460AF0123237039
:10686C00346839460C340DA8FFF703FB20460DA9FC
:10687C00FFF71BFF04460EA8FFF71DFB002C7FF44F
:10688C004DAF2023CDE90D34214B00930DAA2346A7
:10689C0077E739464046FFF7ECFA0CA8FFF70BFBFD
:1068AC0040E70BA8FFF774F9514615A8FFF796F8C7
:1068BC000B9A0023143215A90120FEF711FC0028B5
:1068CC00E7D135680BA90DA8FFF7E1FA28460DA909
:1068DC00FFF77CFE05460EA8FFF7EDFA002DD8D089
:1068EC0032685368126803F10053013B0CA802EBA9
:1068FC00C309FFF7E0FA6BE7097C0B00687B0B0020
:10690C00CE7C0B00C8E6032003002C00295D0B0095
:10691C00347C0B00024800230360FEF7FFBB00BF72
:10692C00CCE60320F8B506460D468F180024BD4270
:10693C000CD0336815F8011B9B6830469847031E32
:10694C0001DB1C44F3E7002C08BF1C462046F8BDB5
:10695C0013B50446084659B1019100F059FE23685D
:10696C000199DB680246204602B0BDE8104018478A
:10697C0002B010BD03689B68184738B50D21054659
:10698C00FFF7F8FF0A2104462846FFF7F3FF2044DF
:10699C0038BD30B58BB00023012A8DF8243098BF58
:1069AC000A2209AC0D46B1FBF2F101FB125303F0C4
:1069BC00FF03092B94BF30333733DBB2AA4204F800
:1069CC00013DEFD92146FFF7C3FF0BB030BD2DE9D8
:1069DC00F04186B000AF05460E46381D1421144612
:1069EC003B60FEF737FD13280ED8391D2846FFF7FC
:1069FC00AFFF04461EB12846FFF7BFFF04442046F4
:106A0C001837BD46BDE8F08100F1080323F00703F9
:106A1C00E846ADEB030D2246411C3B686846FEF789
:106A2C0019FD69462846FFF793FF0446C546E1E782
:106A3C0010B50446FEF722FBE060236820465B6934
:106A4C009847002808DAFEF719FBE368C01AA36818
:106A5C009842F2D34FF0FF3010BD000070B50D46D8
:106A6C00094904461646FEF7C2FD2846FFF7E0FF2B
:106A7C00002806DB864204D0C1B22046FEF719FE80
:106A8C00F3E7204670BD00BF9D790B0000234068E2
:106A9C001A461946FEF77EBC014B024A1A60704733
:106AAC00D4E60320EE7C0B00024B1A68024B1A60F2
:106ABC00704700BF40FA0220D8E603200021FEF701
:106ACC002DBC0000014B00229A607047DCE60320CD
:106ADC00014B1860704700BF44FA022008B50B4BFD
:106AEC0043B100F067F903681B699847002801DD82
:106AFC00AFF30080064B43B100F088FB03681B69C1
:106B0C009847002801DDAFF3008008BD00000000AD
:106B1C000000000008B5FFF7E1FFFEF7AFFA014BEC
:106B2C00186008BD40E703200548064A064908B529
:106B3C00121A00F0FDFC054B054A1A6008BD00BF97
:106B4C0000F4032004F40320E0800B0000F4032085
:106B5C001E1C279A07B5002300931A466FF0770185
:106B6C00FEF7EEFB03B05DF804FB000007B54388AD
:106B7C000A2B08D0502B0BD1094B1B684BB103B01F
:106B8C005DF804EB1847FFF7E5FF03B05DF804FB75
:106B9C00002300931A466FF07701FEF7D1FBF4E760
:106BAC00F0E6032010B512480021FEF773FC114BE0
:106BBC001A68114B9A42114B0CBF012200221A7019
:106BCC0001D0FFF7B1FFFEF741FA044600F0E0FCFC
:106BDC000B4B13B12046AFF3008000210848FEF7A1
:106BEC0019FCBDE8104007480021FEF79FBB00BF11
:106BFC00DD6A0B0000F403201E1C279AECE6032030
:106C0C0000000000796B0B00704710B5182104468A
:106C1C00FDF73DFA204610BDF0B5037D062B8DB077
:106C2C000E4600F104074FF0000412D000F10805E5
:106C3C0015F8011D0A223046FFF7ABFEAF420444A3
:106C4C0019D0002CF4D02E213046FFF793FE0444CB
:106C5C00EEE72F236A4639460A208DF80040FEF7EE
:106C6C0075FA684600F0D4FC33680246DB68694666
:106C7C0030469847044620460DB0F0BD10B5054B84
:106C8C000446112240F8043B002100F079FC204618
:106C9C0010BD00BF187D0B000346074A10B543F822
:106CAC00042B01F1100251F8044B43F8044B9142B0
:106CBC00F9D10A781A7010BD187D0B0010B59DF82B
:106CCC00084044EA032343EA024242EA01610423F6
:106CDC004160037510BD000007B5064B0360CB780F
:106CEC0000938B784A780978FFF7E8FF03B05DF8DA
:106CFC0004FB00BF187D0B00417470477047704750
:106D0C0008B50021007CFEF7D9FA40EAE07008BD16
:106D1C0008B50121007CFEF7D1FA40EAE07008BD0D
:106D2C0008B5007CFEF7C2FA20EAE07008BD08B591
:106D3C00007CFEF7B3FA20EAE07008BD13B50446F8
:106D4C00007C0191FEF7B2FA0028019901DC607C0D
:106D5C0020B1207CFEF7BAFA20EAE07002B010BD38
:106D6C00007CFEF7BBBA10B514210446FDF78FF971
:106D7C00204610BD10B54FF47A7304460846002126
:106D8C00C4E90113044B236001232074637411467E
:106D9C00FEF774FA204610BD2C7D0B00007C0022FF
:106DAC00FEF774BA10B514220446002100F0E8FB7B
:106DBC00204610BD10B50F4C88B003A8FFF7F2FFAA
:106DCC002178BFF35B8F11F001010FD120460191A7
:106DDC00FDF75FF9019948B103AA0748FFF7CAFF0D
:106DEC002046FDF75BF9054800F088FB024808B027
:106DFC0010BD00BFF4E60320F8E60320096D0B007C
:106E0C0070474174704708B5007CFEF7D7F920EA4B
:106E1C00E07008BD08B5007CFEF7A8F920EAE07028
:106E2C0008BD08B5007CFEF7B1F940EAE07008BD7A
:106E3C0008B5007CFEF7A2F940EAE07008BD007CC2
:106E4C00FEF7ACB937B5457C04462DB1207C03B0B8
:106E5C00BDE83040FEF782B9007C0191FEF7AEF937
:106E6C0000280199F2DC284603B030BD10B514217E
:106E7C000446FDF70CF9204610BD000010B54FF488
:106E8C007A730446084611460022C4E90123044BD8
:106E9C002360012320746374FEF7A0F9204610BD13
:106EAC005C7D0B00007C0023FEF790B90022FFF7FD
:106EBC00F9BF7047F8B5064615460C468F18BC420C
:106ECC0006D0336814F8011B9B6830469847F6E7E8
:106EDC002846F8BD007C0022FEF788B9007C002112
:106EEC00FEF78CB9007C0021FEF790B9007C0021E4
:106EFC00FEF794B9007C0021FEF798B910B5142167
:106F0C000446FDF7C4F8204610BD000010B54FF440
:106F1C007A73044608460021C4E90113034B23602D
:106F2C0020741146FEF792F9204610BD8C7D0B00A3
:106F3C00002240681146FEF725BA0022406811462F
:106F4C00FEF740BA002240681146FEF74BBA406883
:106F5C000022FEF73FBA4068002281F00101FEF7E3
:106F6C0029BA002340681A461946FEF71BBA0022BC
:106F7C0040681146FEF7F6B9406800220221FEF780
:106F8C00F9B9002340681A46FEF7E4B9024B042213
:106F9C005A60024A1A6070470CE70320B47D0B005C
:106FAC00002340681A46FEF7D5B94068002202213A
:106FBC00FEF7E0B9002240681146FEF7D3B9002273
:106FCC0040681146FEF7DEB9002340681A461946A0
:106FDC00FEF7E0B9002340681A461946FEF7E2B9FD
:106FEC0040680021FEF706BA40680021FEF70ABA95
:106FFC004068002281F00101FEF7DCB940680022F4
:10700C00FEF7E8B9002240681146FEF7EBB9002202
:10701C0040681146FEF7D6B92DE9F04395B01446F9
:10702C000D460746FFF72AFE00211C220DA80091F1
:10703C0000F0A6FA40230C9320466B460CAA0021C4
:10704C00FDF7E4FF044600284BD102460121686895
:10705C00FEF798F90221804622466868FEF792F9FD
:10706C00009E81462146002E3BD0002939D1736801
:10707C00022B03D00A2B11D0F669F4E7B8F1000FFC
:10708C00FAD0716906A8043107ADFFF725FE0FCDC4
:10709C003C1D0FC42B6823704146EDE7B9F1000F7E
:1070AC00EAD07469102201A800F06AFA06238DF860
:1070BC00143001AD04F108031834186859682A46D5
:1070CC0003C20833A3421546F7D101A906A807ADA0
:1070DC00FFF7E2FD0FCD3C1D0FC42B682370494612
:1070EC00CAE70098FDF78AFF384615B0BDE8F08373
:1070FC00024B034A1A6000225A60704714E70320BF
:10710C00F07D0B00232813B502D9002002B010BD6E
:10711C00A0F10B03022B1AD8174C2178BFF35B8F0D
:10712C0011F001010BD120460191FCF7B2FF01993E
:10713C0028B11248FEF7F4F92046FCF7AFFF0F4BCD
:10714C001878FEF793F80028DFD10120DEE701283C
:10715C0009D800F097F80021007CFEF76FF880F05A
:10716C000100C0B2D2E709380128EED800F04EF881
:10717C00007CFEF71BF8F2E71CE7032020E7032056
:10718C00232838B504460D460AD8FF2908D0FFF746
:10719C00B9FF28B129462046BDE83840FDF73EBF6F
:1071AC0038BD38B504460D46FDF740FFFF2810D01A
:1071BC00062804D84D2323FA00F0C30709D420462F
:1071CC00FFF7A0FF28B129462046BDE83840FDF75F
:1071DC0035BF38BD7047000038B5044614252A4623
:1071EC00002100F0CDF9258040250749258128464E
:1071FC00258200F06BF804496060284600F066F8C0
:10720C00E060204638BD00BF247E0B0030B50E4D2B
:10721C002978BFF35B8F11F0010487B011D1284698
:10722C00FCF737FF68B101A8FFF7D6FF01AA21468A
:10723C000648FFF723FE2846FCF730FF044800F011
:10724C005DF9024807B030BD28E703202CE7032086
:10725C00E1710B007047000038B52025142304465B
:10726C000360856005610649284600F02FF8044943
:10727C006060284600F02AF8E060204638BD00BF68
:10728C00247E0B0030B50E4D2978BFF35B8F11F0C7
:10729C00010487B011D12846FCF7FBFE68B101A8A8
:1072AC00FFF7DAFF01AA21460648FFF72FFE284612
:1072BC00FCF7F4FE044800F021F9024807B030BD99
:1072CC0044E7032048E7032061720B00FCF7DDBEA6
:1072DC0008B5FEF7C7F80000014900F0F9B800BF87
:1072EC00407E0B007FB500241023CDE902340368E7
:1072FC0015469E6912686B46CDE90044B0479DF86F
:10730C00043003F00603062B03BF009B2B60012007
:10731C00204604B070BD0098904214BF0120062096
:10732C007047000010B5034B0360044600F0CDF825
:10733C00204610BD807E0B0010B50446FFF7F2FF0F
:10734C0020460821FCF7A3FE204610BD2DE9F04194
:10735C001F46DDE90834DDF81880984506461546C9
:10736C0007D1079900F0B4F818B165710020BDE899
:10737C00F0813946304600F0ABF80028F6D00123F6
:10738C00C4F800802571A371F0E738B515461C468A
:10739C0000F09EF820B10823E360062325602371DA
:1073AC0038BD73B505460C4601921E4600F090F8A8
:1073BC0050B9032E08D82368019A5B6929462046E8
:1073CC0002B0BDE87040184702B070BD10B5034B59
:1073DC0003600446FFF7A6FF204610BDE07E0B00BD
:1073EC0010B50446FFF7F2FF20460C21FCF74FFEC8
:1073FC00204610BDF7B5089F974205460E46144629
:10740C000AD0A86802680897156A31462246AC462D
:10741C0003B0BDE8F04060471946019300F058F8FE
:10742C00019B0028EDD0062003B0F0BD2DE9F14FF3
:10743C000D461946DDE90A4BDDE90CA681461746D7
:10744C00984600F045F890B1002D3460377109DB97
:10745C0061198A450CBF06210121B171002001B0D0
:10746C00BDE8F08F0235F9D10123B371F6E754452D
:10747C0006D15946484600F02BF808B17771EDE774
:10748C00D9F808000368CDE90CA6CDE90A4BDC69F4
:10749C003A4643462946A44601B0BDE8F04F604742
:1074AC002DE9F04107460C4615461E46FFF76DFFC9
:1074BC0048B9B86803689F692A4633462146BC46DA
:1074CC00BDE8F0416047BDE8F0817047002070478F
:1074DC00814208B50ED0406803782A2B0CD049683D
:1074EC000B782A2B08BF013100F080F8B0FA80F03D
:1074FC00400908BD0120FCE70020FAE70023014603
:10750C001A46184600F038B90A22002100F02AB9B0
:10751C0010B501390244904201D1002005E00378F6
:10752C0011F8014FA34201D0181B10BD0130F2E736
:10753C000A44914200F1FF3300D1704710B511F8A5
:10754C00014B03F8014F9142F9D110BD884210B59F
:10755C0001EB020402D98442234607D8431EA14200
:10756C0008D011F8012B03F8012FF8E7024401466B
:10757C008A4200D110BD13F8014D02F8014DF7E716
:10758C0002440346934200D1704703F8011BF9E70C
:10759C0038B5104B1D68AB6B0446B3B91820FDF71A
:1075AC0041FF0246A86320B90B4B0C484221FDF762
:1075BC0069FF0B490B4BC0E900130B4B83600B238A
:1075CC00838100210120C2E90401AB6B00221C6104
:1075DC005A6138BD44FA0220197F0B00307F0B0032
:1075EC000E33CDAB34126DE6ECDE050010F8012B3A
:1075FC0011F8013B012A28BF9A42F7D0D01A7047E4
:10760C00034611F8012B03F8012B002AF9D170471E
:10761C00034613F8012B002AFBD1181A01387047C6
:10762C0010B50139034632B111F8014F03F8014B83
:10763C00013A002CF7D11A440021934200D110BD1D
:10764C0003F8011BF9E710B5024601448A421346C0
:10765C0003D01C780132002CF8D1181A10BD000090
:10766C00012B2DE9F04701D0242B06D9FDF702FFA1
:10767C00162303600020BDE8F087DFF8E4C00D4658
:10768C002E4615F8014B14F80C7017F00807F7D1BB
:10769C002D2C32D12C780127B51C002B5BD0102B54
:1076AC0009D1302C07D12C7804F0DF04582C4DD1A3
:1076BC006C781023023507F1004808F1FF384FF0C1
:1076CC00000CB8FBF3F9664603FB198AA4F1300EE3
:1076DC00BEF1090F16D87446A34224DDBCF1000F8D
:1076EC001EDBB1451CD301D1A24519DB06FB0346B9
:1076FC004FF0010C15F8014BE8E72B2C04BF2C784C
:10770C00B51CCAE7A4F1410EBEF1190F01D8373CE4
:10771C00E2E7A4F1610EBEF1190F04D8573CDBE788
:10772C004FF0FF3CE6E7BCF1000F05DA22230360C3
:10773C00464642B930469EE707B17642002AF9D058
:10774C00BCF1000F00D0691E1160F3E73024002B50
:10775C00B1D10823AFE7302CA5D00A23ABE700BF8B
:10776C00AE7F0B0013460A46014602480068FFF73D
:10777C0077BF00BF44FA02202DE9F843DFF8B88048
:10778C000646D8F800001F460D46914600F056F804
:10779C00254B1C6834B9254C1C60254B13B11B6858
:1077AC00C4F8883063681F2B07DDD8F8000000F0A0
:1077BC0047F84FF0FF30BDE8F8834EB3D4F888009B
:1077CC0088B91C4B23B9D8F8000000F038F8F0E762
:1077DC004FF48470FDF726FE0028F4D00023C0E996
:1077EC004033C4F88800636840F8239001229A4023
:1077FC0000EB8301D0F800311343C0F80031022EA6
:10780C00C1F8807002BFD0F804311343C0F80431C2
:10781C006368D8F800005A1C0233626044F82350A5
:10782C0000F00EF80020C6E7E8E703205CE7032031
:10783C000000000031540B00A8FA0220704770477A
:10784C00704700001D400B0059400B0081400B009D
:10785C0085400B0000000000426567696E6E696E22
:10786C006720436F6D6D616E6473200A0041540D87
:10787C000A004177616974696E67205265706C7992
:10788C000A005265706C793A2025730A0041542B1A
:10789C00414444524553533D25690D0A00417761DB
:1078AC006974696E67205265706C792066726F6DB1
:1078BC0020616464726573730A005265706C792080
:1078CC00616464726573733A2025730A0041542B0A
:1078DC004E4554574F524B49443D25690D0A0041C2
:1078EC0077616974696E67205265706C7920667275
:1078FC006F6D206E6574776F726B69640A005265E8
:10790C00706C79206E6574776F726B3A2025730AF0
:10791C000041542B414444524553533F0D0A0052ED
:10792C0065706C792067657420616464726573732B
:10793C003A2025730A0041542B4E4554574F524B55
:10794C0049443F0D0A005265706C792067657420BC
:10795C006E6574776F726B3A2025730A0041542B55
:10796C004350494E3F0D0A005265706C7920676593
:10797C00742070617373776F72643A2025730A00F8
:10798C0041542B53454E443D3838382C312C350D51
:10799C000A00206D6F7665645374657070657200B3
:1079AC0041542B53454E443D3838382C312C390D2D
:1079BC000A002073656E64696E672039000A2052D4
:1079CC0065706C7920746F2073656E64203A202585
:1079DC00730A006D6F76656420746F2025692C2006
:1079EC0025690A007072696E7453746172740A00AE
:1079FC0025692C25692C25692C25690A0073696E6B
:107A0C00676C65583D2025692C2073696E676C6521
:107A1C00593D25690A0078203D2025692C20793DA7
:107A2C00202569200A007832203D2025692C2079F8
:107A3C00323D202569200A004177616974696E67BF
:107A4C0020496E636F6D696E67204D657373616756
:107A5C006500496E636F6D696E67204D6573736168
:107A6C0067653B2025730A25730A25730A25730A5B
:107A7C0025730A00496E636F6D696E67204C656EE5
:107A8C002025692C20496E636F6D696E67446174A3
:107A9C00612025690A005363616E20646964206E5D
:107AAC006F7420776F726B0A00364534303030308B
:107ABC00312D423541332D463339332D4530413943
:107ACC002D45353045323444434341394500364524
:107ADC003430303030322D423541332D463339334A
:107AEC002D453041392D45353045323444434341E1
:107AFC0039450036453430303030332D4235413342
:107B0C002D463339332D453041392D4535304532ED
:107B1C0034444343413945007478007278000000C6
:107B2C0000000000000000000F550B0005550B0075
:107B3C00FB540B00F1540B00E5540B00D9540B0013
:107B4C00ED6F0B00F56F0B00CD540B00C5540B0003
:107B5C00BB540B00B1540B0025700B007769726994
:107B6C006E672E626C650053746172742064697365
:107B7C00636F766572696E6720736572766963658B
:107B8C00732E0050656572206465766963652069A3
:107B9C0073206D697373696E6721004661696C654A
:107BAC006420746F20617070656E642070656572FE
:107BBC002043656E7472616C206465766963652E12
:107BCC0000436F6E6E656374656420627920436553
:107BDC006E7472616C206465766963652E0044690D
:107BEC0073636F6E6E656374656420627920726571
:107BFC006D6F7465206465766963652E00447570DD
:107C0C006C69636174656420636861726163746537
:107C1C007269737469632063616E6E6F7420626540
:107C2C002061646465642E004661696C656420742F
:107C3C006F20617070656E64206C6F63616C206383
:107C4C00686172616374657269737469632E000094
:107C5C00000000000000000019570B007D570B00BE
:107C6C005F580B00A7570B001D570B0000000000BE
:107C7C000000000015570B008B570B0017570B001B
:107C8C00AD570B003D570B0000000000000000003A
:107C9C0013570B0099570B00295F0B00B3570B00C0
:107CAC005D570B0000000000000000000000000009
:107CBC000000FB349B5F800000800010000000007F
:107CCC0000007BE327747BF815ACDD49A913000099
:107CDC0072F5FB349B5F80000080001000000000F8
:107CEC0000006170700025592D256D2D25645425DB
:107CFC00483A254D3A2553257A0061736374696DB2
:107D0C00650000000000000000000000256C0B0066
:107D1C00156C0B00176C0B0000000000000000003D
:107D2C000B6D0B00736D0B00496D0B0031690B0073
:107D3C003B6D0B000D6D0B001D6D0B006D6D0B0085
:107D4C002D6D0B00056D0B00000000000000000005
:107D5C000D6E0B00796E0B00516E0B0031690B0030
:107D6C00216E0B003D6E0B002F6E0B004B6E0B004B
:107D7C000F6E0B00136E0B000000000000000000E3
:107D8C00BF6E0B00096F0B00E16E0B00C16E0B0098
:107D9C00E96E0B00F16E0B00F96E0B00016F0B001E
:107DAC0000000000000000008F6F0B00856F0B00BF
:107DBC007B6F0B003D6F0B00996A0B006F6F0B0014
:107DCC00ED6F0B00F56F0B00636F0B005B6F0B001F
:107DDC00516F0B00476F0B0025700B00000000006B
:107DEC0000000000AD6F0B00B76F0B00C16F0B00F4
:107DFC00CB6F0B00D56F0B00E16F0B00ED6F0B0021
:107E0C00F56F0B00FD6F0B0009700B0011700B0070
:107E1C001B700B0025700B0000537431395F5370CD
:107E2C005F6D616B655F7368617265645F746167D8
:107E3C0000000000807E0B00257E0B00E07E0B0016
:107E4C00547E0B00047F0B004E31305F5F637878FB
:107E5C00616269763131375F5F636C6173735F7434
:107E6C007970655F696E666F450000000000000068
:107E7C00487E0B0031730B0045730B00D9740B005B
:107E8C00D9740B00AF730B00F1720B0097730B00DE
:107E9C0059730B0023730B00E07E0B00B07E0B00BC
:107EAC00487E0B004E31305F5F6378786162697693
:107EBC003132305F5F73695F636C6173735F7479C8
:107ECC0070655F696E666F45000000000000000081
:107EDC00A47E0B00D9730B00ED730B00D9740B004F
:107EEC00D9740B00AF730B00F1720B00AD740B0067
:107EFC0039740B0001740B00807E0B000C7F0B009F
:107F0C00537439747970655F696E666F00524545BC
:107F1C004E54206D616C6C6F632073756363656583
:107F2C00646564002F6D6E742F776F726B73706164
:107F3C0063652F776F726B73706163652F47434373
:107F4C002D31302D706970656C696E652F6A656EA8
:107F5C006B696E732D4743432D31302D70697065FD
:107F6C006C696E652D34385F3230323031313234D9
:107F7C005F313630363138303634312F7372632FEF
:107F8C006E65776C69622F6E65776C69622F6C69B0
:107F9C0062632F7374646C69622F72616E642E63FA
:107FAC0000002020202020202020202828282828DD
:107FBC0020202020202020202020202020202020B5
:107FCC00202088101010101010101010101010100D
:107FDC00101004040404040404040404101010100D
:107FEC0010101041414141414101010101010101C8
:107FFC000101010101010101010101010110101038
:10800C00101010424242424242020202020202029A
:10801C00020202020202020202020202021010100A
:10802C001020000000000000000000000000000014
:10803C000000000000000000000000000000000034
:10804C000000000000000000000000000000000024
:10805C000000000000000000000000000000000014
:10806C000000000000000000000000000000000004
:10807C0000000000000000000000000000000000F4
:10808C0000000000000000000000000000000000E4
:10809C0000000000000000000000000000000000D4
:1080AC0000000000E14B0B0019550B0041550B0073
:1080BC0021690B00A56A0B00B56A0B00D16A0B0095
:1080CC00996F0B00FD700B00000000000000000019
:0480DC0000000000A0
:0480E000000000009C
:1080E400E703000005000000067D0B0048FA0220AB
:1080F400000000000000000000000000000000007C
:10810400000000000000000000000000000000006B
:10811400000000000000000000000000000000005B
:10812400000000000000000000000000000000004B
:10813400000000000000000000000000000000003B
:10814400000000000000000000000000000000002B
:04815400ECE7032031
:10815800FFFFFFFF00000102030405060708090AE4
:108168000B0C0D0E0F101112131415161718191ADF
:088178001B1C1D1E1F20280026
:0481800078563412E7
:04000003B000401CED
:00000001FF
