:02000002B0004C
:1040000000400B0038750B00000006000C00050294
:084010000401810C0000000016
:04401800D06E0B005B
:10401C0009480A49884208B505D0094A824202D0AB
:10402C00121A02F06DFE0748074A0021121A02F01C
:10403C008FFE014808BD00BF80E50320A4740B006F
:10404C00ECE50320ECE50320EDE7032070B5074E0B
:10405C00074C02F097F9A41BA4080025AC4200D130
:10406C0070BD56F8043B98470135F7E77C740B009C
:10407C00A0740B0000F024B808B500F0A3F8BDE85C
:10408C00084002F037B900F04DBE00F04BBE00F016
:10409C0051BE0078B0FA80F04009704701230370DC
:1040AC0070470EB403B503AB002153F8042B0193F6
:1040BC0002F0A3F802B05DF804EB03B07047000007
:1040CC0070B58EB002F06AFA4FF4165102F056FA3F
:1040DC00002000F053FC43F698250446002000F025
:1040EC004DFC001B61F10001A84271F1000307D2E5
:1040FC0002F054FA02F046FA10B900F003FEEDE7B4
:10410C0002F04CFA02F03EFA01F002FA01F04AFA1F
:10411C0001F0FEF9254A264C014609A801F008FFDA
:10412C0009A801F0E6FA01F0F3F9224A014609A8C0
:10413C0001F0FEFE09A801F0DCFA0FCC04AD0FC5AE
:10414C0004AD0FCD266809AC0FC409A8266001F098
:10415C0059F8044609A804BB01F070F80094ADF8B6
:10416C000E0002230DF10E020321134801F0E8FBAF
:10417C0001F0CEF90022104901F05EFA0F480A2135
:10418C0000F0A2FA0E480A2100F09EFA002113203A
:10419C000EB0BDE8704002F0DFBB01F051F8002317
:1041AC000093024610230721DFE700BFA4E603209B
:1041BC00F8E5032044E6032038E6032078E60320E4
:1041CC004CE603207047000070B51248192100F02E
:1041DC004DFB1148192100F049FB322401256FF0E9
:1041EC00310629460B48714300F040FB0A484FF05A
:1041FC00FF3100F03BFB013CC5F10005F1D1054856
:10420C006FF0180100F032FBBDE870400248192134
:10421C0000F02CBB4CE6032078E60320F0B51E4DD5
:10422C001E4E85B000240A2703233222002100975A
:10423C00204602F02BF801460390284600F044FA81
:10424C000399304600F040FAE3071DD42146284676
:10425C0000F00CFB21463046013400F007FB322CF9
:10426C00E2D10D480A2100F02FFA0B480A2100F088
:10427C002BFA0948192100F0F9FA0848192105B060
:10428C00BDE8F04000F0F2BA61422846039100F01C
:10429C00EDFA0399DFE700BF4CE6032078E6032034
:1042AC002DE9F04792B015460E46044602F076F919
:1042BC002946074606A801F0C7F8002106A800F019
:1042CC0029FF2946059008A801F0BEF8012108A88D
:1042DC0000F020FF294604900AA801F0B5F802214D
:1042EC000AA800F017FF294680460CA801F0ACF88C
:1042FC0003210CA800F00EFF294681460EA801F000
:10430C00A3F804210EA800F005FF2946824610A848
:10431C0001F09AF8052110A800F0FCFEDDE904324A
:10432C006F49CDE902A0CDE900893846FFF7B9FE07
:10433C0002F034F96B49DFF8E081FFF7B2FE00259B
:10434C00EFB2BE4205F1010506D902F027F9E25D94
:10435C004146FFF7A6FEF3E72378212B18D16378AB
:10436C00422B15D1A378352B20D1E378312B1DD1DD
:10437C0002F014F95C49FFF794FE5C4B5C48196839
:10438C0000F074FA2378212B02D16378422B0DD0E4
:10439C0002F004F95749FFF784FE02F0FFF8564982
:1043AC002246FFF77EFE12B0BDE8F087A378362BCD
:1043BC0013D1E378312B10D102F0F0F84F49FFF70D
:1043CC0070FE4A4B4A481968494200F04FFA23786C
:1043DC00212BDDD16378422BDAD1A378382B13D182
:1043EC00E378312B10D102F0D9F84549FFF759FE8B
:1043FC003E4B44481968494200F038FA2378212B87
:10440C00C6D16378422BC3D1A378372B12D1E37872
:10441C00312B0FD102F0C2F83B49FFF742FE334B70
:10442C003848196800F022FA2378212BB0D1637830
:10443C00422BADD1A378312B12D1E378312B0FD194
:10444C002A4D2B6801332B6002F0A8F82A682F49FB
:10445C00FFF727FE2378212B9AD16378422B97D133
:10446C00A378322B16D1E378312B13D11F4D2B6847
:10447C00013B002BD8BF01232B6002F08FF82A6878
:10448C002249FFF70EFE2378212B81D16378422B32
:10449C007FF47EAFA378332B11D1E378312B0ED17F
:1044AC0002F07CF81A49FFF7FCFDFFF78DFE23782C
:1044BC00212B7FF46DAF6378422B7FF469AFA37827
:1044CC00342B7FF465AFE378312B7FF461AF02F0CE
:1044DC0065F81049FFF7E5FDFFF7A0FE58E700BFB0
:1044EC00E46E0B00186F0B00246F0B0034E60320F6
:1044FC0078E60320166F0B00736F0B002E6F0B000A
:10450C003A6F0B004CE60320476F0B00536F0B0008
:10451C00616F0B006A6F0B001F6F0B002DE9F047EA
:10452C00484B494A9A60002798B0C3E900770220AB
:10453C0000F06CFB07230522CDE900324FF400613B
:10454C00062308224148424C424D434E00F09AF853
:10455C000D230B210E22CDE9003140480C234FF4E2
:10456C00006100F08FF83E49204600F0E9FE3D491D
:10457C00284600F0E5FE3C49304600F0E1FE0FCE47
:10458C000DF1100CA046ACE80F00B8E80F00D6F8FF
:10459C0000A0CCF800A009AE0FC60DF1100CBCE8C1
:1045AC000F00D8F80090C6F800900EAE0FC6DFF8DA
:1045BC00CCE0C6F800A00DF1240CCEE90077BCE8E5
:1045CC000F0013AE0FC6C6F8009013AE0EAB7046BC
:1045DC00CDE90177254900964FF0100201F082FBDE
:1045EC000FCD0DF1100CACE80F000FCCD5F800E09E
:1045FC00D8F80080CCF800E009AD0FC5C5F80080F4
:10460C0004AD0FCD0EAC0FC4DFF874C0C4F800E0DD
:10461C0009ADCCE900770FCD34460FC4144BC4F868
:10462C0000806046CDE90063124902970EAB4FF053
:10463C00040201F057FB104818B0BDE8F04701F038
:10464C008AB900BFECE503200000FFFF78E60320E9
:10465C00F8E503200CE6032020E603204CE60320BB
:10466C00816F0B00A66F0B00CB6F0B00F06F0B0074
:10467C00AD420B00F36F0B0038E60320A4E60320D9
:10468C0044E6032038B5C0E90523049BC361044606
:10469C00059B03620025056105608562816090B20F
:1046AC00012102F059F9208B012102F055F9A08B60
:1046BC00012102F051F9208C012102F04DF9042363
:1046CC006562E360204638BD8268034B93FBF2F3CE
:1046DC0093FBF1F1416070470087930338B5C368D1
:1046EC00022B04460D460DD103290BD8DFE801F04F
:1046FC000213151B0021A08A02F03FF90121208B27
:10470C0002F03BF9E368042B1FD1032D1DD8DFE821
:10471C0005F00C2A303E0121EDE70121A08A02F0C0
:10472C002CF90021EBE70021F8E70121A08A02F027
:10473C0024F90021208B02F020F90121A08B02F03A
:10474C001CF90021208C02F018F9E368052B40F0CD
:10475C008C80092D00F28980DFE805F01F2937498C
:10476C005F6167717F850021A08A02F006F9012143
:10477C00E0E70021A08A02F000F90121208B02F071
:10478C00FCF80021A08B02F0F8F80121DAE70121F6
:10479C00A08A02F0F2F80021F0E70021A08A02F0D2
:1047AC00ECF80121208B02F0E8F8012108E0A08A46
:1047BC00002102F0E2F80121208B02F0DEF800214A
:1047CC00A08B02F0DAF800210CE0A08A002102F0A4
:1047DC00D4F8208B012102F0D0F80021A08B02F03C
:1047EC00CCF80121208C02F0C8F8012110E0002146
:1047FC00A08A02F0C2F80121208B02F0BEF8002141
:10480C00A08B02F0BAF80121208C02F0B6F800213E
:10481C00A08CBDE8384002F0B0B80121E8E70121D6
:10482C00A08A02F0AAF80021E6E7A08A012102F092
:10483C00A4F80021208B02F0A0F80121E0E7A08A67
:10484C00012102F09AF8208B002102F096F8012148
:10485C00A08B02F092F80021D6E70121A08A02F089
:10486C008CF800219EE70021F8E738BDF8B5002947
:10487C0081EAE1750446A5EBE17524DD0123236093
:10488C0000270A2685B300F069F8A36A6268C31A88
:10489C009342F7D322682369A062012A16D1A26839
:1048AC000133934208BF3B462361D4E90331052B06
:1048BC0005F1FF3510D191FBF6F306FB13112046E1
:1048CC00FFF70CFFDEE7DBD00023D8E70BB9A368BA
:1048DC0023612369013BE7E74B4203F0030301F03B
:1048EC00030158BF5942EAE7F8BD000008B5024B76
:1048FC001B689B68019308BD6802030008B5024B56
:10490C001B68DB68019308BD6802030008B5024B05
:10491C001B689B68019308BD2C02030008B5024B71
:10492C001B68DB68019308BD2C02030008B5024B21
:10493C001B681B69019308BD2C02030008B5024BD0
:10494C001B685B68019308BD1802030008B5024B95
:10495C001B68DB68019308BD1802030008B5024B05
:10496C001B681B69019308BD1802030008B5024BB4
:10497C001B685B69019308BD1802030008B5024B64
:10498C001B68DB6D019308BD1802030008B5024BD0
:10499C001B689B68019308BD7802030008B5024BA5
:1049AC001B681B6D019308BD7802030008B5024B10
:1049BC001B689B6D019308BD7802030008B5024B80
:1049CC001B681B6E019308BD7802030008B5034BEE
:1049DC001B68D3F89830019308BD000078020300DF
:1049EC0008B5034B1B68D3F8A830019308BD000031
:1049FC007802030008B5034B1B68D3F8EC30019325
:104A0C0008BD00007802030008B5034B1B68D3F8FF
:104A1C00F030019308BD00007802030008B5024B8A
:104A2C001B685B6C019308BD4802030008B5024B80
:104A3C001B68DB6C019308BD4802030008B5024BF0
:104A4C001B685B6D019308BD4802030008B5024B5F
:104A5C001B685B69019308BD6402030008B5024B37
:104A6C001B68DB68019308BD3C02030008B5024BD0
:104A7C001B681B69019308BD3C02030008B5024B7F
:104A8C001B685B69019308BD3C02030008B5024B2F
:104A9C001B689B69019308BD3C02030008B5024BDF
:104AAC001B68DB69019308BD3C02030008B5024B8F
:104ABC001B681B6A019308BD3C02030008B5024B3E
:104ACC001B689B6A019308BD3C02030008B5024BAE
:104ADC001B681B6C019308BD3C02030008B5024B1C
:104AEC001B681B6A019308BD2802030008B5024B22
:104AFC001B685B6A019308BD2802030008B5024BD2
:104B0C001B689B6A019308BD2802030008B5024B81
:104B1C001B68DB6A019308BD2802030008B5024B31
:104B2C001B681B6B019308BD2802030008B5024BE0
:104B3C001B685B6B019308BD2802030008B5024B90
:104B4C001B681B6C019308BD2802030008B5024BBF
:104B5C001B68DB69019308BD3002030008B5024BEA
:104B6C001B681B6A019308BD3002030008B5024B99
:104B7C001B681B68019308BD4C02030008B5024B6F
:104B8C001B685B68019308BD4C02030008B5024B1F
:104B9C001B681B69019308BD4C02030008B5024B4E
:104BAC001B685B69019308BD4C02030008B5024BFE
:104BBC001B689B69019308BD4C02030008B5024BAE
:104BCC001B68DB69019308BD4C02030008B5024B5E
:104BDC001B681B6A019308BD4C02030008B5024B0D
:104BEC001B689B6A019308BD4C02030008B5024B7D
:104BFC001B685B6B019308BD6002030008B5024B98
:104C0C001B681B6D019308BD6002030008B5024BC5
:104C1C001B685B68019308BD2002030008B5034BB9
:104C2C001B68D3F88830019308BD000020020300F4
:104C3C0008B5034B1B68D3F89430019308BD0000F2
:104C4C002002030008B5024B1B685B68019308BD8A
:104C5C004002030008B5024B1B689B68019308BD1A
:104C6C004002030008B5024B1B68DB68019308BDCA
:104C7C004002030008B5024B1B681B69019308BD79
:104C8C004002030008B5024B1B685B69019308BD29
:104C9C004002030008B5024B1B689B69019308BDD9
:104CAC004002030008B5024B1B68DB69019308BD89
:104CBC004002030008B5024B1B681B6A019308BD38
:104CCC004002030008B5024B1B681B6B019308BD27
:104CDC004002030008B5024B1B685B6B019308BDD7
:104CEC004002030008B5024B1B681B6C019308BD06
:104CFC004002030008B5024B1B685B6C019308BDB6
:104D0C004002030008B5024B1B689B68019308BD69
:104D1C004402030008B5024B1B68DB6B019308BD12
:104D2C004402030008B5024B1B681B68019308BDC5
:104D3C001C02030008B5024B1B685B68019308BD9D
:104D4C001C02030008B5024B1B689B68019308BD4D
:104D5C001C02030008B5024B1B685B6A019308BD7B
:104D6C001C02030008B5024B1B68DB6A019308BDEB
:104D7C001C02030008B5024B1B681B6C019308BD99
:104D8C001C02030008B5024B1B685B6C019308BD49
:104D9C001C020300002240681146FFF78BBF002263
:104DAC0040681146FFF796BF40680022FFF78ABFA4
:104DBC004068002281F00101FFF774BF00234068B6
:104DCC001A461946FFF766BF002340681A46194673
:104DDC00FFF758BF002240681146FFF74BBF002277
:104DEC0040681146FFF736BF406800220221FFF7EA
:104DFC0039BF002340681A46FFF724BF024B032239
:104E0C005A60024A1A607047ACE6032000700B002F
:104E1C0010B5044608462170FFF798FE0023636026
:104E2C00204610BD054B02221A60054B054A9A60BC
:104E3C000020C3E90000FFF7E9BE00BFC0E6032075
:104E4C00B4E603200000FFFF10B504460068FFF72E
:104E5C0071FF204610BD10B50446006808B1FFF77D
:104E6C0069FF0023C4E90133236010BD38B5044643
:104E7C000D4600680131FFF765FF10B1C4E900056C
:104E8C00012038BD10B50368044623B143688B423A
:104E9C0001D3012010BD2046FFF7E8FF0028F9D010
:104EAC00A368002BF5D122681370F2E737B50D46D5
:104EBC00114601920446FFF7E5FF019A28B92046F6
:104ECC00FFF7C9FF204603B030BDA2602946206819
:104EDC0001F016FF2268A3680021D154F2E70023E9
:104EEC0013B5C0E9003304468360037341B108462F
:104EFC00019101F06DFF019902462046FFF7D6FFA4
:104F0C00204602B010BD13B5044659B108460191B4
:104F1C0001F05EFF019902462046FFF7C7FF2046CD
:104F2C0002B010BDFFF797FFF9E770477047704765
:104F3C0070470000064B994210B500F10C0405D0E7
:104F4C00084601F0B5FD002808BF0024204610BD1E
:104F5C007C710B00064B994210B500F10C0405D086
:104F6C00084601F0A5FD002808BF0024204610BD0E
:104F7C007C710B00064B994210B500F10C0405D066
:104F8C00084601F095FD002808BF0024204610BDFE
:104F9C007C710B0010B568210446FFF778F82046A9
:104FAC0010BD10B528210446FFF771F8204610BD3E
:104FBC0010B530210446FFF76AF8204610BD682171
:104FCC00FFF765B82821FFF762B83021FFF75FB80B
:104FDC00F0B50025EC1C8C420DD86E1C445D875D31
:104FEC00974205D12644B14205D31D60601CF0BD2B
:104FFC0001342544EEE70020F9E70000024A0021C5
:10500C000A20FFF7F3BD00BF59490B0030B40D4621
:10501C0011461A46036809682868D3E90043A44678
:10502C0030BC6047012A38B5044602D10B682360B6
:10503C0003E0022A03D0032A0DD0002038BD08203B
:10504C000D68FFF720F803460028F0D095E8030020
:10505C0083E80300EBE700680028EED00821FFF797
:10506C0016F8EAE710B58368044613B1032201462B
:10507C009847204610BD10B504465830FFF7F2FF94
:10508C0004F14800BDE81040FFF7DEBE10B54368E0
:10509C00013B0446436063B903689B689847A36867
:1050AC00013BA3602BB923682046DB68BDE81040A8
:1050BC00184710BDA0F13003DAB2092A01D81846FE
:1050CC007047A0F16103052B01D857387047A0F148
:1050DC004103052B94BF37384FF0FF307047000069
:1050EC0010B500230370044B04461868FFF79EFCB0
:1050FC0001232370204610BDCCE6032010B50378A5
:10510C0004461BB1024B1868FFF798FC204610BDF3
:10511C00CCE60320052994BF405C0020704782B088
:10512C000346086849686A4603C26A4603CA18609F
:10513C001846596002B0704708B582798B799A424B
:10514C0006D1062201F0CCFDB0FA80F0400908BD72
:10515C000020FCE74FF0FF33036083800020704792
:10516C0008B50246002101604160FFF7F3FF917121
:10517C00104608BD10B501230361054B024603F12F
:10518C00100153F8044B42F8044B8B42F9D110BD7B
:10519C008A710B0010B50B460446B1B1012A01F11E
:1051AC0010020AD1014653F8040B41F8040B934248
:1051BC00F9D101232361204610BD411E12F8010DC7
:1051CC0001F8010F9A42F9D1F3E7102201F0C0FD6A
:1051DC00F1E738B5044615461A46FFF7DBFFA58103
:1051EC00204638BD08B5026922B98089003818BF3D
:1051FC00012008BD0249102201F072FDF6E700BF44
:10520C00AA710B000069704738B50C4614220021B6
:10521C00054601F09DFD23691BB9A3892B80284607
:10522C0038BD01232B7421462B4604F1100251F892
:10523C00040B43F8040B9142F9D1F0E780897047D5
:10524C00704708B502690B699A4206D1102201F029
:10525C0047FDB0FA80F0400908BD0020FCE70000D3
:10526C0001232DE9F3410361344B0C4606460246FB
:10527C0003F1100153F8040B42F8040B8B42F9D1E3
:10528C0044B32421204601F0ABFD04284FF0000567
:10529C0023D1ADF8045001AFA51C063415F8020C4F
:1052AC00FFF708FFB0F1000812DB15F8010CFFF74F
:1052BC0001FF00280CDB023540EA0810A54207F874
:1052CC00010BEBD19DF8053033739DF804307373EB
:1052DC000023336102B0BDE8F0814FF010082421A7
:1052EC00204601F07DFDA84207D8424600213046F9
:1052FC0002B0BDE8F04101F02BBDB8F1000FE9D0D0
:10530C00605DFFF7D7FE030615D4000108F1FF38E6
:10531C00C7B206F808702421204601F061FD013562
:10532C00A84208D9605DFFF7C5FE40B20028A4BFB3
:10533C00384306F808000135D1E700BF8A710B002D
:10534C0013B504460191FFF715FF20460199FFF7AD
:10535C0087FF204602B010BD38B54FF6FF7300250D
:10536C00044643800E22294605700571063001F073
:10537C00EFFC04F11400FFF7FDFE04F12800FFF729
:10538C00F9FE044904F13C00FFF7A9FD65652046D0
:10539C0038BD00BF176F0B0010B5D0E9063203EB18
:1053AC00C2029342184606D0046824888C4203F14A
:1053BC000803F6D110BD0020FCE700002DE9F041F8
:1053CC0000260660074628200C46FEF75CFE051EEC
:1053DC0005F10C080FD00123C5E90133084B2B60F4
:1053EC004046FFF7C7FE0FCC2E6285F82460464678
:1053FC000FC623683360C7E900853846BDE8F081E5
:10540C004C710B0070B50025056006463020FEF788
:10541C003AFE044688B10123C0E90133094B03600D
:10542C004FF6FF7383810E30FFF79AFEC4E90655E1
:10543C00C4E90855C4E90A55A57574600C34346088
:10544C00304670BD68710B0037B50D46044601A897
:10545C00FFF746FE2A68D2F802302360D2F80630F5
:10546C00636001A8FFF74AFE204603B030BD30B59B
:10547C00054687B00C4601A8FFF732FE2A68236860
:10548C0012881B889A420DD1294602A8FFF7DCFF2F
:10549C00214604A8FFF7D8FF04A902A8FFF74CFE89
:1054AC00044600B9002401A8FFF728FE204607B0E7
:1054BC0030BD000010B504465420FEF7E4FD014653
:1054CC0060B10023C0E90033C0E90233C0E9043302
:1054DC00C0E906330362C362C363C364216019B9B4
:1054EC00094A0A20FFF782FB0020FFF74FFA20B190
:1054FC00054A00210A20FFF779FB216803480022A6
:10550C00FFF782FA204610BD59490B00955A0B0043
:10551C0010B50A4C2378BFF35B8FDB070CD4204605
:10552C00FEF7B7FD40B10648FFF7C4FF2046FEF773
:10553C00B5FD044801F0CEFB014810BDC4E60320C4
:10554C00D0E6032069570B0030B50368093B012BEB
:10555C008DB004460D4611D8FFF7DAFFA18800681C
:10556C00FFF71AFF034658B92022CDE904200B4A55
:10557C0000920B4904AA3220FFF740FB0DB030BD5E
:10558C006A6D002AFAD0D4E9032105F14C00CDE96B
:10559C000312AC6D04AA03A9A047EFE75B700B00E4
:1055AC0034700B0008B50020FFF7F0F900EAE0704A
:1055BC0008BD19B90A460846FFF7F0B9D1E9000150
:1055CC000022F9E738B5141E4368054602DB621861
:1055DC009A4200DD5C1A2A68501801191A44521AB2
:1055EC0001F09CFB6A68121B6A6038BD37B50A462D
:1055FC0004460D4601ABD0E90001FFF7E9FC024679
:10560C0038B101992046FFF7DDFF29462046FFF708
:10561C00EDFF03B030BD10B50C4629B90A4608465B
:10562C00BDE81040FFF7C2B901212046FFF7DEFFAD
:10563C00D4E900010022F3E738B504461546FFF71C
:10564C00B8FF00280ADB29462046FFF7E4FF0028B4
:10565C0004DBBDE838400020FFF7B0B938BD0000CE
:10566C0038B500230446836008200D46FEF70BFD79
:10567C0018B12B6803606B684360034BE360034B0A
:10568C002060A360204638BD19500B0031500B0030
:10569C000B68036013B15A6801325A60704710B539
:1056AC0051F8043B044640F8043BFFF7F1FF236834
:1056BC000BB9FFF7A3FC204610BD10B551F8043B05
:1056CC00044640F8043BFFF7E3FF204610BD10B53D
:1056DC0051F8043B044640F8043BFFF7D9FF204641
:1056EC0010BD10B50446006808B1FFF7CFFC20468A
:1056FC0010BD10B504460430FFF7F3FF204610BD73
:10570C0070B5D0E90053044605EBC306AE4204D095
:10571C00281DFFF7E6FF0835F8E72068FFF70AFBBE
:10572C00204670BD70B5D0E90053044605EBC306A6
:10573C00AE4204D0281DFFF7D4FF0835F8E72068E7
:10574C00FFF7F8FA204670BD10B504462430FFF779
:10575C00E9FF04F11800FFF7D3FF10BD70B5154B2E
:10576C001C6834B304F14400FFF77CFC04F13400F2
:10577C00FFF778FC04F12400FFF774FCD4E906531E
:10578C0005EBC306AE4204D0281DFFF7AAFF08356F
:10579C00F8E7A069FFF7CEFA04F10C00FFF7C2FF9F
:1057AC002046FFF7ADFF20465421BDE87040FEF7C0
:1057BC006EBC70BDD0E6032013B50023D1E90042C6
:1057CC00C1E900330368009304604368426001A898
:1057DC000193FFF786FF02B010BD826810B50AB9BD
:1057EC0001F062F9BDE81040C368184738B50D1ECA
:1057FC000446006803DDFFF7A5FA18B938BDFFF7BA
:10580C0099FA00202060A5600120F7E708B58368AD
:10581C008B4202DAFFF7EAFF08BD0120FCE72DE915
:10582C00F0410F4641681D4619448368994204466D
:10583C00904612DC266862683E44D21B31467019D1
:10584C0001F06CFA2A464146304601F059FA636879
:10585C002B4463600120BDE8F081FFF7C7FF0028EF
:10586C00E8D1F8E7F8B50D46D0E9011399420446A2
:10587C0016460BDA276862687919521B481C01F02E
:10588C004DFA7E55636801336360F8BD0131FFF753
:10589C00ADFF0028EED1F8E70A464168FFF7E2BFFA
:1058AC002DE9F74304461D460F4601AB90460A46C8
:1058BC00D0E900019DF82890FFF78AFBAE1C6368C5
:1058CC000246B9F1000F26D128B333441B1AFF2B23
:1058DC0009D801992046FFF775FE616820463144CE
:1058EC00FFF794FF18B9606803B0BDE8F0836A1C39
:1058FC000199D2B22046FFF7B5FF01993A46013122
:10590C002046FFF7AFFF01992B4642460231204655
:10591C00FFF785FFE7E7F118FF29E4D82046FFF7EA
:10592C0075FF0028DFD0691CC9B22046FFF7B4FF11
:10593C0039462046FFF7B0FF61682B464246E6E742
:10594C0030B49DF808501AB1029530BCFFF7A8BFCF
:10595C00406830BC70471FB50023C0E9003383603A
:10596C000622009301238DF80F2019460DF10F022A
:10597C000446FFF7E5FF204604B010BD8842F8B599
:10598C0004460D46164614D9904213D2A2F10806CD
:10599C00751AA1F108072C44B74218D01CB1314636
:1059AC002046FFF794FE301DFFF79BFE083E083C97
:1059BC00F2E70CD0B5420AD01CB129462046FFF7BD
:1059CC0086FE281DFFF78DFE08350834F2E7F8BD7A
:1059DC00F7B5044646686846FFF779FED4E90173CB
:1059EC009F4212DB0137002F29DDF800FFF79AF9EF
:1059FC000546F0B1D4E9001201EBC202FFF7BEFF7D
:105A0C002068FFF797F92560A7602368626803EBAD
:105A1C00C60603EBC202314606F10800FFF7AEFFE3
:105A2C001EB169463046FFF752FE6368013363606E
:105A3C00012501A8FFF755FE284603B0F0BD00254F
:105A4C00DEE7F8B5D0E9004305460F4604EBC30684
:105A5C00A64205D039462046FFF709FD08B114B916
:105A6C00F8BD0834F4E7201DFFF73BFED5E9003202
:105A7C0004F1080103EBC2022046FFF77FFF6B68BD
:105A8C00013B6B60ECE700002DE9F04105468EB060
:105A9C0003A80C46FFF724FB2E68042E75D007D8FC
:105AAC00032E32D003A8FFF729FB0EB0BDE8F0811E
:105ABC00A6F10C03042BF5D8A9892046FFF76CFC42
:105ACC000028EFD0E36C002BECD000230D2EADF8AA
:105ADC00163002D0102E40F0A080002369681A46C0
:105AEC0006258DF8153004918DF814200690DDE90B
:105AFC00040109AB8DF81C60089583E80300236D45
:105B0C0006A904F144009847CCE704A8FFF77AFCF7
:105B1C00049BAA891A806968049808310230FFF73F
:105B2C00FEFA04A906A8FFF7D2FD06A904F1180095
:105B3C00FFF74EFF054607A8FFF7D3FD202306937A
:105B4C008DB93D4B3D49009332202B4606AA079553
:105B5C00FFF754F8049B29461888FEF737FF05A871
:105B6C00FFF7BFFD9EE7364A0092002333490793A7
:105B7C0006AA0120FFF742F8E36A002BEFD004A934
:105B8C0004F12400FFF729FEE9E7A9892046FFF775
:105B9C0003FC0646002885D00568D5E906324FF689
:105BAC00FF71298003EBC2029A4203D053F8080B11
:105BBC004180F9E7D5E9037307EBC308B84504D076
:105BCC00381DFFF78EFD0837F8E700232B61D5E968
:105BDC00067307EBC308B84504D0381DFFF781FDE9
:105BEC000837F8E70023EB61AB72E36B23B1314666
:105BFC0004F13400FFF7F1FD00232022CDE9062348
:105C0C00104A00920D4906AA0120FEF7F7FF314613
:105C1C0004F11800FFF715FF44E70F2E01BF2B7A94
:105C2C00696803F0010208250FBFC3F340031A464D
:105C3C0019461D4655E700BF73700B0034700B00FE
:105C4C0099700B00B6700B0013B50B460246D0E9E9
:105C5C0000016C4684E8030093E8030082E803002B
:105C6C0094E8030083E8030002B010BD38B5054684
:105C7C000C46FFF7E9FFAB68A268AA60A360EB686B
:105C8C00E268EA60E36038BD70B504468CB00E463D
:105C9C0001921D46FFF760FB2671019904F13C004F
:105CAC00FFF731F904F14C06CDB1109B029502A916
:105CBC0004A80393FFF7D4FC002308A904A80A93B3
:105CCC00FFF7D4FF314608A8FFF7D0FF08A8FFF76D
:105CDC00C9F904A8FFF7C6F920460CB070BD0695AB
:105CEC00EAE700002DE9F04F87B01D46DDE91043CF
:105CFC0080468B46924612990393002268200291AB
:105D0C000492FEF7C0F9061E06F10C0918D0012208
:105D1C003746C6E901220299144A47F8202B039B07
:105D2C0000915A4651464846FFF7AEFF0FCD0FC7BC
:105D3C002B683B600FCC06F134050FC523682B6034
:105D4C0004A94046CDE90496FFF736FD05A8FFF7F8
:105D5C00C8FCD8F8001031B9054A0A2007B0BDE8D4
:105D6C00F04FFEF743BF07B0BDE8F08F30710B006A
:105D7C0059490B008842F8B504460D46164614D90D
:105D8C00904213D2A2F10806751AA1F108072C440F
:105D9C00B74218D01CB131462046FFF78EFC301D9F
:105DAC00FFF79FFC083E083CF2E70CD0B5420AD046
:105DBC001CB129462046FFF780FC281DFFF791FCFB
:105DCC0008350834F2E7F8BD70B50E1E054611DD36
:105DDC00F000FEF7A7FF044658B1D5E9001201EB1D
:105DEC00C202FFF7C7FF2868FEF7A4FF2C60AE6065
:105DFC00012070BD0024F6E773B50446456868467B
:105E0C00FFF75BFCD4E90113994210DA236862684E
:105E1C0003EBC50503EBC202294605F10800FFF7A9
:105E2C00A9FF8DB9636801336360012606E0013177
:105E3C002046FFF7C9FF06460028E7D101A8FFF767
:105E4C0050FC304602B070BD69462846FFF735FC61
:105E5C00E8E78842F8B504460D46164614D9904238
:105E6C0013D2A2F10806751AA1F108072C44B74207
:105E7C0018D01CB131462046FFF711FC301DFFF73E
:105E8C0030FC083E083CF2E70CD0B5420AD01CB1FD
:105E9C0029462046FFF703FC281DFFF722FC083596
:105EAC000834F2E7F8BD70B50E1E054611DDF000A2
:105EBC00FEF738FF044658B1D5E9001201EBC202D7
:105ECC00FFF7C7FF2868FEF735FF2C60AE60012096
:105EDC0070BD0024F6E773B5044645686846FFF7C5
:105EEC00DEFBD4E90113994210DA2368626803EBF4
:105EFC00C50503EBC202294605F10800FFF7A9FF0F
:105F0C008DB9636801336360012606E001312046D8
:105F1C00FFF7C9FF06460028E7D101A8FFF7E1FB10
:105F2C00304602B070BD69462846FFF7B8FBE8E77B
:105F3C002DE9F04F1746A1B080460AA80E46FFF790
:105F4C00CFF83C68237953B939464046FFF7A7FB95
:105F5C000AA8FFF7D3F8404621B0BDE8F08F3368AC
:105F6C00D3E9035305EBC303039304F1280A04F1AB
:105F7C00140B039B9D4221D0D5F80090584609F193
:105F8C001401FFF75EF9B8B109F128015046FFF78B
:105F9C0058F988B12368D9F80020534033F47F4373
:105FAC000AD12022CDE915235E4A009215AA5E493A
:105FBC003220FEF723FEC7E70835DAE75046FFF735
:105FCC0011F960B95949012215A815ADFFF7E2F88E
:105FDC000FCDD446ACE80F002B68CCF800303368FA
:105FEC00D3E9005305EBC30B5D45A94651466ED072
:105FFC0055F8080BFFF725F90028F5D004F1140A21
:10600C005046FFF7EFF888B9494B48491A880132D6
:10601C0092B21A8015A8012315ADFFF7DAF80FCD4F
:10602C00D446ACE80F002B68CCF80030414B1593EC
:10603C002822002116A800F08BFE514604A8FFF779
:10604C00E3F804AB18AA0DF1200C18685968154632
:10605C0003C5083363452A46F7D1186828602379AD
:10606C008DF85830D9F800309B8AADF87430E36B5A
:10607C001793314B0022A11D15A8CDE91E34FEF754
:10608C00B9FC00287FF460AF0123237034683946D3
:10609C000C340DA8FFF703FB20460DA9FFF71BFFDF
:1060AC0004460EA8FFF71DFB002C7FF44DAF2023F8
:1060BC00CDE90D34214B00930DAA234677E73946E1
:1060CC004046FFF7ECFA0CA8FFF70BFB40E70BA8D8
:1060DC00FFF774F9514615A8FFF796F80B9A0023B1
:1060EC00143215A90120FEF77BFC0028E7D1356896
:1060FC000BA90DA8FFF7E1FA28460DA9FFF77CFEC6
:10610C0005460EA8FFF7EDFA002DD8D0326853687B
:10611C00126803F10053013B0CA802EBC309FFF713
:10612C00E0FA6BE7D5700B0034700B009A710B0022
:10613C00C8E6032003002C0055550B0000710B0022
:10614C00024800230360FEF769BC00BFCCE60320C5
:10615C00F8B506460D468F180024BD420CD03368A6
:10616C0015F8011B9B6830469847031E01DB1C4445
:10617C00F3E7002C08BF1C462046F8BD13B50446B7
:10618C00084659B1019100F023FE23680199DB68A0
:10619C000246204602B0BDE81040184702B010BDC0
:1061AC0003689B68184738B50D210546FFF7F8FFC3
:1061BC000A2104462846FFF7F3FF204438BD30B5CA
:1061CC008BB00023012A8DF8243098BF0A2209AC29
:1061DC000D46B1FBF2F101FB125303F0FF03092B47
:1061EC0094BF30333733DBB2AA4204F8013DEFD908
:1061FC002146FFF7C3FF0BB030BD2DE9F04186B04F
:10620C0000AF05460E46381D142114463B60FEF7C0
:10621C00A1FD13280ED8391D2846FFF7AFFF044601
:10622C001EB12846FFF7BFFF044420461837BD4671
:10623C00BDE8F08100F1080323F00703E846ADEB5D
:10624C00030D2246411C3B686846FEF783FD6946F8
:10625C002846FFF793FF0446C546E1E70023406854
:10626C001A461946FEF70EBD014B024A1A607047DA
:10627C00D4E60320BA710B00024B1A68024B1A6069
:10628C00704700BF80E50320D8E603208A4210B592
:10629C0007D0441A0298C01A4443501A94FBF0F0E9
:1062AC00184410BD014B00229A607047DCE60320B5
:1062BC00014B1860704700BF84E5032008B50B4BF9
:1062CC0043B100F06BF903681B699847002801DDA6
:1062DC00AFF30080064B43B100F084FB03681B69ED
:1062EC009847002801DDAFF3008008BD00000000D6
:1062FC000000000008B5FFF7E1FFFEF737FB014B8C
:10630C00186008BD40E703200548064A064908B551
:10631C00121A00F0F5FC054B054A1A6008BD00BFC7
:10632C0000F4032004F40320A0740B0000F40320F9
:10633C001E1C279A07B5002300931A466FF07701AD
:10634C00FEF776FC03B05DF804FB000007B543884C
:10635C000A2B08D0502B0BD1094B1B684BB103B047
:10636C005DF804EB1847FFF7E5FF03B05DF804FB9D
:10637C00002300931A466FF07701FEF759FCF4E7FF
:10638C00F0E6032010B512480021FEF7FBFC114B80
:10639C001A68114B9A42114B0CBF012200221A7041
:1063AC0001D0FFF7B1FFFEF7C9FA044600F0D8FCA4
:1063BC000B4B13B12046AFF3008000210848FEF7C9
:1063CC00A9FCBDE8104007480021FEF727BC00BF20
:1063DC00BD620B0000F403201E1C279AECE6032080
:1063EC000000000059630B00704710B518210446DB
:1063FC00FDF74DFE204610BDF0B5037D062B8DB08C
:10640C000E4600F104074FF0000412D000F108050D
:10641C0015F8011D0A223046FFF7D1FEAF420444A5
:10642C0019D0002CF4D02E213046FFF7B9FE0444CD
:10643C00EEE72F236A4639460A208DF80040FEF716
:10644C0005FB684600F0C4FC33680246DB6869460D
:10645C0030469847044620460DB0F0BD10B5054BAC
:10646C000446112240F8043B002100F071FC204648
:10647C0010BD00BFE4710B000346074A10B543F88A
:10648C00042B01F1100251F8044B43F8044B9142D8
:10649C00F9D10A781A7010BDE4710B0010B59DF893
:1064AC00084044EA032343EA024242EA016104231E
:1064BC004160037510BD000007B5064B0360CB7837
:1064CC0000938B784A780978FFF7E8FF03B05DF802
:1064DC0004FB00BFE4710B004174704770477047B8
:1064EC0008B50021007CFEF761FB40EAE07008BDB6
:1064FC0008B50121007CFEF759FB40EAE07008BDAD
:10650C0008B5007CFEF74AFB20EAE07008BD08B530
:10651C00007CFEF73BFB20EAE07008BD13B5044697
:10652C00007C0191FEF73AFB0028019901DC607CAC
:10653C0020B1207CFEF742FB20EAE07002B010BDD7
:10654C00007CFEF743BB10B514210446FDF79FFDFC
:10655C00204610BD10B54FF47A730446084600214E
:10656C00C4E90113044B23600123207463741146A6
:10657C00FEF7FCFA204610BDF8710B00007C0022DF
:10658C00FEF7FCBA007CFEF729BB10B514220446BA
:10659C00002100F0DDFB204610BD000010B50F4CB3
:1065AC0088B003A8FFF7F1FF2178BFF35B8F11F0E0
:1065BC0001010FD120460191FDF76BFD019948B106
:1065CC0003AA0748FFF7C6FF2046FDF767FD0548FD
:1065DC0000F080FB024808B010BD00BFF4E60320B9
:1065EC00F8E60320E9640B0070474174704708B566
:1065FC00007CFEF763FA20EAE07008BD08B5007C69
:10660C00FEF734FA20EAE07008BD08B5007CFEF70E
:10661C003DFA40EAE07008BD08B5007CFEF72EFAA2
:10662C0040EAE07008BD007CFEF738BA37B5457C0F
:10663C0004462DB1207C03B0BDE83040FEF70EBA05
:10664C00007C0191FEF73AFA00280199F2DC284609
:10665C0003B030BD10B514210446FDF718FD2046DB
:10666C0010BD000010B54FF47A730446084611466D
:10667C000022C4E90123044B2360012320746374BA
:10668C00FEF724FA204610BD28720B007047F8B5AF
:10669C00064615460C468F18BC4206D0336814F8D3
:1066AC00011B9B6830469847F6E72846F8BD007CEE
:1066BC000022FEF713BA007C0021FEF717BA007C0B
:1066CC000021FEF71BBA007C0021FEF71FBA007CEC
:1066DC000021FEF723BA10B514210446FDF7D7FCB0
:1066EC00204610BD10B54FF47A73044608460021BD
:1066FC00C4E90113034B236020741146FEF71EFA04
:10670C00204610BD58720B00002240681146FEF75F
:10671C00B1BA002240681146FEF7CCBA002240689C
:10672C001146FEF7D7BA40680022FEF7CBBA406894
:10673C00002281F00101FEF7B5BA002340681A4629
:10674C001946FEF7A7BA002240681146FEF782BA36
:10675C00406800220221FEF785BA002340681A46E1
:10676C00FEF770BA024B04225A60024A1A60704754
:10677C000CE7032080720B00002340681A46FEF7DA
:10678C0061BA406800220221FEF76CBA0022406810
:10679C001146FEF75FBA002240681146FEF76ABA4E
:1067AC00002340681A461946FEF76CBA002340686D
:1067BC001A461946FEF76EBA40680021FEF792BAE7
:1067CC0040680021FEF796BA4068002281F0010172
:1067DC00FEF768BA40680022FEF774BA00224068DF
:1067EC001146FEF777BA002240681146FEF762BAEE
:1067FC002DE9F04395B014460D460746FFF72EFEE3
:10680C0000211C220DA8009100F0A2FA40230C9349
:10681C0020466B460CAA0021FEF770F804460028AF
:10682C004BD1024601216868FEF724FA022180460A
:10683C0022466868FEF71EFA009E81462146002E0D
:10684C003BD0002939D17368022B03D00A2B11D00D
:10685C00F669F4E7B8F1000FFAD0716906A80431B3
:10686C0007ADFFF729FE0FCD3C1D0FC42B6823701D
:10687C004146EDE7B9F1000FEAD07469102201A886
:10688C0000F066FA06238DF8143001AD04F108030C
:10689C001834186859682A4603C20833A3421546AF
:1068AC00F7D101A906A807ADFFF7E6FD0FCD3C1DFA
:1068BC000FC42B6823704946CAE70098FEF716F8F8
:1068CC00384615B0BDE8F083024B034A1A6000222B
:1068DC005A60704714E70320BC720B00232813B5D1
:1068EC0002D9002002B010BDA0F10B03022B1AD864
:1068FC00174C2178BFF35B8F11F001010BD12046AF
:10690C000191FDF7C6FB019928B11248FEF780FAF8
:10691C002046FDF7C3FB0F4B1878FEF71FF9002834
:10692C00DFD10120DEE7012809D800F097F800211B
:10693C00007CFEF7FBF880F00100C0B2D2E709380A
:10694C000128EED800F04EF8007CFEF7AFF8F2E725
:10695C001CE7032020E70320232838B504460D4606
:10696C000AD8FF2908D0FFF7B9FF28B129462046DD
:10697C00BDE83840FDF7CABF38BD38B504460D46F2
:10698C00FDF7CCFFFF2810D0062804D84D2323FA9E
:10699C0000F0C30709D42046FFF7A0FF28B1294611
:1069AC002046BDE83840FDF7C1BF38BD7047000038
:1069BC0038B5044614252A46002100F0C9F9258073
:1069CC004025074925812846258200F06BF80449AB
:1069DC006060284600F066F8E060204638BD00BFD5
:1069EC00F0720B0030B50E4D2978BFF35B8F11F0B0
:1069FC00010487B011D12846FDF74BFB68B101A803
:106A0C00FFF7D6FF01AA21460648FFF72BFE2846C2
:106A1C00FDF744FB044800F05DF9024807B030BDB7
:106A2C0028E703202CE70320B9690B00704700000E
:106A3C0038B520251423044603608560056106499A
:106A4C00284600F02FF804496060284600F02AF828
:106A5C00E060204638BD00BFF0720B0030B50E4D23
:106A6C002978BFF35B8F11F0010487B011D1284650
:106A7C00FDF70FFB68B101A8FFF7DAFF01AA214669
:106A8C000648FFF72FFE2846FDF708FB044800F0E8
:106A9C0021F9024807B030BD44E7032048E7032042
:106AAC00396A0B00FDF7F1BA08B5FEF75BF9000087
:106ABC00014900F0F9B800BF0C730B007FB500243E
:106ACC001023CDE90234036815469E6912686B46A3
:106ADC00CDE90044B0479DF8043003F00603062BC3
:106AEC0003BF009B2B600120204604B070BD0098B2
:106AFC00904214BF012006207047000010B5034BD4
:106B0C000360044600F0CDF8204610BD4C730B001A
:106B1C0010B50446FFF7F2FF20460821FDF7B7FA3F
:106B2C00204610BD2DE9F0411F46DDE90834DDF8A3
:106B3C00188098450646154607D1079900F0B4F819
:106B4C0018B165710020BDE8F0813946304600F07F
:106B5C00ABF80028F6D00123C4F800802571A3718E
:106B6C00F0E738B515461C4600F09EF820B1082316
:106B7C00E36006232560237138BD73B505460C46CA
:106B8C0001921E4600F090F850B9032E08D82368E5
:106B9C00019A5B692946204602B0BDE8704018474F
:106BAC0002B070BD10B5034B03600446FFF7A6FF9F
:106BBC00204610BDAC730B0010B50446FFF7F2FF76
:106BCC0020460C21FDF763FA204610BDF7B5089F4F
:106BDC00974205460E4614460AD0A86802680897E4
:106BEC00156A31462246AC4603B0BDE8F04060471A
:106BFC001946019300F058F8019B0028EDD00620AF
:106C0C0003B0F0BD2DE9F14F0D461946DDE90A4BF5
:106C1C00DDE90CA681461746984600F045F890B180
:106C2C00002D3460377109DB61198A450CBF0621D0
:106C3C000121B171002001B0BDE8F08F0235F9D10E
:106C4C000123B371F6E7544506D15946484600F086
:106C5C002BF808B17771EDE7D9F808000368CDE996
:106C6C000CA6CDE90A4BDC693A4643462946A446B4
:106C7C0001B0BDE8F04F60472DE9F04107460C46E6
:106C8C0015461E46FFF76DFF48B9B86803689F6943
:106C9C002A4633462146BC46BDE8F0416047BDE874
:106CAC00F081704700207047814208B50ED04068D3
:106CBC0003782A2B0CD049680B782A2B08BF01319A
:106CCC0000F07CF8B0FA80F0400908BD0120FCE728
:106CDC000020FAE7002301461A46184600F08CB84B
:106CEC0010B501390244904201D1002005E003782F
:106CFC0011F8014FA34201D0181B10BD0130F2E76F
:106D0C000A44914200F1FF3300D1704710B511F8DD
:106D1C00014B03F8014F9142F9D110BD884210B5D7
:106D2C0001EB020402D98442234607D8431EA14238
:106D3C0008D011F8012B03F8012FF8E702440146A3
:106D4C008A4200D110BD13F8014D02F8014DF7E74E
:106D5C0002440346934200D1704703F8011BF9E744
:106D6C0038B5104B1D68AB6B0446B3B91820FDF752
:106D7C00D9FF0246A86320B90B4B0C484221FDF702
:106D8C00F9FF0B490B4BC0E900130B4B83600B2332
:106D9C00838100210120C2E90401AB6B00221C613C
:106DAC005A6138BD84E50320E5730B00FC730B00BE
:106DBC000E33CDAB34126DE6ECDE050010F8012B72
:106DCC0011F8013B012A28BF9A42F7D0D01A70471C
:106DDC00034613F8012B002AFBD1181A013870470F
:106DEC0010B5024601448A42134603D01C78013286
:106DFC00002CF8D1181A10BD2DE9F843DFF8B88033
:106E0C000646D8F800001F460D46914600F056F88D
:106E1C00254B1C6834B9254C1C60254B13B11B68E1
:106E2C00C4F8883063681F2B07DDD8F8000000F029
:106E3C0047F84FF0FF30BDE8F8834EB3D4F8880024
:106E4C0088B91C4B23B9D8F8000000F038F8F0E7EB
:106E5C004FF48470FDF766FF0028F4D00023C0E9DE
:106E6C004033C4F88800636840F8239001229A40AC
:106E7C0000EB8301D0F800311343C0F80031022E2F
:106E8C00C1F8807002BFD0F804311343C0F804314C
:106E9C006368D8F800005A1C0233626044F823502F
:106EAC0000F00EF80020C6E7E8E703205CE70320BB
:106EBC0000000000314D0B00E8E5032070477047DF
:106ECC00704700001D400B0059400B0081400B0027
:106EDC0085400B00000000005265636965766564AF
:106EEC0020646174612066726F6D3B2025303258CE
:106EFC003A253032583A253032583A253032583A01
:106F0C00253032583A25303258200A0042797465BF
:106F1C00733A0025303258000A5570204172726F56
:106F2C0077000A446F776E204172726F77000A52B5
:106F3C0069676874204172726F77000A4C656674D9
:106F4C00204172726F77007374657073697A652073
:106F5C003D202569000A627574746F6E33000A62F5
:106F6C007574746F6E34004D6573736167653A2088
:106F7C002573200A0036453430303030312D4235FF
:106F8C0041332D463339332D453041392D4535307C
:106F9C004532344443434139450036453430303072
:106FAC0030322D423541332D463339332D45304166
:106FBC00392D45353045323444434341394500364B
:106FCC00453430303030332D423541332D46333952
:106FDC00332D453041392D4535304532344443430A
:106FEC004139450074780072780000000000000000
:106FFC0000000000FF4D0B00F54D0B00EB4D0B009E
:10700C00E14D0B00D54D0B00C94D0B00C5670B00B6
:10701C00CD670B00BD4D0B00B54D0B00AB4D0B0000
:10702C00A14D0B00FD670B00776972696E672E62CC
:10703C006C6500537461727420646973636F766558
:10704C0072696E672073657276696365732E005082
:10705C0065657220646576696365206973206D6966
:10706C007373696E6721004661696C656420746F87
:10707C0020617070656E6420706565722043656E6A
:10708C007472616C206465766963652E00436F6E63
:10709C006E65637465642062792043656E747261F9
:1070AC006C206465766963652E00446973636F6E4A
:1070BC006E65637465642062792072656D6F7465AA
:1070CC00206465766963652E004475706C69636134
:1070DC00746564206368617261637465726973744A
:1070EC0069632063616E6E6F7420626520616464F5
:1070FC0065642E004661696C656420746F20617054
:10710C0070656E64206C6F63616C20636861726182
:10711C006374657269737469632E0000000000006B
:10712C00000000003D4F0B00A14F0B0083500B00E3
:10713C00CB4F0B00414F0B00000000000000000083
:10714C00394F0B00AF4F0B003B4F0B00D14F0B00D7
:10715C00614F0B000000000000000000374F0B00D7
:10716C00BD4F0B0055570B00D74F0B00814F0B0039
:10717C000000000000000000000000000000FB34D4
:10718C009B5F8000008000100000000000007BE38B
:10719C0027747BF815ACDD49A913000072F5FB349C
:1071AC009B5F8000008000100000000000006170F8
:1071BC00700025592D256D2D25645425483A254DF3
:1071CC003A2553257A0061736374696D650000007C
:1071DC00000000000000000005640B00F5630B00CC
:1071EC00F7630B000000000000000000EB640B00D4
:1071FC0053650B0029650B005D610B001B650B00D3
:10720C00ED640B00FD640B004D650B000D650B0070
:10721C00E5640B000000000000000000F5650B00A9
:10722C0061660B0039660B005D610B0009660B0093
:10723C0025660B0017660B0033660B00F7650B0019
:10724C00FB650B00000000000000000099660B00BD
:10725C00E3660B00BB660B009B660B00C3660B0062
:10726C00CB660B00D3660B00DB660B000000000046
:10727C000000000067670B005D670B0053670B0095
:10728C0015670B0069620B0047670B00C5670B00A5
:10729C00CD670B003B670B0033670B0029670B00B6
:1072AC001F670B00FD670B000000000000000000D2
:1072BC0085670B008F670B0099670B00A3670B00AA
:1072CC00AD670B00B9670B00C5670B00CD670B00F2
:1072DC00D5670B00E1670B00E9670B00F3670B0048
:1072EC00FD670B0000537431395F53705F6D616B38
:1072FC00655F7368617265645F74616700000000AC
:10730C004C730B00F1720B00AC730B0020730B0071
:10731C00D0730B004E31305F5F63787861626976B1
:10732C003131375F5F636C6173735F747970655F64
:10733C00696E666F450000000000000014730B00BE
:10734C00096B0B001D6B0B00B16C0B00B16C0B00CF
:10735C00876B0B00C96A0B006F6B0B00316B0B005A
:10736C00FB6A0B00AC730B007C730B0014730B00EB
:10737C004E31305F5F637878616269763132305FAD
:10738C005F73695F636C6173735F747970655F6958
:10739C006E666F45000000000000000070730B006B
:1073AC00B16B0B00C56B0B00B16C0B00B16C0B001F
:1073BC00876B0B00C96A0B00856C0B00116C0B0002
:1073CC00D96B0B004C730B00D8730B0053743974CE
:1073DC007970655F696E666F005245454E54206D3D
:1073EC00616C6C6F632073756363656564656400C1
:1073FC002F6D6E742F776F726B73706163652F775F
:10740C006F726B73706163652F4743432D31302D61
:10741C00706970656C696E652F6A656E6B696E73E9
:10742C002D4743432D31302D706970656C696E6545
:10743C002D34385F32303230313132345F313630C6
:10744C00363138303634312F7372632F6E65776C6A
:10745C0069622F6E65776C69622F6C6962632F733A
:10746C0074646C69622F72616E642E63000000009C
:10747C0029450B00094E0B00314E0B004D610B00E2
:10748C0075620B0085620B00B1620B0071670B001B
:04749C00D5680B00A4
:0474A00000000000E8
:1074A400D2710B0088E503200000000000000000FA
:1074B40000000000000000000000000000000000C8
:1074C40000000000000000000000000000000000B8
:1074D40000000000000000000000000000000000A8
:1074E4000000000000000000000000000000000098
:1074F4000000000000000000000000000000000088
:0C7504000000000000000000ECE7032085
:10751000FFFFFFFF00000102030405060708090A38
:107520000B0C0D0E0F101112131415161718191A33
:087530001B1C1D1E1F2028007A
:04753800785634123B
:04000003B000401CED
:00000001FF
