:02000002B0004C
:1040000000400B00D07F0B00000006000C000502F2
:084010000401810C0000000016
:04401800A4760B007F
:10401C0009480A49884208B505D0094A824202D0AB
:10402C00121A03F0AFF90748074A0021121A03F0DD
:10403C00D1F9014808BD00BF4CFA0220347F0B00B7
:10404C00C0FA0220C0FA0220EDE7032070B5074E3B
:10405C00074C02F0D1FCA41BA4080025AC4200D1F3
:10406C0070BD56F8043B98470135F7E7087F0B0005
:10407C002C7F0B0000F024B808B500F009FCBDE85B
:10408C00084002F071BC01F0EBB801F0E9B801F0A6
:10409C00EFB80078B0FA80F0400970470123037044
:1040AC0070470EB403B503AB002153F8042B0193F6
:1040BC0002F0ABFB02B05DF804EB03B070470000FC
:1040CC0070B58EB002F0A0FD4FF4165102F090FDC9
:1040DC0040F6B83002F01CFC02F096FDB549FFF733
:1040EC00E0FF02F0BDFF4FF4E13102F009FE02F0F7
:1040FC00B7FFB149FFF7D5FFC82002F009FC02F069
:10410C00AFFF03681B699847002819DD02F07CFD9E
:10411C00AA49AB4CFFF7C5FF02F0A2FF0A220146E9
:10412C0009A802F0B9FB09A9204601F0AFF909A8CA
:10413C0001F030F902F068FD2268A249FFF7B1FFE7
:10414C0002F08EFFA04BA1491A68FFF7AAFFC82006
:10415C0002F0DEFB02F084FF03681B69984700281D
:10416C0019DD02F051FD9A49954CFFF79AFF02F0C8
:10417C0077FF0A22014609A802F08EFB09A9204606
:10418C0001F084F909A801F005F902F03DFD22685F
:10419C009049FFF786FF02F063FF8F4B8F491A6837
:1041AC00FFF77FFFC82002F0B3FB02F059FF036852
:1041BC001B699847002819DD02F026FD8849804CC0
:1041CC00FFF76FFF02F04CFF0A22014609A802F02C
:1041DC0063FB09A9204601F059F909A801F0DAF8A6
:1041EC0002F012FD22687F49FFF75BFF02F038FFF7
:1041FC007D49FFF756FFC82002F08AFB02F030FF22
:10420C0003681B699847002819DD02F0FDFC6B4917
:10421C006B4CFFF746FF02F023FF0A22014609A868
:10422C0002F03AFB09A9204601F030F909A801F087
:10423C00B1F802F0E9FC22686C49FFF732FF02F09A
:10424C000FFF6B49FFF72DFFC82002F061FB02F056
:10425C0007FF03681B699847002819DD02F0D4FC9E
:10426C005649574CFFF71DFF02F0FAFE0A22014691
:10427C0009A802F011FB09A9204601F007F909A8C9
:10428C0001F088F802F0C0FC22685A49FFF709FFD8
:10429C0002F0E6FE5849FFF704FF4FF4FA7002F003
:1042AC0037FB02F0DDFE03681B69984700281EDD12
:1042BC0002F0AAFC4149FFF7F4FE02F0D1FE0A22FB
:1042CC00014609A802F0E8FA09A93D4801F0DEF818
:1042DC0009A801F05FF8494939482822002301F068
:1042EC0013F902F091FC454A4549FFF7DAFE01F05B
:1042FC0017FC01F05FFC01F013FC424A424C0146F2
:10430C0009A802F01DF909A801F0FBFC01F008FC5A
:10431C003E4A014609A802F013F909A801F0F1FC84
:10432C000FCC04AD0FC504AD0FCD266809AC0FC47E
:10433C0009A8266001F06EFA044609A88CBB01F0AE
:10434C0085FA0094ADF80E0002230DF10E02032144
:10435C002F4801F0FDFD01F0E3FB00222C4901F098
:10436C0073FC2C480A2100F055FC2B480A2100F064
:10437C0051FC0021132002F02DFE0021032002F03D
:10438C0029FE0021042002F025FE0121122002F05A
:10439C0021FE224B00221A70214B01221A700EB002
:1043AC0070BD01F055FA002300930246102307213B
:1043BC00CEE700BFB8760B00CD760B00D2760B00A3
:1043CC00B0FB0220E2760B004CFA0220ED760B00DB
:1043DC00FD760B001A770B0050FA02202D770B009C
:1043EC003F770B005E770B0071770B007F770B002C
:1043FC0096770B00A6770B00BD770B0010FB022005
:10440C00C8770B00A4E60320D0FA0220C0FB0220E0
:10441C0040FB022078E603204CE60320C1FA022080
:10442C00C0FA0220F0B51E4D1E4E85B000240A279E
:10443C000323322200210097204602F05DFA014648
:10444C000390284600F0E6FB0399304600F0E2FBAF
:10445C00E3071DD42146284600F0AEFC2146304629
:10446C00013400F0A9FC322CE2D10D480A2100F0F5
:10447C00D1FB0B480A2100F0CDFB0948192100F0B3
:10448C009BFC0848192105B0BDE8F04000F094BC35
:10449C0061422846039100F08FFC0399DFE700BFCF
:1044AC004CE6032078E6032038B50378212B04462C
:1044BC0010D14378422B11D18378352B24D1C3787A
:1044CC00312B21D1384B3948196800F075FC237811
:1044DC00212B00D038BD6378422B15D06378422B4A
:1044EC00F8D1A378312B42D1E278312A03D12E496D
:1044FC000A6801320A60332B4CD1E378312BE9D1B5
:10450C002B4B01221A70E5E7A378362B0ED1E378FA
:10451C00312B0BD1244B25481968494200F04CFC37
:10452C002378212BD6D16378422BD7D1A378382B83
:10453C000ED1E378312B0BD11B4B1E481968494225
:10454C0000F03AFC2378212BC4D16378422BC5D1DF
:10455C00A378372BC2D1E378312BBFD1124B15483E
:10456C00196800F029FC2378212BB7D0B2E7322B45
:10457C00C1D1E278312A0DD10B4802680121013AF0
:10458C00002ACCBF15460D460B4A056011702278E7
:10459C00212A9FD1342B9DD1E378312B9AD1BDE8C0
:1045AC003840FFF73FBF00BF0CFB022078E603202A
:1045BC00C1FA02204CE60320C2FA02202DE9F74F83
:1045CC00604E614DDFF8AC816048DFF8AC91DFF8EC
:1045DC0098A100274FF0FF331921C8F8003037603D
:1045EC002F6000F0E9FB5A48192100F0E5FB01218E
:1045FC00122002F000FD3946122002F0FCFC1923B7
:10460C0033602B6002F02CFD5249FFF74AFD00F09D
:10461C004BFCC9F80000504800F03EFC02F0F4FAE4
:10462C002B6832684D49FFF73CFDBB4601974C4F58
:10463C0000F03AFC001B642828D9BBF1320F23DCB4
:10464C0000F032FCD9F80010411ACAF800100446E8
:10465C00D8F800103D4800F0AFFB3068D8F80010D7
:10466C00404BDAF8002008443968306001314FF0D3
:10467C000C0C39600CFB01F103EB010C5A5029684E
:10468C00CCF80400CCF808100BF1010BBBF1320F85
:10469C0027D100F009FCD9F800304FF0FF31C31AD4
:1046AC0004462B48CAF8003000F086FB3B682D4AC4
:1046BC00296801330C203B604343DAF80000D050EA
:1046CC0002EB030E33680139CEE90131D8F8003022
:1046DC0029605B42C8F80030019B013301934FF015
:1046EC00000B019B322BA3D118481F4F6FF0180100
:1046FC0000F062FB1921164800F05EFB3368D9F814
:10470C000000193B33602B68241A19332B603C6072
:10471C0000F0CAFB124A154B12491860136838682E
:10472C00013313600C225343CA18C85033685360CA
:10473C002B68936002F094FC0D49FFF7B2FC03B0B8
:10474C00BDE8F08F38FB02203CFB02204CE6032036
:10475C0078E603201F780B00D5611800FF770B005B
:10476C0044E60320E4FB022048E6032058FB022029
:10477C0031780B005CFB0220E0FB022038B5094CC1
:10478C00094D2168094800F017FB2968084800F01A
:10479C0013FB02F039FA2B6822680649FFF781FCFB
:1047AC0038BD00BFD8FB0220DCFB02204CE6032006
:1047BC0078E6032043780B00F7B502F025FA0F4991
:1047CC000F4C104F104EFFF76CFC00253B68AB42B2
:1047DC0004F10C040FDD02F017FA54F8043C0193B9
:1047EC0054F8083C00932A4654F80C3C3146FFF729
:1047FC0058FC0135EAE703B0F0BD00BF54780B005C
:10480C00E4FB022044E6032060780B00F8B5184A5C
:10481C00184F194D00240C2363433E685B59F61A5C
:10482C0086EAE673A3EBE673934208DA02F0ECF93E
:10483C00124932462346FFF734FC324621460134F6
:10484C0041F288339C42E6D10C2303FB01550C4CFE
:10485C006B680C4E2360AB6833600B4B00221A6004
:10486C0002F0D2F9336822680849FFF71AFCF8BD48
:10487C0071DB6F0050FB0220E4FB02206D780B0013
:10488C00D8FB0220DCFB022044E6032083780B00DB
:10489C002DE9F04389B002F0E3FB03684E4D1B6930
:1048AC009847002800F0838002F0AEF94B49DFF8FE
:1048BC005881DFF858914A4F4A4C4B4EFFF7F1FBA9
:1048CC0002F0CEFB2C22014604A801F0E5FF04A95E
:1048DC00404600F0DBFD04A800F05CFD02F0C0FBDC
:1048EC002C22014604A801F0D7FF04A9484600F089
:1048FC00CDFD04A800F04EFD02F0B2FB2C220146C7
:10490C0004A801F0C9FF04A9384600F0BFFD04A8B3
:10491C0000F040FD02F0A4FB2C22014604A801F09B
:10492C00BBFF04A9204600F0B1FD04A800F032FD45
:10493C0002F096FB0A22014604A801F0ADFF04A97F
:10494C00304600F0A3FD04A800F024FD02F05CF951
:10495C0033680293236801933B68D8F800202349FD
:10496C000093D9F80030FFF79CFB384600F0E4FDCB
:10497C001F4F3860204600F0DFFD1E4C2060304693
:10498C0000F0DAFD1C4B186002F03EF923683A681F
:10499C001A49FFF786FB236823B902F035F9184949
:1049AC00FFF77FFB2368072BC4BF01232B70154C2B
:1049BC0023782BB1FFF702FEFFF7FEFE00232370D6
:1049CC002B782BB1FFF722FFFFF7D8FE00232B70BB
:1049DC0009B0BDE8F08300BFC0FA02209C780B0040
:1049EC0080FB022090FB0220A0FB0220B6780B007B
:1049FC004CFB022050FB022054FB0220D8780B0009
:104A0C00FA780B00C1FA022060FB022070FB022036
:104A1C002DE9F047564B574A9A60002798B0C3E9E6
:104A2C000077022000F090FB07230522CDE900322D
:104A3C004FF40061062308224F48504C504D514E04
:104A4C0000F0C6F80D230B210E22CDE900314E48A3
:104A5C000C234FF4006100F0BBF84C49204600F0E9
:104A6C0077FF4B49284600F073FF4A49304600F067
:104A7C006FFF0FCE0DF1100CA046ACE80F00B8E89C
:104A8C000F00D6F800A0CCF800A009AE0FC60DF1AF
:104A9C00100CBCE80F00D8F80090C6F800900EAED1
:104AAC000FC6DFF824E1C6F800A00DF1240CCEE906
:104ABC000077BCE80F0013AE0FC6C6F8009013AE1B
:104ACC000EAB7046CDE90177334900964FF01002DA
:104ADC0001F010FC0FCD0DF1100CACE80F000FCC59
:104AEC00D5F800E0D8F80080CCF800E009AD0FC58F
:104AFC00C5F8008004AD0FCD0EAC0FC4DFF8CCC0F0
:104B0C00C4F800E009ADCCE900770FCD34460FC4F2
:104B1C00224BC4F8008060464FF00402CDE90063DC
:104B2C001F4902970EAB01F0E5FB1E4801F01BFA82
:104B3C001D491E4800F079FC1B491D4800F075FC0E
:104B4C0019491C4800F071FC17491B4800F06DFC1A
:104B5C0015491A4800F069FC1349194800F065FC26
:104B6C001149184818B0BDE8F04700F05EBC00BF12
:104B7C00C4FA02200000FFFF78E60320D0FA0220DE
:104B8C00E4FA0220F8FA02204CE603200D790B001F
:104B9C0032790B0057790B007C790B00B5440B0074
:104BAC007F790B0040FB022030780B00B0FB022019
:104BBC0060FB022070FB022080FB022090FB022095
:104BCC00A0FB0220C8FB0220A4E60320C0FB0220AD
:104BDC0038B5C0E90523049BC3610446059B0362F9
:104BEC000025056105608562816090B2012102F0AB
:104BFC00F1F9208B012102F0EDF9A08B012102F0DB
:104C0C00E9F9208C012102F0E5F904236562E360E7
:104C1C00204638BD8268034B93FBF2F393FBF1F112
:104C2C00416070470087930338B5C368022B044674
:104C3C000D460DD103290BD8DFE801F00213151B2B
:104C4C000021A08A02F0D7F90121208B02F0D3F9C0
:104C5C00E368042B1FD1032D1DD8DFE805F00C2AC7
:104C6C00303E0121EDE70121A08A02F0C4F90021B8
:104C7C00EBE70021F8E70121A08A02F0BCF9002142
:104C8C00208B02F0B8F90121A08B02F0B4F90021BD
:104C9C00208C02F0B0F9E368052B40F08C80092DD4
:104CAC0000F28980DFE805F01F2937495F616771E1
:104CBC007F850021A08A02F09EF90121E0E7002106
:104CCC00A08A02F098F90121208B02F094F90021BE
:104CDC00A08B02F090F90121DAE70121A08A02F001
:104CEC008AF90021F0E70021A08A02F084F9012161
:104CFC00208B02F080F9012108E0A08A002102F04B
:104D0C007AF90121208B02F076F90021A08B02F0B8
:104D1C0072F900210CE0A08A002102F06CF9208BC2
:104D2C00012102F068F90021A08B02F064F9012145
:104D3C00208C02F060F9012110E00021A08A02F021
:104D4C005AF90121208B02F056F90021A08B02F0B8
:104D5C0052F90121208C02F04EF90021A08CBDE803
:104D6C00384002F048B90121E8E70121A08A02F09D
:104D7C0042F90021E6E7A08A012102F03CF900216A
:104D8C00208B02F038F90121E0E7A08A012102F022
:104D9C0032F9208B002102F02EF90121A08B02F0B8
:104DAC002AF90021D6E70121A08A02F024F900217A
:104DBC009EE70021F8E738BDF8B5002981EAE175D6
:104DCC000446A5EBE17524DD0123236000270A26A8
:104DDC0085B300F069F8A36A6268C31A9342F7D3EB
:104DEC0022682369A062012A16D1A268013393427A
:104DFC0008BF3B462361D4E90331052B05F1FF3590
:104E0C0010D191FBF6F306FB13112046FFF70CFFB4
:104E1C00DEE7DBD00023D8E70BB9A3682361236955
:104E2C00013BE7E74B4203F0030301F0030158BFDA
:104E3C005942EAE7F8BD000008B5024B1B689B68B5
:104E4C00019308BD6802030008B5024B1B68DB68C0
:104E5C00019308BD6802030008B5024B1B689B68F0
:104E6C00019308BD2C02030008B5024B1B68DB68DC
:104E7C00019308BD2C02030008B5024B1B681B698B
:104E8C00019308BD2C02030008B5024B1B685B683C
:104E9C00019308BD1802030008B5024B1B68DB68C0
:104EAC00019308BD1802030008B5024B1B681B696F
:104EBC00019308BD1802030008B5024B1B685B691F
:104ECC00019308BD1802030008B5024B1B689B68D0
:104EDC00019308BD7802030008B5024B1B681B6DDB
:104EEC00019308BD7802030008B5024B1B689B6D4B
:104EFC00019308BD7802030008B5024B1B681B6EBA
:104F0C00019308BD7802030008B5034B1B68D3F866
:104F1C009830019308BD00007802030008B5034BDC
:104F2C001B68D3F8A830019308BD00007802030079
:104F3C0008B5034B1B68D3F8EC30019308BD000097
:104F4C007802030008B5034B1B68D3F8F0300193CB
:104F5C0008BD00007802030008B5024B1B685B6CAF
:104F6C00019308BD4802030008B5024B1B68DB6CBB
:104F7C00019308BD4802030008B5024B1B685B6D2A
:104F8C00019308BD4802030008B5024B1B685B691E
:104F9C00019308BD6402030008B5024B1B68DB6873
:104FAC00019308BD3C02030008B5024B1B681B694A
:104FBC00019308BD3C02030008B5024B1B685B69FA
:104FCC00019308BD3C02030008B5024B1B689B69AA
:104FDC00019308BD3C02030008B5024B1B68DB695A
:104FEC00019308BD3C02030008B5024B1B681B6A09
:104FFC00019308BD3C02030008B5024B1B689B6A79
:10500C00019308BD3C02030008B5024B1B68DB6A28
:10501C00019308BD3C02030008B5024B1B681B6CD6
:10502C00019308BD3C02030008B5024B1B681B6AC8
:10503C00019308BD2802030008B5024B1B685B6A8C
:10504C00019308BD2802030008B5024B1B689B6A3C
:10505C00019308BD2802030008B5024B1B68DB6AEC
:10506C00019308BD2802030008B5024B1B681B6B9B
:10507C00019308BD2802030008B5024B1B685B6B4B
:10508C00019308BD2802030008B5024B1B681B6C7A
:10509C00019308BD2802030008B5024B1B68DB69AD
:1050AC00019308BD3002030008B5024B1B681B6A54
:1050BC00019308BD3002030008B5024B1B681B6846
:1050CC00019308BD4C02030008B5024B1B685B68DA
:1050DC00019308BD4C02030008B5024B1B681B6909
:1050EC00019308BD4C02030008B5024B1B685B69B9
:1050FC00019308BD4C02030008B5024B1B689B6969
:10510C00019308BD4C02030008B5024B1B68DB6918
:10511C00019308BD4C02030008B5024B1B681B6AC7
:10512C00019308BD4C02030008B5024B1B685B6B76
:10513C00019308BD6002030008B5024B1B681B6D90
:10514C00019308BD6002030008B5024B1B685B6845
:10515C00019308BD2002030008B5024B1B685B6974
:10516C00019308BD2002030008B5034B1B68D3F85C
:10517C008830019308BD00002002030008B5034BE2
:10518C001B68D3F89430019308BD00002002030083
:10519C0008B5024B1B685B68019308BD4002030015
:1051AC0008B5024B1B689B68019308BD40020300C5
:1051BC0008B5024B1B68DB68019308BD4002030075
:1051CC0008B5024B1B681B69019308BD4002030024
:1051DC0008B5024B1B685B69019308BD40020300D4
:1051EC0008B5024B1B689B69019308BD4002030084
:1051FC0008B5024B1B68DB69019308BD4002030034
:10520C0008B5024B1B681B6A019308BD40020300E2
:10521C0008B5024B1B681B6B019308BD40020300D1
:10522C0008B5024B1B685B6B019308BD4002030081
:10523C0008B5024B1B681B6C019308BD40020300B0
:10524C0008B5024B1B685B6C019308BD4002030060
:10525C0008B5024B1B68DB6B019308BD44020300CD
:10526C0008B5024B1B681B68019308BD1C020300A8
:10527C0008B5024B1B685B68019308BD1C02030058
:10528C0008B5024B1B689B68019308BD1C02030008
:10529C0008B5024B1B685B6A019308BD1C02030036
:1052AC0008B5024B1B68DB6A019308BD1C020300A6
:1052BC0008B5024B1B68DB6B019308BD1C02030095
:1052CC0008B5024B1B681B6C019308BD1C02030044
:1052DC0008B5024B1B685B6C019308BD1C020300F4
:1052EC00002240681146FFF78BBF00224068114630
:1052FC00FFF796BF40680022FFF78ABF4068002284
:10530C0081F00101FFF774BF002340681A4619466B
:10531C00FFF766BF002340681A461946FFF758BFCF
:10532C00002240681146FFF74BBF0022406811462F
:10533C00FFF736BF406800220221FFF739BF002378
:10534C0040681A46FFF724BF024B03225A60024AF8
:10535C001A607047ACE603208C790B0010B504463C
:10536C0008462170FFF798FE00236360204610BDAD
:10537C00054B02221A60054B054A9A600020C3E9CE
:10538C000000FFF7E1BE00BFC0E60320B4E6032037
:10539C000000FFFF10B504460068FFF769FF2046C8
:1053AC0010BD10B50446006808B1FFF761FF00237B
:1053BC00C4E90133236010BD38B504460D460068BE
:1053CC000131FFF75DFF10B1C4E90005012038BDC4
:1053DC0010B50368044623B143688B4201D3012006
:1053EC0010BD2046FFF7E8FF0028F9D0A368002B7A
:1053FC00F5D122681370F2E737B50D4611460192CC
:10540C000446FFF7E5FF019A28B92046FFF7C9FFCC
:10541C00204603B030BDA2602946206801F0B2FFDF
:10542C002268A3680021D154F2E7002313B5C0E928
:10543C00003304468360037341B10846019102F0C6
:10544C0011F8019902462046FFF7D6FF204602B01C
:10545C0010BD38B5054600680C4668B16A688B68A3
:10546C009A4207D3096801F0F5FFA368AB600023EB
:10547C00A36038BDFFF7FCFE23682B6063686B608C
:10548C00A368AB600023C4E90033F1E7884210B590
:10549C00044601D0FFF7DDFF204610BD13B50446CE
:1054AC0059B10846019101F0DDFF019902462046F1
:1054BC00FFF7A2FF204602B010BDFFF772FFF9E71D
:1054CC0070B505460E4609B9002070BD6AB18468F6
:1054DC0014442146FFF77CFF0028F5D02868AB6800
:1054EC003146184401F0B6FFAC600120EDE707B57A
:1054FC0000238DF80410012201A98DF80530FFF767
:10550C00DFFF03B05DF804FB58B50E462AB121B19C
:10551C008468A34202D300230B7058BDE41A013AED
:10552C000168944228BF144619442246304601F0C3
:10553C00A1FF00233355F0E7006808B101F00EBF5E
:10554C00704770477047704770470000064B994290
:10555C0010B500F10C0405D0084601F0E7FD002859
:10556C0008BF0024204610BD087B0B00064B994257
:10557C0010B500F10C0405D0084601F0D7FD002849
:10558C0008BF0024204610BD087B0B00064B994237
:10559C0010B500F10C0405D0084601F0C7FD002839
:1055AC0008BF0024204610BD087B0B0010B56821F5
:1055BC000446FEF76CFD204610BD10B528210446AC
:1055CC00FEF765FD204610BD10B530210446FEF7F0
:1055DC005EFD204610BD6821FEF759BD2821FEF75F
:1055EC0056BD3021FEF753BDF0B50025EC1C8C42A6
:1055FC000DD86E1C445D875D974205D12644B1429F
:10560C0005D31D60601CF0BD01342544EEE700207D
:10561C00F9E70000024A00210A20FFF785BD00BF10
:10562C00A54E0B0030B40D4611461A4603680968A6
:10563C002868D3E90043A44630BC6047012A38B53A
:10564C00044602D10B68236003E0022A03D0032A2C
:10565C000DD0002038BD08200D68FEF714FD034660
:10566C000028F0D095E8030083E80300EBE700681E
:10567C000028EED00821FEF70AFDEAE710B5836892
:10568C00044613B1032201469847204610BD10B5BD
:10569C0004465830FFF7F2FF04F14800BDE8104013
:1056AC00FFF778BE10B54368013B0446436063B90D
:1056BC0003689B689847A368013BA3602BB92368D8
:1056CC002046DB68BDE81040184710BDA0F1300340
:1056DC00DAB2092A01D818467047A0F16103052BEC
:1056EC0001D857387047A0F14103052B94BF3738C8
:1056FC004FF0FF307047000010B500230370044BCF
:10570C0004461868FFF730FC01232370204610BDB7
:10571C00CCE6032010B5037804461BB1024B186885
:10572C00FFF72AFC204610BDCCE6032082B00346CE
:10573C00086849686A4603C26A4603CA1860184674
:10574C00596002B0704708B582798B799A4206D1BC
:10575C00062201F007FEB0FA80F0400908BD0020D7
:10576C00FCE74FF0FF33036083800020704708B5DF
:10577C000246002101604160FFF7F3FF9171104672
:10578C0008BD000010B501230361054B024603F16F
:10579C00100153F8044B42F8044B8B42F9D110BD65
:1057AC00167B0B0010B50B460446B1B1012A01F172
:1057BC0010020AD1014653F8040B41F8040B934232
:1057CC00F9D101232361204610BD411E12F8010DB1
:1057DC0001F8010F9A42F9D1F3E7102201F0FAFD1A
:1057EC00F1E738B5044615461A46FFF7DBFFA581ED
:1057FC00204638BD08B5026922B98089003818BF27
:10580C00012008BD0249102201F0ACFDF6E700BFF3
:10581C00367B0B000069704738B50C46142200210A
:10582C00054601F0D7FD23691BB9A3892B802846B7
:10583C0038BD01232B7421462B4604F1100251F87C
:10584C00040B43F8040B9142F9D1F0E780897047BF
:10585C00704708B502690B699A4206D1102201F013
:10586C0081FDB0FA80F0400908BD0020FCE7000083
:10587C0001232DE9F3410361344B0C4606460246E5
:10588C0003F1100153F8040B42F8040B8B42F9D1CD
:10589C0044B32421204601F000FE04284FF00005FB
:1058AC0023D1ADF8045001AFA51C063415F8020C39
:1058BC00FFF70CFFB0F1000812DB15F8010CFFF735
:1058CC0005FF00280CDB023540EA0810A54207F85A
:1058DC00010BEBD19DF8053033739DF804307373D5
:1058EC000023336102B0BDE8F0814FF01008242191
:1058FC00204601F0D2FDA84207D84246002130468E
:10590C0002B0BDE8F04101F065BDB8F1000FE9D07F
:10591C00605DFFF7DBFE030615D4000108F1FF38CC
:10592C00C7B206F808702421204601F0B6FD0135F7
:10593C00A84208D9605DFFF7C9FE40B20028A4BF99
:10594C00384306F808000135D1E700BF167B0B0081
:10595C0013B504460191FFF715FF20460199FFF797
:10596C0087FF204602B010BD38B54FF6FF730025F7
:10597C00044643800E22294605700571063001F05D
:10598C0029FD04F11400FFF7FDFE04F12800FFF7D8
:10599C00F9FE044904F13C00FFF747FD656520461C
:1059AC0038BD00BF30780B0010B5D0E9063203EBE0
:1059BC00C2029342184606D0046824888C4203F134
:1059CC000803F6D110BD0020FCE700002DE9F041E2
:1059DC0000260660074628200C46FEF754FB051EE1
:1059EC0005F10C080FD00123C5E90133084B2B60DE
:1059FC004046FFF7C7FE0FCC2E6285F82460464662
:105A0C000FC623683360C7E900853846BDE8F081CE
:105A1C00D87A0B0070B50025056006463020FEF7DD
:105A2C0032FB044688B10123C0E90133094B036002
:105A3C004FF6FF7383810E30FFF799FEC4E90655CC
:105A4C00C4E90855C4E90A55A57574600C34346072
:105A5C00304670BDF47A0B0037B50D46044601A8EC
:105A6C00FFF74AFE2A68D2F802302360D2F80630DB
:105A7C00636001A8FFF74EFE204603B030BD30B581
:105A8C00054687B00C4601A8FFF736FE2A68236846
:105A9C0012881B889A420DD1294602A8FFF7DCFF19
:105AAC00214604A8FFF7D8FF04A902A8FFF74BFE74
:105ABC00044600B9002401A8FFF72CFE204607B0CD
:105ACC0030BD000010B504465420FEF7DCFA014648
:105ADC0060B10023C0E90033C0E90233C0E90433EC
:105AEC00C0E906330362C362C363C364216019B99E
:105AFC00094A0A20FFF718FB0020FFF7E5F920B14F
:105B0C00054A00210A20FFF70FFB216803480022F9
:105B1C00FFF718FA204610BDA54E0B00A5600B0030
:105B2C0010B50A4C2378BFF35B8FDB070CD42046EF
:105B3C00FEF7AFFA40B10648FFF7C4FF2046FEF768
:105B4C00ADFA044801F004FC014810BDC4E6032082
:105B5C00D0E60320795D0B0030B50368093B012BBF
:105B6C008DB004460D4611D8FFF7DAFFA188006806
:105B7C00FFF71AFF034658B92022CDE904200B4A3F
:105B8C0000920B4904AA3220FFF7D6FA0DB030BDB3
:105B9C006A6D002AFAD0D4E9032105F14C00CDE955
:105BAC000312AC6D04AA03A9A047EFE7E7790B0039
:105BBC00C0790B0008B50020FFF786F900EAE07009
:105BCC0008BD19B90A460846FFF786B9D1E90001A4
:105BDC000022F9E738B5141E4368054602DB62184B
:105BEC009A4200DD5C1A2A68501801191A44521A9C
:105BFC0001F0D6FB6A68121B6A6038BD37B50A46DD
:105C0C0004460D4601ABD0E90001FFF7EDFC02465E
:105C1C0038B101992046FFF7DDFF29462046FFF7F2
:105C2C00EDFF03B030BD10B50C4629B90A46084645
:105C3C00BDE81040FFF758B901212046FFF7DEFF01
:105C4C00D4E900010022F3E738B504461546FFF706
:105C5C00B8FF00280ADB29462046FFF7E4FF00289E
:105C6C0004DBBDE838400020FFF746B938BD000022
:105C7C0038B500230446836008200D46FEF703FA6E
:105C8C0018B12B6803606B684360034BE360034BF4
:105C9C002060A360204638BD31560B0049560B00DE
:105CAC000B68036013B15A6801325A60704710B523
:105CBC0051F8043B044640F8043BFFF7F1FF23681E
:105CCC000BB9FFF7A7FC204610BD10B551F8043BEB
:105CDC00044640F8043BFFF7E3FF204610BD10B527
:105CEC0051F8043B044640F8043BFFF7D9FF20462B
:105CFC0010BD10B50446006808B1FFF7D3FC204670
:105D0C0010BD10B504460430FFF7F3FF204610BD5C
:105D1C0070B5D0E90053044605EBC306AE4204D07F
:105D2C00281DFFF7E6FF0835F8E72068FFF7A0FA13
:105D3C00204670BD70B5D0E90053044605EBC30690
:105D4C00AE4204D0281DFFF7D4FF0835F8E72068D1
:105D5C00FFF78EFA204670BD10B504462430FFF7CD
:105D6C00E9FF04F11800FFF7D3FF10BD70B5154B18
:105D7C001C6834B304F14400FFF780FC04F13400D8
:105D8C00FFF77CFC04F12400FFF778FCD4E9065300
:105D9C0005EBC306AE4204D0281DFFF7AAFF083559
:105DAC00F8E7A069FFF764FA04F10C00FFF7C2FFF3
:105DBC002046FFF7ADFF20465421BDE87040FEF7AA
:105DCC0066B970BDD0E6032013B50023D1E90042BB
:105DDC00C1E900330368009304604368426001A882
:105DEC000193FFF786FF02B010BD826810B50AB9A7
:105DFC0001F098F9BDE81040C368184738B50D1E7E
:105E0C000446006803DDFFF73BFA18B938BDFFF70D
:105E1C002FFA00202060A5600120F7E708B5836801
:105E2C008B4202DAFFF7EAFF08BD0120FCE72DE9FF
:105E3C00F0410F4641681D46194483689942044657
:105E4C00904612DC266862683E44D21B31467019BB
:105E5C0001F0A6FA2A464146304601F093FA6368EF
:105E6C002B4463600120BDE8F081FFF7C7FF0028D9
:105E7C00E8D1F8E7F8B50D46D0E90113994204468C
:105E8C0016460BDA276862687919521B481C01F018
:105E9C0087FA7E55636801336360F8BD0131FFF703
:105EAC00ADFF0028EED1F8E70A464168FFF7E2BFE4
:105EBC002DE9F74304461D460F4601AB90460A46B2
:105ECC00D0E900019DF82890FFF78EFBAE1C6368AB
:105EDC000246B9F1000F26D128B333441B1AFF2B0D
:105EEC0009D801992046FFF775FE616820463144B8
:105EFC00FFF794FF18B9606803B0BDE8F0836A1C23
:105F0C000199D2B22046FFF7B5FF01993A4601310B
:105F1C002046FFF7AFFF01992B464246023120463F
:105F2C00FFF785FFE7E7F118FF29E4D82046FFF7D4
:105F3C0075FF0028DFD0691CC9B22046FFF7B4FFFB
:105F4C0039462046FFF7B0FF61682B464246E6E72C
:105F5C0030B49DF808501AB1029530BCFFF7A8BFB9
:105F6C00406830BC70471FB50023C0E90033836024
:105F7C000622009301238DF80F2019460DF10F0214
:105F8C000446FFF7E5FF204604B010BD8842F8B583
:105F9C0004460D46164614D9904213D2A2F10806B7
:105FAC00751AA1F108072C44B74218D01CB1314620
:105FBC002046FFF794FE301DFFF79BFE083E083C81
:105FCC00F2E70CD0B5420AD01CB129462046FFF7A7
:105FDC0086FE281DFFF78DFE08350834F2E7F8BD64
:105FEC00F7B5044646686846FFF779FED4E90173B5
:105FFC009F4212DB0137002F29DDF800FFF730F943
:10600C000546F0B1D4E9001201EBC202FFF7BEFF66
:10601C002068FFF72DF92560A7602368626803EB01
:10602C00C60603EBC202314606F10800FFF7AEFFCD
:10603C001EB169463046FFF752FE63680133636058
:10604C00012501A8FFF755FE284603B0F0BD002539
:10605C00DEE7F8B5D0E9004305460F4604EBC3066E
:10606C00A64205D039462046FFF709FD08B114B900
:10607C00F8BD0834F4E7201DFFF73BFED5E90032EC
:10608C0004F1080103EBC2022046FFF77FFF6B68A7
:10609C00013B6B60ECE700002DE9F04105468EB04A
:1060AC0003A80C46FFF728FB2E68042E75D007D8E2
:1060BC00032E32D003A8FFF72DFB0EB0BDE8F08104
:1060CC00A6F10C03042BF5D8A9892046FFF76CFC2C
:1060DC000028EFD0E36C002BECD000230D2EADF894
:1060EC00163002D0102E40F0A080002369681A46AA
:1060FC0006258DF8153004918DF814200690DDE9F5
:10610C00040109AB8DF81C60089583E80300236D2E
:10611C0006A904F144009847CCE704A8FFF77AFCE1
:10612C00049BAA891A806968049808310230FFF729
:10613C00FDFA04A906A8FFF7D2FD06A904F1180080
:10614C00FFF74EFF054607A8FFF7D3FD2023069364
:10615C008DB93D4B3D49009332202B4606AA07953D
:10616C00FEF7EAFF049B29461888FEF7CDFE05A82A
:10617C00FFF7BFFD9EE7364A009200233349079391
:10618C0006AA0120FEF7D8FFE36A002BEFD004A982
:10619C0004F12400FFF729FEE9E7A9892046FFF75F
:1061AC0003FC0646002885D00568D5E906324FF673
:1061BC00FF71298003EBC2029A4203D053F8080BFB
:1061CC004180F9E7D5E9037307EBC308B84504D060
:1061DC00381DFFF78EFD0837F8E700232B61D5E952
:1061EC00067307EBC308B84504D0381DFFF781FDD3
:1061FC000837F8E70023EB61AB72E36B23B1314650
:10620C0004F13400FFF7F1FD00232022CDE9062331
:10621C00104A00920D4906AA0120FEF78DFF314667
:10622C0004F11800FFF715FF44E70F2E01BF2B7A7E
:10623C00696803F0010208250FBFC3F340031A4637
:10624C0019461D4655E700BFFF790B00C0790B00BE
:10625C00257A0B00427A0B0013B50B460246D0E9A7
:10626C0000016C4684E8030093E8030082E8030015
:10627C0094E8030083E8030002B010BD38B505466E
:10628C000C46FFF7E9FFAB68A268AA60A360EB6855
:10629C00E268EA60E36038BD70B504468CB00E4627
:1062AC0001921D46FFF760FB2671019904F13C0039
:1062BC00FFF7F4F804F14C06CDB1109B029502A93E
:1062CC0004A80393FFF7D4FC002308A904A80A939D
:1062DC00FFF7D4FF314608A8FFF7D0FF08A8FFF757
:1062EC00CDF904A8FFF7CAF920460CB070BD06958D
:1062FC00EAE700002DE9F04F87B01D46DDE91043B9
:10630C0080468B4692461299039300226820029194
:10631C000492FDF7B8FE061E06F10C0918D00122F6
:10632C003746C6E901220299144A47F8202B039BF1
:10633C0000915A4651464846FFF7AEFF0FCD0FC7A6
:10634C002B683B600FCC06F134050FC523682B601E
:10635C0004A94046CDE90496FFF736FD05A8FFF7E2
:10636C00C8FCD8F8001031B9054A0A2007B0BDE8BE
:10637C00F04FFEF7D9BE07B0BDE8F08FBC7A0B002A
:10638C00A54E0B008842F8B504460D46164614D9A6
:10639C00904213D2A2F10806751AA1F108072C44F9
:1063AC00B74218D01CB131462046FFF78EFC301D89
:1063BC00FFF79FFC083E083CF2E70CD0B5420AD030
:1063CC001CB129462046FFF780FC281DFFF791FCE5
:1063DC0008350834F2E7F8BD70B50E1E054611DD20
:1063EC00F000FEF73DFF044658B1D5E9001201EB71
:1063FC00C202FFF7C7FF2868FEF73AFF2C60AE60B9
:10640C00012070BD0024F6E773B504464568684664
:10641C00FFF75BFCD4E90113994210DA2368626838
:10642C0003EBC50503EBC202294605F10800FFF793
:10643C00A9FF8DB9636801336360012606E0013161
:10644C002046FFF7C9FF06460028E7D101A8FFF751
:10645C0050FC304602B070BD69462846FFF735FC4B
:10646C00E8E78842F8B504460D46164614D9904222
:10647C0013D2A2F10806751AA1F108072C44B742F1
:10648C0018D01CB131462046FFF711FC301DFFF728
:10649C0030FC083E083CF2E70CD0B5420AD01CB1E7
:1064AC0029462046FFF703FC281DFFF722FC083580
:1064BC000834F2E7F8BD70B50E1E054611DDF0008C
:1064CC00FEF7CEFE044658B1D5E9001201EBC2022C
:1064DC00FFF7C7FF2868FEF7CBFE2C60AE600120EB
:1064EC0070BD0024F6E773B5044645686846FFF7AF
:1064FC00DEFBD4E90113994210DA2368626803EBDE
:10650C00C50503EBC202294605F10800FFF7A9FFF8
:10651C008DB9636801336360012606E001312046C2
:10652C00FFF7C9FF06460028E7D101A8FFF7E1FBFA
:10653C00304602B070BD69462846FFF7B8FBE8E765
:10654C002DE9F04F1746A1B080460AA80E46FFF77A
:10655C00D3F83C68237953B939464046FFF7A7FB7B
:10656C000AA8FFF7D7F8404621B0BDE8F08F336892
:10657C00D3E9035305EBC303039304F1280A04F195
:10658C00140B039B9D4221D0D5F80090584609F17D
:10659C001401FFF75EF9B8B109F128015046FFF775
:1065AC0058F988B12368D9F80020534033F47F435D
:1065BC000AD12022CDE915235E4A009215AA5E4924
:1065CC003220FEF7B9FDC7E70835DAE75046FFF78A
:1065DC0011F960B95949012215A815ADFFF7E2F878
:1065EC000FCDD446ACE80F002B68CCF800303368E4
:1065FC00D3E9005305EBC30B5D45A94651466ED05C
:10660C0055F8080BFFF725F90028F5D004F1140A0A
:10661C005046FFF7EFF888B9494B48491A880132C0
:10662C0092B21A8015A8012315ADFFF7DAF80FCD39
:10663C00D446ACE80F002B68CCF80030414B1593D6
:10664C002822002116A800F0C5FE514604A8FFF729
:10665C00E3F804AB18AA0DF1200C1868596815461C
:10666C0003C5083363452A46F7D118682860237997
:10667C008DF85830D9F800309B8AADF87430E36B44
:10668C001793314B0022A11D15A8CDE91E34FEF73E
:10669C004FFC00287FF460AF012323703468394627
:1066AC000C340DA8FFF703FB20460DA9FFF71BFFC9
:1066BC0004460EA8FFF71DFB002C7FF44DAF2023E2
:1066CC00CDE90D34214B00930DAA234677E73946CB
:1066DC004046FFF7ECFA0CA8FFF70BFB40E70BA8C2
:1066EC00FFF774F9514615A8FFF796F80B9A00239B
:1066FC00143215A90120FEF711FC0028E7D13568EA
:10670C000BA90DA8FFF7E1FA28460DA9FFF77CFEAF
:10671C0005460EA8FFF7EDFA002DD8D03268536865
:10672C00126803F10053013B0CA802EBC309FFF7FD
:10673C00E0FA6BE7617A0B00C0790B00267B0B004B
:10674C00C8E6032003002C00655B0B008C7A0B0061
:10675C00024800230360FEF7FFBB00BFCCE603201A
:10676C00F8B506460D468F180024BD420CD0336890
:10677C0015F8011B9B6830469847031E01DB1C442F
:10678C00F3E7002C08BF1C462046F8BD13B50446A1
:10679C00084659B1019100F065FE23680199DB6848
:1067AC000246204602B0BDE81040184702B010BDAA
:1067BC0003689B68184738B50D210546FFF7F8FFAD
:1067CC000A2104462846FFF7F3FF204438BD30B5B4
:1067DC008BB00023012A8DF8243098BF0A2209AC13
:1067EC000D46B1FBF2F101FB125303F0FF03092B31
:1067FC0094BF30333733DBB2AA4204F8013DEFD9F2
:10680C002146FFF7C3FF0BB030BD2DE9F04186B038
:10681C0000AF05460E46381D142114463B60FEF7AA
:10682C0037FD13280ED8391D2846FFF7AFFF044655
:10683C001EB12846FFF7BFFF044420461837BD465B
:10684C00BDE8F08100F1080323F00703E846ADEB47
:10685C00030D2246411C3B686846FEF719FD69464C
:10686C002846FFF793FF0446C546E1E710B50446FA
:10687C00FEF722FBE060236820465B6998470028FE
:10688C0008DAFEF719FBE368C01AA3689842F2D342
:10689C004FF0FF3010BD000070B50D46094904469D
:1068AC001646FEF7C2FD2846FFF7E0FF002806DB80
:1068BC00864204D0C1B22046FEF719FEF3E720460B
:1068CC0070BD00BF30780B00002340681A46194693
:1068DC00FEF77EBC014B024A1A607047D4E60320D7
:1068EC00467B0B00024B1A68024B1A60704700BFC4
:1068FC0054FA0220D8E603208A4210B507D0441A75
:10690C000298C01A4443501A94FBF0F0184410BD7E
:10691C000021FEF721BC0000014B00229A60704759
:10692C00DCE60320014B1860704700BF58FA0220C8
:10693C0008B50B4B43B100F067F903681B69984726
:10694C00002801DDAFF30080064B43B100F088FB5B
:10695C0003681B699847002801DDAFF3008008BD70
:10696C00000000000000000008B5FFF7E1FFFEF793
:10697C00A3FA014B186008BD40E703200548064AFE
:10698C00064908B5121A00F0FDFC054B054A1A60C1
:10699C0008BD00BF00F4032004F40320307F0B007B
:1069AC0000F403201E1C279A07B5002300931A46F7
:1069BC006FF07701FEF7E2FB03B05DF804FB00001B
:1069CC0007B543880A2B08D0502B0BD1094B1B68F9
:1069DC004BB103B05DF804EB1847FFF7E5FF03B0CC
:1069EC005DF804FB002300931A466FF07701FEF765
:1069FC00C5FBF4E7F0E6032010B512480021FEF7C2
:106A0C0067FC114B1A68114B9A42114B0CBF0122B7
:106A1C0000221A7001D0FFF7B1FFFEF735FA0446D9
:106A2C0000F0E0FC0B4B13B12046AFF300800021CB
:106A3C000848FEF70DFCBDE8104007480021FEF7A2
:106A4C0093BB00BF31690B0000F403201E1C279A76
:106A5C00ECE6032000000000CD690B00704710B578
:106A6C0018210446FDF713FB204610BDF0B5037D3D
:106A7C00062B8DB00E4600F104074FF0000412D027
:106A8C0000F1080515F8011D0A223046FFF79FFE9C
:106A9C00AF42044419D0002CF4D02E213046FFF71D
:106AAC0087FE0444EEE72F236A4639460A208DF808
:106ABC000040FEF769FA684600F0D4FC33680246E1
:106ACC00DB68694630469847044620460DB0F0BD59
:106ADC0010B5054B0446112240F8043B002100F090
:106AEC0079FC204610BD00BF707B0B000346074AA3
:106AFC0010B543F8042B01F1100251F8044B43F884
:106B0C00044B9142F9D10A781A7010BD707B0B00BE
:106B1C0010B59DF8084044EA032343EA024242EAD6
:106B2C00016104234160037510BD000007B5064BDD
:106B3C000360CB7800938B784A780978FFF7E8FFED
:106B4C0003B05DF804FB00BF707B0B004174704711
:106B5C007047704708B50021007CFEF7CDFA40EA7B
:106B6C00E07008BD08B50121007CFEF7C5FA40EACB
:106B7C00E07008BD08B5007CFEF7B6FA20EAE070BC
:106B8C0008BD08B5007CFEF7A7FA20EAE07008BD46
:106B9C0013B50446007C0191FEF7A6FA0028019972
:106BAC0001DC607C20B1207CFEF7AEFA20EAE070BC
:106BBC0002B010BD007CFEF7AFBA10B5142104462C
:106BCC00FDF765FA204610BD10B54FF47A730446F4
:106BDC0008460021C4E90113044B236001232074EF
:106BEC0063741146FEF768FA204610BD847B0B00D7
:106BFC00007C0022FEF768BA10B51422044600216E
:106C0C0000F0E8FB204610BD10B50F4C88B003A86F
:106C1C00FFF7F2FF2178BFF35B8F11F001010FD169
:106C2C0020460191FDF735FA019948B103AA0748AE
:106C3C00FFF7CAFF2046FDF731FA054800F088FB44
:106C4C00024808B010BD00BFF4E60320F8E60320AC
:106C5C005D6B0B0070474174704708B5007CFEF704
:106C6C00CBF920EAE07008BD08B5007CFEF79CF972
:106C7C0020EAE07008BD08B5007CFEF7A5F940EAF3
:106C8C00E07008BD08B5007CFEF796F940EAE070AC
:106C9C0008BD007CFEF7A0B937B5457C04462DB184
:106CAC00207C03B0BDE83040FEF776B9007C019142
:106CBC00FEF7A2F900280199F2DC284603B030BD9A
:106CCC0010B514210446FDF7E2F9204610BD000072
:106CDC0010B54FF47A730446084611460022C4E9F5
:106CEC000123044B2360012320746374FEF794F991
:106CFC00204610BDB47B0B00007C0023FEF784B94A
:106D0C000022FFF7F9BF7047F8B5064615460C464A
:106D1C008F18BC4206D0336814F8011B9B683046B0
:106D2C009847F6E72846F8BD007C0022FEF77CB9B0
:106D3C00007C0021FEF780B9007C0021FEF784B9AD
:106D4C00007C0021FEF788B9007C0021FEF78CB98D
:106D5C0010B514210446FDF79AF9204610BD000029
:106D6C0010B54FF47A73044608460021C4E90113A8
:106D7C00034B236020741146FEF786F9204610BDA4
:106D8C00E47B0B00002240681146FEF719BA002282
:106D9C0040681146FEF734BA002240681146FEF7EF
:106DAC003FBA40680022FEF733BA4068002281F0F7
:106DBC000101FEF71DBA002340681A461946FEF77A
:106DCC000FBA002240681146FEF7EAB9406800226B
:106DDC000221FEF7EDB9002340681A46FEF7D8B938
:106DEC00024B04225A60024A1A6070470CE70320D7
:106DFC000C7C0B00002340681A46FEF7C9B94068AA
:106E0C0000220221FEF7D4B9002240681146FEF799
:106E1C00C7B9002240681146FEF7D2B9002340687A
:106E2C001A461946FEF7D4B9002340681A4619468B
:106E3C00FEF7D6B940680021FEF7FAB94068002188
:106E4C00FEF7FEB94068002281F00101FEF7D0B9CF
:106E5C0040680022FEF7DCB9002240681146FEF7BC
:106E6C00DFB9002240681146FEF7CAB92DE9F0439C
:106E7C0095B014460D460746FFF72AFE00211C224A
:106E8C000DA8009100F0A6FA40230C9320466B4607
:106E9C000CAA0021FDF7D8FF044600284BD102466E
:106EAC0001216868FEF78CF9022180462246686849
:106EBC00FEF786F9009E81462146002E3BD0002924
:106ECC0039D17368022B03D00A2B11D0F669F4E781
:106EDC00B8F1000FFAD0716906A8043107ADFFF7BD
:106EEC0025FE0FCD3C1D0FC42B6823704146EDE7EA
:106EFC00B9F1000FEAD07469102201A800F06AFA07
:106F0C0006238DF8143001AD04F108031834186809
:106F1C0059682A4603C20833A3421546F7D101A982
:106F2C0006A807ADFFF7E2FD0FCD3C1D0FC42B6883
:106F3C0023704946CAE70098FDF77EFF384615B026
:106F4C00BDE8F083024B034A1A6000225A60704776
:106F5C0014E70320487C0B00232813B502D900202A
:106F6C0002B010BDA0F10B03022B1AD8174C2178DC
:106F7C00BFF35B8F11F001010BD120460191FDF79E
:106F8C0088F8019928B11248FEF7E8F92046FDF778
:106F9C0085F80F4B1878FEF787F80028DFD1012011
:106FAC00DEE7012809D800F097F80021007CFEF7F5
:106FBC0063F880F00100C0B2D2E709380128EED89E
:106FCC0000F04EF8007CFEF70FF8F2E71CE7032008
:106FDC0020E70320232838B504460D460AD8FF299C
:106FEC0008D0FFF7B9FF28B129462046BDE8384044
:106FFC00FDF732BF38BD38B504460D46FDF734FFFA
:10700C00FF2810D0062804D84D2323FA00F0C3071C
:10701C0009D42046FFF7A0FF28B129462046BDE839
:10702C003840FDF729BF38BD7047000038B504461D
:10703C0014252A46002100F0CDF92580402507496A
:10704C0025812846258200F06BF8044960602846AB
:10705C0000F066F8E060204638BD00BF7C7C0B0079
:10706C0030B50E4D2978BFF35B8F11F0010487B05A
:10707C0011D12846FDF70DF868B101A8FFF7D6FF2E
:10708C0001AA21460648FFF723FE2846FDF706F81D
:10709C00044800F05DF9024807B030BD28E7032032
:1070AC002CE7032035700B007047000038B5202505
:1070BC00142304460360856005610649284600F0E8
:1070CC002FF804496060284600F02AF8E06020465A
:1070DC0038BD00BF7C7C0B0030B50E4D2978BFF35A
:1070EC005B8F11F0010487B011D12846FCF7D1FF5A
:1070FC0068B101A8FFF7DAFF01AA21460648FFF79D
:10710C002FFE2846FCF7CAFF044800F021F902487C
:10711C0007B030BD44E7032048E70320B5700B00EF
:10712C00FCF7B3BF08B5FEF7BBF80000014900F04F
:10713C00F9B800BF987C0B007FB500241023CDE973
:10714C000234036815469E6912686B46CDE900440B
:10715C00B0479DF8043003F00603062B03BF009BD9
:10716C002B600120204604B070BD0098904214BFE3
:10717C00012006207047000010B5034B0360044645
:10718C0000F0CDF8204610BDD87C0B0010B504469D
:10719C00FFF7F2FF20460821FCF779FF204610BDCF
:1071AC002DE9F0411F46DDE90834DDF818809845DB
:1071BC000646154607D1079900F0B4F818B1657169
:1071CC000020BDE8F0813946304600F0ABF80028CD
:1071DC00F6D00123C4F800802571A371F0E738B50F
:1071EC0015461C4600F09EF820B10823E3600623E8
:1071FC002560237138BD73B505460C4601921E46B9
:10720C0000F090F850B9032E08D82368019A5B69F6
:10721C002946204602B0BDE87040184702B070BD48
:10722C0010B5034B03600446FFF7A6FF204610BDC4
:10723C00387D0B0010B50446FFF7F2FF20460C21F9
:10724C00FCF725FF204610BDF7B5089F9742054671
:10725C000E4614460AD0A86802680897156A31468B
:10726C002246AC4603B0BDE8F04060471946019396
:10727C0000F058F8019B0028EDD0062003B0F0BDBB
:10728C002DE9F14F0D461946DDE90A4BDDE90CA657
:10729C0081461746984600F045F890B1002D3460B1
:1072AC00377109DB61198A450CBF06210121B171C7
:1072BC00002001B0BDE8F08F0235F9D10123B37184
:1072CC00F6E7544506D15946484600F02BF808B16C
:1072DC007771EDE7D9F808000368CDE90CA6CDE984
:1072EC000A4BDC693A4643462946A44601B0BDE840
:1072FC00F04F60472DE9F04107460C4615461E46F7
:10730C00FFF76DFF48B9B86803689F692A46334692
:10731C002146BC46BDE8F0416047BDE8F0817047AE
:10732C0000207047814208B50ED0406803782A2BA4
:10733C000CD049680B782A2B08BF013100F080F87B
:10734C00B0FA80F0400908BD0120FCE70020FAE704
:10735C00002301461A46184600F038B90A220021CB
:10736C0000F02AB910B501390244904201D1002035
:10737C0005E0037811F8014FA34201D0181B10BD92
:10738C000130F2E70A44914200F1FF3300D170471B
:10739C0010B511F8014B03F8014F9142F9D110BD12
:1073AC00884210B501EB020402D98442234607D867
:1073BC00431EA14208D011F8012B03F8012FF8E766
:1073CC00024401468A4200D110BD13F8014D02F867
:1073DC00014DF7E702440346934200D1704703F88E
:1073EC00011BF9E738B5104B1D68AB6B0446B3B9FC
:1073FC001820FDF735FF0246A86320B90B4B0C484B
:10740C004221FDF75DFF0B490B4BC0E900130B4B01
:10741C0083600B23838100210120C2E90401AB6B43
:10742C0000221C615A6138BD58FA0220717D0B0094
:10743C00887D0B000E33CDAB34126DE6ECDE05000F
:10744C0010F8012B11F8013B012A28BF9A42F7D002
:10745C00D01A7047034611F8012B03F8012B002AB0
:10746C00F9D17047034613F8012B002AFBD1181AE7
:10747C000138704710B50139034632B111F8014F8C
:10748C0003F8014B013A002CF7D11A440021934226
:10749C0000D110BD03F8011BF9E710B502460144F9
:1074AC008A42134603D01C780132002CF8D1181AEA
:1074BC0010BD0000012B2DE9F04701D0242B06D97B
:1074CC00FDF7F6FE162303600020BDE8F087DFF819
:1074DC00E4C00D462E4615F8014B14F80C7017F04D
:1074EC000807F7D12D2C32D12C780127B51C002B95
:1074FC005BD0102B09D1302C07D12C7804F0DF0491
:10750C00582C4DD16C781023023507F1004808F146
:10751C00FF384FF0000CB8FBF3F9664603FB198AF1
:10752C00A4F1300EBEF1090F16D87446A34224DD27
:10753C00BCF1000F1EDBB1451CD301D1A24519DBF8
:10754C0006FB03464FF0010C15F8014BE8E72B2C1A
:10755C0004BF2C78B51CCAE7A4F1410EBEF1190F7B
:10756C0001D8373CE2E7A4F1610EBEF1190F04D843
:10757C00573CDBE74FF0FF3CE6E7BCF1000F05DAC8
:10758C0022230360464642B930469EE707B1764255
:10759C00002AF9D0BCF1000F00D0691E1160F3E78E
:1075AC003024002BB1D10823AFE7302CA5D00A230F
:1075BC00ABE700BF067E0B0013460A4601460248A5
:1075CC000068FFF777BF00BF58FA02202DE9F84397
:1075DC00DFF8B8800646D8F800001F460D469146E5
:1075EC0000F056F8254B1C6834B9254C1C60254B13
:1075FC0013B11B68C4F8883063681F2B07DDD8F8FB
:10760C00000000F047F84FF0FF30BDE8F8834EB3B0
:10761C00D4F8880088B91C4B23B9D8F8000000F0C6
:10762C0038F8F0E74FF48470FDF71AFE0028F4D018
:10763C000023C0E94033C4F88800636840F8239005
:10764C0001229A4000EB8301D0F800311343C0F8BB
:10765C000031022EC1F8807002BFD0F80431134300
:10766C00C0F804316368D8F800005A1C0233626019
:10767C0044F8235000F00EF80020C6E7E8E703209A
:10768C005CE70320000000006D520B00BCFA0220E6
:10769C0070477047704700001D400B0059400B00AD
:1076AC0081400B0085400B000000000042656769BB
:1076BC006E6E696E6720436F6D6D616E6473200A28
:1076CC000041540D0A004177616974696E6720525C
:1076DC0065706C790A005265706C793A2025730AD2
:1076EC000041542B414444524553533D25690D0AE6
:1076FC00004177616974696E67205265706C7920FE
:10770C0066726F6D20616464726573730A005265F2
:10771C00706C7920616464726573733A2025730A06
:10772C000041542B4E4554574F524B49443D25690B
:10773C000D0A004177616974696E67205265706C3F
:10774C00792066726F6D206E6574776F726B6964E9
:10775C000A005265706C79206E6574776F726B3AA3
:10776C002025730A0041542B414444524553533F46
:10777C000D0A005265706C79206765742061646431
:10778C00726573733A2025730A0041542B4E45548D
:10779C00574F524B49443F0D0A005265706C79208B
:1077AC00676574206E6574776F726B3A2025730A67
:1077BC000041542B4350494E3F0D0A005265706CEA
:1077CC0079206765742070617373776F72643A20E7
:1077DC0025730A0063757272656E7458203D2025FE
:1077EC0069202C2063757272656E7459203D2025BA
:1077FC00690A0063757272656E742078203D2025CD
:10780C0069202C2063757272656E7459203D202599
:10781C00690A0041542B53454E443D3838382C31BD
:10782C002C350D0A0041542B53454E443D38383805
:10783C002C312C390D0A006D6F76656420746F2025
:10784C0025692C2025690A007072696E7453746165
:10785C0072740A0025692C25692C25692C25690A66
:10786C00006F66667365742025692020726F77201F
:10787C003D2025690A200073696E676C65583D20B0
:10788C0025692C2073696E676C65593D25690A0062
:10789C004177616974696E6720496E636F6D696EBB
:1078AC0067204D65737361676500496E636F6D6921
:1078BC006E67204D6573736167653B2025730A25E0
:1078CC00730A25730A25730A25730A00496E636FC0
:1078DC006D696E67204C656E2025692C20496E639E
:1078EC006F6D696E67446174612025690A0053638A
:1078FC00616E20646964206E6F7420776F726B0AFE
:10790C000036453430303030312D423541332D4640
:10791C003339332D453041392D45353045323444DA
:10792C0043434139450036453430303030322D42F6
:10793C003541332D463339332D453041392D4535BD
:10794C0030453234444343413945003645343030B8
:10795C003030332D423541332D463339332D4530BC
:10796C0041392D4535304532344443434139450086
:10797C007478007278000000000000000000000025
:10798C004B530B0041530B0037530B002D530B0083
:10799C0021530B0015530B00416E0B00496E0B006D
:1079AC0009530B0001530B00F7520B00ED520B0067
:1079BC00796E0B00776972696E672E626C65005385
:1079CC007461727420646973636F766572696E6733
:1079DC002073657276696365732E0050656572203D
:1079EC00646576696365206973206D697373696E6C
:1079FC006721004661696C656420746F206170704A
:107A0C00656E6420706565722043656E7472616C7E
:107A1C00206465766963652E00436F6E6E656374D2
:107A2C0065642062792043656E7472616C206465B4
:107A3C00766963652E00446973636F6E6E6563745B
:107A4C0065642062792072656D6F7465206465765B
:107A5C006963652E004475706C696361746564209C
:107A6C0063686172616374657269737469632063BE
:107A7C00616E6E6F742062652061646465642E00B3
:107A8C004661696C656420746F20617070656E640A
:107A9C00206C6F63616C20636861726163746572E2
:107AAC0069737469632E0000000000000000000080
:107ABC0055550B00B9550B009B560B00E3550B00AD
:107ACC0059550B00000000000000000051550B0040
:107ADC00C7550B0053550B00E9550B0079550B009E
:107AEC0000000000000000004F550B00D5550B00A6
:107AFC00655D0B00EF550B0099550B000000000065
:107B0C0000000000000000000000FB349B5F8000C0
:107B1C00008000100000000000007BE327747BF85D
:107B2C0015ACDD49A913000072F5FB349B5F800096
:107B3C0000800010000000000000617070002559EA
:107B4C002D256D2D25645425483A254D3A25532570
:107B5C007A0061736374696D6500000000000000B9
:107B6C0000000000796A0B00696A0B006B6A0B005D
:107B7C0000000000000000005F6B0B00C76B0B00E7
:107B8C009D6B0B006D670B008F6B0B00616B0B001B
:107B9C00716B0B00C16B0B00816B0B00596B0B00F5
:107BAC000000000000000000616C0B00CD6C0B00AD
:107BBC00A56C0B006D670B00756C0B00916C0B00CA
:107BCC00836C0B009F6C0B00636C0B00676C0B00E1
:107BDC000000000000000000136D0B005D6D0B0039
:107BEC00356D0B00156D0B003D6D0B00456D0B00DD
:107BFC004D6D0B00556D0B000000000000000000E7
:107C0C00E36D0B00D96D0B00CF6D0B00916D0B006C
:107C1C00D5680B00C36D0B00416E0B00496E0B0059
:107C2C00B76D0B00AF6D0B00A56D0B009B6D0B00C2
:107C3C00796E0B000000000000000000016E0B00CC
:107C4C000B6E0B00156E0B001F6E0B00296E0B00DC
:107C5C00356E0B00416E0B00496E0B00516E0B0024
:107C6C005D6E0B00656E0B006F6E0B00796E0B007A
:107C7C0000537431395F53705F6D616B655F73686E
:107C8C00617265645F74616700000000D87C0B0052
:107C9C007D7C0B00387D0B00AC7C0B005C7D0B00FD
:107CAC004E31305F5F637878616269763131375F6E
:107CBC005F636C6173735F747970655F696E666F17
:107CCC004500000000000000A07C0B0085710B003B
:107CDC0099710B002D730B002D730B0003720B00AD
:107CEC0045710B00EB710B00AD710B0077710B0044
:107CFC00387D0B00087D0B00A07C0B004E31305FF3
:107D0C005F637878616269763132305F5F73695F87
:107D1C00636C6173735F747970655F696E666F45D0
:107D2C000000000000000000FC7C0B002D720B001A
:107D3C0041720B002D730B002D730B0003720B00A3
:107D4C0045710B0001730B008D720B0055720B000B
:107D5C00D87C0B00647D0B00537439747970655FAB
:107D6C00696E666F005245454E54206D616C6C6FA8
:107D7C006320737563636565646564002F6D6E7451
:107D8C002F776F726B73706163652F776F726B7384
:107D9C00706163652F4743432D31302D70697065D9
:107DAC006C696E652F6A656E6B696E732D47434304
:107DBC002D31302D706970656C696E652D34385FAE
:107DCC0032303230313132345F3136303631383056
:107DDC003634312F7372632F6E65776C69622F6E38
:107DEC0065776C69622F6C6962632F7374646C695C
:107DFC00622F72616E642E630000202020202020F0
:107E0C00202020282828282820202020202020203E
:107E1C00202020202020202020208810101010103E
:107E2C00101010101010101010100404040404048E
:107E3C000404040410101010101010414141414171
:107E4C0041010101010101010101010101010101D6
:107E5C000101010101101010101010424242424267
:107E6C0042020202020202020202020202020202A6
:107E7C00020202020210101010200000000000008C
:107E8C0000000000000000000000000000000000E6
:107E9C0000000000000000000000000000000000D6
:107EAC0000000000000000000000000000000000C6
:107EBC0000000000000000000000000000000000B6
:107ECC0000000000000000000000000000000000A6
:107EDC000000000000000000000000000000000096
:107EEC000000000000000000000000000000000086
:107EFC000000000000000000000000001D4A0B0004
:107F0C0055530B007D530B005D670B00E1680B00B4
:107F1C00F1680B0025690B00ED6D0B00516F0B0028
:047F2C000000000051
:047F3000000000004D
:107F3400E7030000050000005E7B0B005CFA0220F2
:107F4400000000000000000000000000000000002D
:107F5400000000000000000000000000000000001D
:107F6400000000000000000000000000000000000D
:107F740000000000000000000000000000000000FD
:107F840000000000000000000000000000000000ED
:107F940000000000000000000000000000000000DD
:047FA400ECE70320E3
:107FA800FFFFFFFF00000102030405060708090A96
:107FB8000B0C0D0E0F101112131415161718191A91
:087FC8001B1C1D1E1F202800D8
:047FD0007856341299
:04000003B000401CED
:00000001FF
