:02000002B0004C
:1040000000400B0000620B00000006000C000502DF
:084010000401810C0000000016
:044018004C5C0B00F1
:10401C0009480A49884208B505D0094A824202D0AB
:10402C00121A01F0B3FC0748074A0021121A01F0DA
:10403C00BBFC014808BD00BFDCFA022064610B0028
:10404C0050FB022050FB0220EDE7032070B5074E19
:10405C00074C01F0B9F8A41BA4080025AC4200D110
:10406C0070BD56F8043B98470135F7E738610B00F3
:10407C005C610B0000F04AB808B500F0BFF9BDE870
:10408C00084001F059B800F09FBD00F0A5BD0078C4
:10409C00B0FA80F0400970470123037070470000AC
:1040AC000B4A08B5002313600A4A13600A4A1360CE
:1040BC000A4A13600A4A012111700A4A0A49106817
:1040CC000860136000F014FC084B186008BD00BFBA
:1040DC00F8E5032008E60320FCE5032004E60320B2
:1040EC0070E60320A8E603200CE6032074E6032008
:1040FC000EB403B503AB002153F8042B019300F06D
:10410C0078FF02B05DF804EB03B0704710B586B0D1
:10411C0001F062F94FF4165101F052F940F6B83043
:10412C0000F0DEFF01F058F99D49FFF7E1FF01F0C7
:10413C00C1FB4FF4E13101F0F7F901F0BBFB9949F8
:10414C00FFF7D6FFC82000F0CBFF01F0B3FB0368EC
:10415C001B699847002819DD01F03EF99249934CF0
:10416C00FFF7C6FF01F0A6FB0A22014602A800F0E9
:10417C0087FF02A9204600F070FE02A800F0F1FDB6
:10418C0001F02AF922688A49FFF7B2FF01F092FB8D
:10419C00884B89491A68FFF7ABFFC82000F0A0FFD5
:1041AC0001F088FB03681B699847002819DD01F0B2
:1041BC0013F982497D4CFFF79BFF01F07BFB0A2230
:1041CC00014602A800F05CFF02A9204600F045FE63
:1041DC0002A800F0C6FD01F0FFF822687849FFF74D
:1041EC0087FF01F067FB774B77491A68FFF780FF71
:1041FC00C82000F075FF01F05DFB03681B69984750
:10420C00002819DD01F0E8F87049684CFFF770FFE1
:10421C0001F050FB0A22014602A800F031FF02A96E
:10422C00204600F01AFE02A800F09BFD01F0D4F825
:10423C0022686749FFF75CFF01F03CFB6549FFF71B
:10424C0057FFC82000F04CFF01F034FB03681B69DA
:10425C009847002819DD01F0BFF85349534CFFF77C
:10426C0047FF01F027FB0A22014602A800F008FFD5
:10427C0002A9204600F0F1FD02A800F072FD01F049
:10428C00ABF822685449FFF733FF01F013FB534995
:10429C00FFF72EFFC82000F023FF01F00BFB036893
:1042AC001B699847002819DD01F096F83E493F4CF0
:1042BC00FFF71EFF01F0FEFA0A22014602A800F0E9
:1042CC00DFFE02A9204600F0C8FD02A800F049FD5F
:1042DC0001F082F822684249FFF70AFF01F0EAFA7E
:1042EC004049FFF705FFC82000F0FAFE01F0E2FAA2
:1042FC0003681B69984700281EDD01F06DF82A49F8
:10430C00FFF7F6FE01F0D6FA0A22014602A800F0E9
:10431C00B7FE02A9254800F0A0FD02A800F021FD7F
:10432C00314922482822002300F0E8FD01F054F81E
:10433C002D4A2E49FFF7DCFE4FF4FA7000F0D0FE48
:10434C000021122001F05AFA0021112001F056FA36
:10435C000021102001F052FA00210F2001F04EFA3A
:10436C00234B0024012108201C7001F047FA012185
:10437C00062001F043FA0121072001F03FFA214603
:10438C00052001F03BFA1B4900944FF0FF3301224A
:10439C00052001F049F8184B1C7006B010BD00BF89
:1043AC00605C0B00755C0B007A5C0B0090E60320E4
:1043BC008A5C0B00DCFA0220955C0B00A55C0B0000
:1043CC00C25C0B00E0FA0220D55C0B00E75C0B0032
:1043DC00065D0B00195D0B00275D0B003E5D0B00AD
:1043EC004E5D0B00655D0B0064FB0220705D0B00E5
:1043FC00F4E50320AD400B0070E603202DE9F043FB
:10440C0089B001F057FA0368AC4D1B699847002836
:10441C0000F0A98000F0E0FFA949AA4FAA4EAB4CCE
:10442C00DFF81483DFF81493FFF762FE01F042FA11
:10443C002C22014604A800F023FE04A9384600F003
:10444C000CFD04A800F08DFC01F034FA2C2201467E
:10445C0004A800F015FE04A9304600F0FEFC04A8E8
:10446C0000F07FFC01F026FA2C22014604A800F093
:10447C0007FE04A9204600F0F0FC04A800F071FC33
:10448C0001F018FA2C22014604A800F0F9FD04A949
:10449C00404600F0E2FC04A800F063FC01F00AFACC
:1044AC000A22014604A800F0EBFD04A9484600F0DE
:1044BC00D4FC04A800F055FC00F08EFFD9F80030B5
:1044CC000293D8F800300193236800933A6833685C
:1044DC007F49804FFFF70CFE304600F027FD386017
:1044EC00204600F023FD7C4C206020B900F074FFC6
:1044FC007A49FFF7FDFD2368052B0AD100F0F0F98E
:10450C00774B186000F068FF7649FFF7F1FD002348
:10451C002B602368092B26D1734B744E1968DFF876
:10452C0020820A2204A800F0B2FC04A9304600F054
:10453C0094FC04A800F015FCB368C8F8003001F036
:10454C00B9F93368D8F800206949FFF7D1FD00F0BC
:10455C0043FF6849FFF7CCFD00F03EFF23683A6843
:10456C006549FFF7C5FD132001F072F9634B644CEC
:10457C0018602B68984212DD01232860237000F02C
:10458C00AFF9574B584D1B68C01A00232860237095
:10459C0000F022FF2A685B49FFF7AAFD02E02378AE
:1045AC00002BECD1584A594D1368296864338B425F
:1045BC00574B23DA11600024214606201C7001F0B1
:1045CC002EF92146072001F02AF90121082001F0DB
:1045DC0026F92146082001F022F900F089F94D4A0C
:1045EC004D4B4E4918601368013313600C22534332
:1045FC00CA18CC502B685060936002E01A78002ADD
:10460C00D9D1474A474D1368296864338B42464BCE
:10461C0024DA11600024214606201C7001F0FFF8FA
:10462C000121072001F0FBF80121082001F0F7F827
:10463C002146082001F0F3F800F05AF9354A364BC0
:10464C00364918601368013313600C225343CA189F
:10465C000124CC502B685060936002E01A78002A39
:10466C00D8D1324A324D1368296864338B42314BAE
:10467C0068DA11600024012106201C7001F0CFF8CB
:10468C002146072001F0CBF80121082001F0C7F8E2
:10469C002146082001F0C3F800F02AF91D4A1E4BF0
:1046AC001E4918601368013313600C225343CA1857
:1046BC000224CC502B685060936046E000E6032047
:1046CC00885D0B0018E6032028E6032038E603205B
:1046DC00A25D0B00ECE50320F0E50320C45D0B00AC
:1046EC00ACE60320D75D0B0078E6032080E60320C0
:1046FC00E75D0B00FB5D0B00015E0B006CE603201D
:10470C00F4E50320235E0B0008E60320B4E6032047
:10471C00B0E60320A8E6032068E603208CFB022009
:10472C00FCE5032014E6032010E6032004E6032036
:10473C00A4E60320A0E6032048E6032058E6032065
:10474C007CE603201A78002A94D1194A194C136874
:10475C00216864338B42184B24DA11600025012147
:10476C0006201D7001F05BF80121072001F057F8BD
:10477C000121082001F053F82946082001F04FF8D8
:10478C0000F0B6F80D4A0E4B0E4918601368013351
:10479C0013600C225343CA180325CD502368506074
:1047AC00936002E01A78002AD8D109B0BDE8F083F2
:1047BC00F8E5032060FB02205CFB0220A8E6032046
:1047CC0068E603208CFB022008B5144B0022C3E9D9
:1047DC000022A2F580329A60022000F069F910499B
:1047EC00104800F009FB0E490F4800F005FB0C497E
:1047FC000E4800F001FB0A490D4800F0FDFA08498B
:10480C000C4800F0F9FA06490B4800F0F5FABDE83F
:10481C0008400349094800F0EFBA00BF50FB0220E2
:10482C004D5D0B0090E6032080E6032018E6032084
:10483C0028E6032038E6032048E6032058E6032048
:10484C0008B5024B1B689B68019308BD6802030006
:10485C0008B5024B1B68DB68019308BD68020300B6
:10486C0008B5024B1B685B68019308BD2C02030062
:10487C0008B5024B1B689B68019308BD2C02030012
:10488C0008B5024B1B68DB68019308BD2C020300C2
:10489C0008B5024B1B681B69019308BD2C02030071
:1048AC0008B5024B1B689B69019308BD2C020300E1
:1048BC0008B5024B1B68DB69019308BD2C02030091
:1048CC0008B5024B1B681B6B019308BD2C0203003F
:1048DC0008B5024B1B685B68019308BD1802030006
:1048EC0008B5024B1B681B69019308BD1802030035
:1048FC0008B5024B1B685B69019308BD18020300E5
:10490C0008B5024B1B685B6C019308BD48020300A1
:10491C0008B5024B1B685B69019308BD6402030078
:10492C0008B5024B1B68DB68019308BD3C02030011
:10493C0008B5024B1B681B69019308BD3C020300C0
:10494C0008B5024B1B685B69019308BD3C02030070
:10495C0008B5024B1B689B69019308BD3C02030020
:10496C0008B5024B1B68DB69019308BD3C020300D0
:10497C0008B5024B1B681B6A019308BD3C0203007F
:10498C0008B5024B1B689B6A019308BD3C020300EF
:10499C0008B5024B1B68DB6A019308BD3C0203009F
:1049AC0008B5024B1B681B6C019308BD3C0203004D
:1049BC0008B5024B1B681B6A019308BD2802030053
:1049CC0008B5024B1B685B6A019308BD2802030003
:1049DC0008B5024B1B689B6A019308BD28020300B3
:1049EC0008B5024B1B68DB6A019308BD2802030063
:1049FC0008B5024B1B681B6B019308BD2802030012
:104A0C0008B5024B1B685B6B019308BD28020300C1
:104A1C0008B5024B1B681B6C019308BD28020300F0
:104A2C0008B5024B1B68DB69019308BD300203001B
:104A3C0008B5024B1B681B6A019308BD30020300CA
:104A4C0008B5024B1B681B68019308BD4C020300A0
:104A5C0008B5024B1B685B68019308BD4C02030050
:104A6C0008B5024B1B681B69019308BD4C0203007F
:104A7C0008B5024B1B685B69019308BD4C0203002F
:104A8C0008B5024B1B689B69019308BD4C020300DF
:104A9C0008B5024B1B68DB69019308BD4C0203008F
:104AAC0008B5024B1B681B6A019308BD4C0203003E
:104ABC0008B5024B1B685B68019308BD200203001C
:104ACC0008B5024B1B685B69019308BD200203000B
:104ADC0008B5034B1B68D3F88830019308BD000060
:104AEC002002030008B5034B1B68D3F894300193E4
:104AFC0008BD00002002030008B5024B1B685B6870
:104B0C00019308BD4002030008B5024B1B689B686B
:104B1C00019308BD4002030008B5024B1B68DB681B
:104B2C00019308BD4002030008B5024B1B681B69CA
:104B3C00019308BD4002030008B5024B1B685B697A
:104B4C00019308BD4002030008B5024B1B689B692A
:104B5C00019308BD4002030008B5024B1B68DB69DA
:104B6C00019308BD4002030008B5024B1B681B6A89
:104B7C00019308BD4002030008B5024B1B681B6B78
:104B8C00019308BD4002030008B5024B1B685B6B28
:104B9C00019308BD4002030008B5024B1B681B6C57
:104BAC00019308BD4002030008B5024B1B685B6C07
:104BBC00019308BD4002030008B5024B1B68DB6B78
:104BCC00019308BD4402030008B5024B1B681B6827
:104BDC00019308BD1C02030008B5024B1B685B68FF
:104BEC00019308BD1C02030008B5024B1B689B68AF
:104BFC00019308BD1C02030008B5024B1B685B6ADD
:104C0C00019308BD1C02030008B5024B1B68DB6B4B
:104C1C00019308BD1C02030008B5024B1B681B6CFA
:104C2C00019308BD1C02030008B5024B1B685B6CAA
:104C3C00019308BD1C020300002240681146FFF7D7
:104C4C0093BF002240681146FFF79EBF40680022C8
:104C5C00FFF792BF4068002281F00101FFF77CBF93
:104C6C00002340681A461946FFF76EBF00234068C0
:104C7C001A461946FFF760BF002240681146FFF73D
:104C8C0053BF002240681146FFF73EBF4068002228
:104C9C000221FFF741BF002340681A46FFF72CBFE3
:104CAC00024B03225A60024A1A607047B8E603208E
:104CBC00385E0B0010B5044608462170FFF7B0FEB5
:104CCC0000236360204610BD054B02221A60054B81
:104CDC00054A9A600020C3E90000FFF7E9BE00BF57
:104CEC00CCE60320C0E603200000FFFF10B504460D
:104CFC0000F098FE013823182046834206D902782A
:104D0C00197800F8011B03F80129F6E710BD70B5FE
:104D1C000C46911E22291DD8254630B92344302239
:104D2C009D4210D205F8012BFAE7B0FBF2F602FB1C
:104D3C001600C1B2092894BF30315731C9B205F8F9
:104D4C00011B3046E9E7002320462B70FFF7CEFF0E
:104D5C00204670BD0020FCE708B50123FFF7D7FF04
:104D6C0008BD10B504460068FFF736FF204610BD9D
:104D7C0010B50446006808B1FFF72EFF0023C4E904
:104D8C000133236010BD38B504460D46006801316F
:104D9C00FFF72AFF10B1C4E90005012038BD10B59A
:104DAC000368044623B143688B4201D3012010BD34
:104DBC002046FFF7E8FF0028F9D0A368002BF5D1B7
:104DCC0022681370F2E737B50D461146019204467E
:104DDC00FFF7E5FF019A28B92046FFF7C9FF2046E7
:104DEC0003B030BDA2602946206800F0CFFD2268D8
:104DFC00A3680021D154F2E7002313B5C0E90033B6
:104E0C0004468360037341B10846019100F00AFE29
:104E1C00019902462046FFF7D6FF204602B010BD8E
:104E2C0038B5054600680C4668B16A688B689A42CA
:104E3C0007D3096800F0EEFDA368AB600023A36004
:104E4C0038BDFFF7C9FE23682B6063686B60A368ED
:104E5C00AB600023C4E90033F1E7884210B5044687
:104E6C0001D0FFF7DDFF204610BD13B5044659B144
:104E7C000846019100F0D6FD019902462046FFF745
:104E8C00A2FF204602B010BDFFF772FFF9E710B584
:104E9C0004468AB00023C4E90033A3602373084698
:104EAC0001A9FFF759FF01A92046FFF7DEFF2046B5
:104EBC000AB010BD70B505460E4609B9002070BD8C
:104ECC006AB1846814442146FFF769FF0028F5D0C5
:104EDC002868AB683146184400F09CFDAC6001209A
:104EEC00EDE707B500238DF80410012201A98DF818
:104EFC000530FFF7DFFF03B05DF804FB58B50E4635
:104F0C002AB121B18468A34202D300230B7058BD8F
:104F1C00E41A013A0168944228BF14461944224607
:104F2C00304600F087FD00233355F0E7006808B1E8
:104F3C0000F028BD70470000024800230360FFF713
:104F4C00DFBC00BFD0E60320F8B506460D468F182F
:104F5C000024BD420CD0336815F8011B9B68304609
:104F6C009847031E01DB1C44F3E7002C08BF1C46CA
:104F7C002046F8BD13B50446084659B1019100F01E
:104F8C0051FD23680199DB680246204602B0BDE85A
:104F9C001040184702B010BD03689B68184738B51D
:104FAC000D210546FFF7F8FF0A2104462846FFF7B6
:104FBC00F3FF204438BD30B58BB00023012A8DF8A7
:104FCC00243098BF0A2209AC0D46B1FBF2F101FB6B
:104FDC00125303F0FF03092B94BF30333733DBB28A
:104FEC00AA4204F8013DEFD92146FFF7C3FF0BB0ED
:104FFC0030BD2DE9F04186B000AF05460E46381D98
:10500C00142114463B60FFF7F7FD13280ED8391D09
:10501C002846FFF7AFFF04461EB12846FFF7BFFF37
:10502C00044420461837BD46BDE8F08100F1080362
:10503C0023F00703E846ADEB030D2246411C3B6809
:10504C006846FFF7D9FD69462846FFF793FF0446EB
:10505C00C546E1E710B50446FFF74AFCE06023685B
:10506C0020465B699847002808DAFFF741FCE368A3
:10507C00C01AA3689842F2D34FF0FF3010BD000065
:10508C0070B50D46094904461646FFF7B5FE28468D
:10509C00FFF7E0FF002806DB864204D0C1B22046B1
:1050AC00FFF71FFFF3E7204670BD00BF4D5D0B00FF
:1050BC00002340681A461946FFF73EBD014B024AD1
:1050CC001A607047D4E603206C5E0B00024B1A6822
:1050DC00024B1A60704700BFE4FA0220D8E60320A6
:1050EC000021FFF7EDBC0000014B00229A607047D5
:1050FC00DCE60320014B1860704700BFE8FA022081
:10510C0008B50B4B43B100F067F903681B6998476E
:10511C00002801DDAFF30080064B43B100F0CAFB61
:10512C0003681B699847002801DDAFF3008008BDB8
:10513C00000000000000000008B5FFF7E1FFFFF7DA
:10514C00D7FB014B186008BD40E703200548064A11
:10515C00064908B5121A00F019FC054B054A1A60ED
:10516C0008BD00BF00F4032004F4032060610B00B1
:10517C0000F403201E1C279A07B5002300931A463F
:10518C006FF07701FFF7AEFC03B05DF804FB000095
:10519C0007B543880A2B08D0502B0BD1094B1B6841
:1051AC004BB103B05DF804EB1847FFF7E5FF03B014
:1051BC005DF804FB002300931A466FF07701FFF7AC
:1051CC0091FCF4E7F0E6032010B512480021FFF73C
:1051DC002BFD114B1A68114B9A42114B0CBF01223B
:1051EC0000221A7001D0FFF7B1FFFFF771FB0446E4
:1051FC0000F0E2FB0B4B13B12046AFF30080002113
:10520C000848FFF7D9FCBDE8104007480021FFF71C
:10521C005FBC00BF01510B0000F403201E1C279A39
:10522C00ECE60320000000009D510B00704710B508
:10523C0018210446FEF729FF204610BDF0B5037D6A
:10524C00062B8DB00E4600F104074FF0000412D06F
:10525C0000F1080515F8011D0A223046FFF7ABFED8
:10526C00AF42044419D0002CF4D02E213046FFF765
:10527C0093FE0444EEE72F236A4639460A208DF844
:10528C000040FFF745FB684600F0CCFB3368024654
:10529C00DB68694630469847044620460DB0F0BDA1
:1052AC0010B5054B0446112240F8043B002100F0D8
:1052BC007BFB204610BD00BF945E0B000346074AE3
:1052CC0010B543F8042B01F1100251F8044B43F8CC
:1052DC00044B9142F9D10A781A7010BD945E0B0000
:1052EC0010B59DF8084044EA032343EA024242EA1F
:1052FC00016104234160037510BD000007B5064B26
:10530C000360CB7800938B784A780978FFF7E8FF35
:10531C0003B05DF804FB00BF945E0B004174704752
:10532C007047704708B50021007CFFF7A9FB40EAE5
:10533C00E07008BD08B50121007CFFF7A1FB40EA35
:10534C00E07008BD08B5007CFFF792FB20EAE07026
:10535C0008BD08B5007CFFF783FB20EAE07008BDB0
:10536C0013B50446007C0191FFF782FB00280199DC
:10537C0001DC607C20B1207CFFF78AFB20EAE07026
:10538C0002B010BD007CFFF78BBB10B51421044696
:10539C00FEF77BFE204610BD10B54FF47A73044621
:1053AC0008460021C4E90113044B23600123207437
:1053BC0063741146FFF744FB204610BDA85E0B003A
:1053CC00007C0022FFF744BB10B5142204460021D8
:1053DC0000F0EAFA204610BD10B50F4C88B003A8B7
:1053EC00FFF7F2FF2178BFF35B8F11F001010FD1B2
:1053FC0020460191FEF74BFE019948B103AA0748DC
:10540C00FFF7CAFF2046FEF747FE054800F0B4FA46
:10541C00024808B010BD00BFF4E60320F8E60320F4
:10542C002D530B00004700002DE9FF4100241D46C1
:10543C000F4690460646FFF73BFAA5424FF0040391
:10544C00ADF80D408DF80C308DF80F40A2BF9DF8D3
:10545C0028308DF80E3003AC0749009443463A4689
:10546C003046A8BF8DF80D50FFF71AFAB0FA80F04D
:10547C00400904B0BDE8F08131540B007047417411
:10548C00704708B5007CFFF77BFA20EAE07008BD96
:10549C0008B5007CFFF74CFA20EAE07008BD08B5AF
:1054AC00007CFFF755FA40EAE07008BD08B5007CB7
:1054BC00FFF746FA40EAE07008BD007CFFF750BAEF
:1054CC0037B5457C04462DB1207C03B0BDE8304097
:1054DC00FFF726BA007C0191FFF752FA00280199D8
:1054EC00F2DC284603B030BD10B514210446FEF79B
:1054FC00CCFD204610BD000010B54FF47A73044665
:10550C00084611460022C4E90123044B2360012301
:10551C0020746374FFF744FA204610BDD85E0B006C
:10552C00007C0023FFF734BA0022FFF7F9BF704765
:10553C00F8B5064615460C468F18BC4206D03368A3
:10554C0014F8011B9B6830469847F6E72846F8BDCF
:10555C00007C0022FFF72CBA007C0021FFF730BA48
:10556C00007C0021FFF734BA007C0021FFF738BA29
:10557C00007C0021FFF73CBA10B514210446FEF75D
:10558C0084FD204610BD000010B54FF47A7304461C
:10559C0008460021C4E90113034B23602074114613
:1055AC00FFF736FA204610BD085F0B00002240685A
:1055BC001146FFF7B9BA002240681146FFF7D4BA7A
:1055CC00002240681146FFF7DFBA40680022FFF75F
:1055DC00D3BA4068002281F00101FFF7BDBA002365
:1055EC0040681A461946FFF7AFBA002240681146C8
:1055FC00FFF78ABA406800220221FFF78DBA002318
:10560C0040681A46FFF778BA024B04225A60024AE5
:10561C001A6070470CE70320305F0B0000234068D2
:10562C001A46FFF769BA406800220221FFF774BAE4
:10563C00002240681146FFF767BA00224068114605
:10564C00FFF772BA002340681A461946FFF774BA7E
:10565C00002340681A461946FFF776BA40680021C5
:10566C00FFF79ABA40680021FFF79EBA4068002203
:10567C0081F00101FFF770BA40680022FFF77CBA95
:10568C00002240681146FFF77FBA0022406811469D
:10569C00FFF76ABA2DE9F04395B014460D4607465C
:1056AC00FFF7FEFD00211C220DA8009100F07CF9F3
:1056BC0040230C9320466B460CAA0021FFF7C8F838
:1056CC00044600284BD1024601216868FFF72CFAEA
:1056DC000221804622466868FFF726FA009E814622
:1056EC002146002E3BD0002939D17368022B03D000
:1056FC000A2B11D0F669F4E7B8F1000FFAD07169F2
:10570C0006A8043107ADFFF7F9FD0FCD3C1D0FC402
:10571C002B6823704146EDE7B9F1000FEAD07469AC
:10572C00102201A800F040F906238DF8143001ADC9
:10573C0004F108031834186859682A4603C2083360
:10574C00A3421546F7D101A906A807ADFFF7B6FD90
:10575C000FCD3C1D0FC42B6823704946CAE7009837
:10576C00FFF76EF8384615B0BDE8F083024B034ADC
:10577C001A6000225A60704714E703206C5F0B001C
:10578C00232813B502D9002002B010BDA0F10B03E1
:10579C00022B1AD8174C2178BFF35B8F11F0010143
:1057AC000BD120460191FEF772FC019928B11248E9
:1057BC00FFF780FA2046FEF76FFC0F4B1878FFF7C7
:1057CC0037F90028DFD10120DEE7012809D800F0E5
:1057DC00ADF80021007CFFF713F980F00100C0B296
:1057EC00D2E709380128EED800F064F8007CFFF706
:1057FC00BFF8F2E71CE7032020E70320232838B585
:10580C0004460D460AD8FF2908D0FFF7B9FF28B186
:10581C0029462046BDE83840FFF72AB838BD38B5D0
:10582C0004460D46FFF72CF8FF2810D0062804D8A4
:10583C004D2323FA00F0C30709D42046FFF7A0FF3D
:10584C0028B129462046BDE83840FFF721B838BDBD
:10585C000D2810B504469CBF0E34A4B22046FFF7A9
:10586C008FFF50B103212046FEF7FAFF032804D125
:10587C002046BDE81040FFF723B8002010BD70474C
:10588C0038B5044614252A46002100F08DF82580F1
:10589C004025074925812846258200F06BF80449EC
:1058AC006060284600F066F8E060204638BD00BF16
:1058BC00A05F0B0030B50E4D2978BFF35B8F11F054
:1058CC00010487B011D12846FEF7E1FB68B101A8AD
:1058DC00FFF7D6FF01AA21460648FFF70DFE284622
:1058EC00FEF7DAFB044800F047F8024807B030BD79
:1058FC0028E703202CE703208B580B00704700008F
:10590C0038B52025142304460360856005610649DB
:10591C00284600F02FF804496060284600F02AF869
:10592C00E060204638BD00BFA05F0B0030B50E4DC7
:10593C002978BFF35B8F11F0010487B011D1284691
:10594C00FEF7A5FB68B101A8FFF7DAFF01AA214613
:10595C000648FFF719FE2846FEF79EFB044800F0A8
:10596C000BF8024807B030BD44E7032048E703209A
:10597C0009590B00FEF787BB002301461A4618464F
:10598C0000F0F8B80A22002100F0EAB80A4491426B
:10599C0000F1FF3300D1704710B511F8014B03F83B
:1059AC00014F9142F9D110BD02440346934200D1FC
:1059BC00704703F8011BF9E738B5104B1D68AB6B4A
:1059CC000446B3B91820FFF7FFF80246A86320B9C4
:1059DC000B4B0C484221FFF71FF90B490B4BC0E94D
:1059EC0000130B4B83600B23838100210120C2E940
:1059FC000401AB6B00221C615A6138BDE8FA02202D
:105A0C00A15F0B00B85F0B000E33CDAB34126DE60B
:105A1C00ECDE0500034611F8012B03F8012B002ADC
:105A2C00F9D17047034613F8012B002AFBD1181A41
:105A3C000138704710B50139034632B111F8014FE6
:105A4C0003F8014B013A002CF7D11A440021934280
:105A5C0000D110BD03F8011BF9E70000012B2DE963
:105A6C00F04701D0242B06D9FFF7CEF8162303609C
:105A7C000020BDE8F087DFF8E4C00D462E4615F88F
:105A8C00014B14F80C7017F00807F7D12D2C32D1FC
:105A9C002C780127B51C002B5BD0102B09D1302C96
:105AAC0007D12C7804F0DF04582C4DD16C781023DE
:105ABC00023507F1004808F1FF384FF0000CB8FB35
:105ACC00F3F9664603FB198AA4F1300EBEF1090FF7
:105ADC0016D87446A34224DDBCF1000F1EDBB14581
:105AEC001CD301D1A24519DB06FB03464FF0010C78
:105AFC0015F8014BE8E72B2C04BF2C78B51CCAE732
:105B0C00A4F1410EBEF1190F01D8373CE2E7A4F124
:105B1C00610EBEF1190F04D8573CDBE74FF0FF3C88
:105B2C00E6E7BCF1000F05DA22230360464642B9D2
:105B3C0030469EE707B17642002AF9D0BCF1000F3F
:105B4C0000D0691E1160F3E73024002BB1D108237B
:105B5C00AFE7302CA5D00A23ABE700BF36600B00B3
:105B6C0013460A46014602480068FFF777BF00BF9C
:105B7C00E8FA02202DE9F843DFF8B8800646D8F899
:105B8C0000001F460D46914600F056F8254B1C6848
:105B9C0034B9254C1C60254B13B11B68C4F88830F4
:105BAC0063681F2B07DDD8F8000000F047F84FF0B2
:105BBC00FF30BDE8F8834EB3D4F8880088B91C4B8D
:105BCC0023B9D8F8000000F038F8F0E74FF48470EF
:105BDC00FEF7FAFF0028F4D00023C0E94033C4F8E4
:105BEC008800636840F8239001229A4000EB8301FF
:105BFC00D0F800311343C0F80031022EC1F8807088
:105C0C0002BFD0F804311343C0F804316368D8F8EC
:105C1C0000005A1C0233626044F8235000F00EF866
:105C2C000020C6E7E8E703205CE703200000000043
:105C3C00D54B0B004CFB022070477047704700009F
:105C4C001D400B0059400B0081400B0085400B00A0
:105C5C0000000000426567696E6E696E6720436FD5
:105C6C006D6D616E6473200A0041540D0A0041771A
:105C7C00616974696E67205265706C790A005265AF
:105C8C00706C793A2025730A0041542B41444452DC
:105C9C004553533D25690D0A004177616974696E5E
:105CAC0067205265706C792066726F6D2061646438
:105CBC00726573730A005265706C7920616464724A
:105CCC006573733A2025730A0041542B4E45545783
:105CDC004F524B49443D25690D0A00417761697467
:105CEC00696E67205265706C792066726F6D206EDC
:105CFC006574776F726B69640A005265706C7920F9
:105D0C006E6574776F726B3A2025730A0041542BC1
:105D1C00414444524553533F0D0A005265706C790F
:105D2C002067657420616464726573733A2025730F
:105D3C000A0041542B4E4554574F524B49443F0D8A
:105D4C000A005265706C7920676574206E657477F3
:105D5C006F726B3A2025730A0041542B4350494E05
:105D6C003F0D0A005265706C792067657420706174
:105D7C007373776F72643A2025730A0041776169F7
:105D8C0074696E6720496E636F6D696E67204D652F
:105D9C00737361676500496E636F6D696E67204D43
:105DAC006573736167653B2025730A25730A257338
:105DBC000A25730A25730A005363616E20646964B3
:105DCC00206E6F7420776F726B0A0053746172745B
:105DDC00696E672054696D65720A0041542B5345F6
:105DEC004E443D3939392C25692C25730D0A005345
:105DFC00656E740A00496E636F6D696E67204C6541
:105E0C006E2025692C20496E636F6D696E67446145
:105E1C0074612025690A004E657756616C202569EE
:105E2C000A0000000000000000000000A34C0B0062
:105E3C00994C0B008F4C0B00854C0B00794C0B00D4
:105E4C006D4C0B0069560B0071560B00614C0B002E
:105E5C00594C0B004F4C0B00454C0B00A1560B0042
:105E6C006170700025592D256D2D25645425483AF7
:105E7C00254D3A2553257A0061736374696D65006D
:105E8C00000000000000000049520B0039520B00CA
:105E9C003B520B0000000000000000002F530B00D1
:105EAC0097530B006D530B00554F0B005F530B00BA
:105EBC0031530B0041530B0091530B0051530B000A
:105ECC0029530B00000000000000000089540B0057
:105EDC00F5540B00CD540B00554F0B009D540B008B
:105EEC00B9540B00AB540B00C7540B008B540B0074
:105EFC008F540B0000000000000000003B550B000D
:105F0C0085550B005D550B003D550B0065550B0081
:105F1C006D550B0075550B007D550B0000000000F6
:105F2C00000000000B560B0001560B00F7550B0040
:105F3C00B9550B00BD500B00EB550B0069560B000F
:105F4C0071560B00DF550B00D7550B00CD550B00D0
:105F5C00C3550B00A1560B00000000000000000010
:105F6C0029560B0033560B003D560B0047560B00C1
:105F7C0051560B005D560B0069560B0071560B0009
:105F8C0079560B0085560B008D560B0097560B005F
:105F9C00A1560B00005245454E54206D616C6C6F40
:105FAC006320737563636565646564002F6D6E743F
:105FBC002F776F726B73706163652F776F726B7372
:105FCC00706163652F4743432D31302D70697065C7
:105FDC006C696E652F6A656E6B696E732D474343F2
:105FEC002D31302D706970656C696E652D34385F9C
:105FFC0032303230313132345F3136303631383044
:10600C003634312F7372632F6E65776C69622F6E25
:10601C0065776C69622F6C6962632F7374646C6949
:10602C00622F72616E642E630000202020202020DD
:10603C00202020282828282820202020202020202C
:10604C00202020202020202020208810101010102C
:10605C00101010101010101010100404040404047C
:10606C00040404041010101010101041414141415F
:10607C0041010101010101010101010101010101C4
:10608C000101010101101010101010424242424255
:10609C004202020202020202020202020202020294
:1060AC00020202020210101010200000000000007A
:1060BC0000000000000000000000000000000000D4
:1060CC0000000000000000000000000000000000C4
:1060DC0000000000000000000000000000000000B4
:1060EC0000000000000000000000000000000000A4
:1060FC000000000000000000000000000000000094
:10610C000000000000000000000000000000000083
:10611C000000000000000000000000000000000073
:10612C00000000000000000000000000D5470B003C
:10613C00AD4C0B00D54C0B00454F0B00C9500B0060
:10614C00D9500B00F5500B0015560B0079570B006E
:04615C00000000003F
:04616000000000003B
:106164007803000005000000845E0B00ECFA0220B6
:10617400000000000000000000000000000000001B
:10618400000000000000000000000000000000000B
:1061940000000000000000000000000000000000FB
:1061A40000000000000000000000000000000000EB
:1061B40000000000000000000000000000000000DB
:1061C40000000000000000000000000000000000CB
:0461D400ECE70320D1
:1061D800FFFFFFFF00000102030405060708090A84
:1061E8000B0C0D0E0F101112131415161718191A7F
:0861F8001B1C1D1E1F202800C6
:046200007856341286
:04000003B000401CED
:00000001FF
