:02000002B0004C
:1040000000400B00F8520B00000006000C000502F7
:084010000401810C0000000016
:0440180014500B0035
:10401C0009480A49884208B505D0094A824202D0AB
:10402C00121A00F03FFF0748074A0021121A00F04D
:10403C0047FF014808BD00BF30E6032064520B0067
:10404C009CE603209CE60320EDE7032070B5074EA9
:10405C00074C00F099FBA41BA4080025AC4200D12E
:10406C0070BD56F8043B98470135F7E734520B0006
:10407C0058520B0000F022B808B500F02BF8BDE840
:10408C00084000F039BB00F0E7B900F0EDB900785A
:10409C00B0FA80F0400970470123037070470EB4EA
:1040AC0003B503AB002153F8042B019300F0B3FAD2
:1040BC0002B05DF804EB03B07047000008B50021B6
:1040CC00132000F043FE024B00221A7008BD00BF03
:1040DC00A8E6032038B5132000F049FE114C124D10
:1040EC00206000F065F82B68C01AB0F5FA7F02D991
:1040FC0000F05EF828600D4D23682A680C4C934242
:10410C000BDD2B600123237000F042FC2A68094967
:10411C00FFF7C5FF0023237002E02378002BF3D1B7
:10412C0038BD00BFB0E60320B4E60320ACE60320A4
:10413C00A8E6032028500B00044B0022C3E9002200
:10414C00A2F580329A60022000F002B99CE60320AE
:10415C0008B5024B1B689B68019308BD68020300FD
:10416C0008B5024B1B68DB68019308BD68020300AD
:10417C0008B5024B1B685B68019308BD2C02030059
:10418C0008B5024B1B689B68019308BD2C02030009
:10419C0008B5024B1B681B6B019308BD2C02030076
:1041AC0008B5024B1B685B68019308BD180203003D
:1041BC0008B5024B1B685B69019308BD180203002C
:1041CC0008B5024B1B685B6C019308BD48020300E9
:1041DC0008B5024B1B685B69019308BD64020300C0
:1041EC0008B5024B1B68DB68019308BD3C02030059
:1041FC0008B5024B1B681B69019308BD3C02030008
:10420C0008B5024B1B685B69019308BD3C020300B7
:10421C0008B5024B1B689B69019308BD3C02030067
:10422C0008B5024B1B68DB69019308BD3C02030017
:10423C0008B5024B1B681B6A019308BD3C020300C6
:10424C0008B5024B1B689B6A019308BD3C02030036
:10425C0008B5024B1B681B6C019308BD3C020300A4
:10426C0008B5024B1B681B6A019308BD28020300AA
:10427C0008B5024B1B685B6A019308BD280203005A
:10428C0008B5024B1B689B6A019308BD280203000A
:10429C0008B5024B1B68DB6A019308BD28020300BA
:1042AC0008B5024B1B681B6B019308BD2802030069
:1042BC0008B5024B1B685B6B019308BD2802030019
:1042CC0008B5024B1B681B6C019308BD2802030048
:1042DC0008B5024B1B68DB69019308BD3002030073
:1042EC0008B5024B1B681B6A019308BD3002030022
:1042FC0008B5024B1B681B68019308BD4C020300F8
:10430C0008B5024B1B681B69019308BD4C020300E6
:10431C0008B5024B1B685B69019308BD4C02030096
:10432C0008B5024B1B689B69019308BD4C02030046
:10433C0008B5024B1B68DB69019308BD4C020300F6
:10434C0008B5024B1B681B6A019308BD4C020300A5
:10435C0008B5024B1B685B68019308BD2002030083
:10436C0008B5034B1B68D3F88830019308BD0000D7
:10437C002002030008B5034B1B68D3F8943001935B
:10438C0008BD00002002030008B5024B1B685B68E7
:10439C00019308BD4002030008B5024B1B689B68E3
:1043AC00019308BD4002030008B5024B1B68DB6893
:1043BC00019308BD4002030008B5024B1B681B6942
:1043CC00019308BD4002030008B5024B1B685B69F2
:1043DC00019308BD4002030008B5024B1B689B69A2
:1043EC00019308BD4002030008B5024B1B68DB6952
:1043FC00019308BD4002030008B5024B1B681B6A01
:10440C00019308BD4002030008B5024B1B681B6BEF
:10441C00019308BD4002030008B5024B1B685B6B9F
:10442C00019308BD4002030008B5024B1B681B6CCE
:10443C00019308BD4002030008B5024B1B685B6C7E
:10444C00019308BD4002030008B5024B1B68DB6BEF
:10445C00019308BD4402030008B5024B1B681B689E
:10446C00019308BD1C02030008B5024B1B685B6876
:10447C00019308BD1C02030008B5024B1B685B6A64
:10448C00019308BD1C02030008B5024B1B681B6C92
:10449C00019308BD1C02030008B5024B1B685B6C42
:1044AC00019308BD1C020300002240681146FFF76F
:1044BC00A3BF002240681146FFF7AEBF4068002240
:1044CC00FFF7A2BF4068002281F00101FFF78CBF0B
:1044DC00002340681A461946FFF77EBF0023406848
:1044EC001A461946FFF770BF002240681146FFF7C5
:1044FC0063BF002240681146FFF74EBF40680022A0
:10450C000221FFF751BF002340681A46FFF73CBF5A
:10451C00024B03225A60024A1A607047B8E6032025
:10452C0034500B0010B5044608462170FFF7D0FE3E
:10453C0000236360204610BD054B02221A60054B18
:10454C00054A9A600020C3E90000FFF701BF00BFD5
:10455C00CCE60320C0E603200000FFFF0248002346
:10456C000360FFF72DBE00BFD0E60320F8B506466A
:10457C000D468F180024BD420CD0336815F8011B72
:10458C009B6830469847031E01DB1C44F3E7002C64
:10459C0008BF1C462046F8BD13B50446084659B161
:1045AC00019100F0C3FC23680199DB6802462046A8
:1045BC0002B0BDE81040184702B010BD03689B68FC
:1045CC00184738B50D210546FFF7F8FF0A210446B8
:1045DC002846FFF7F3FF204438BD30B58BB00023DD
:1045EC00012A8DF8243098BF0A2209AC0D46B1FB84
:1045FC00F2F101FB125303F0FF03092B94BF30338C
:10460C003733DBB2AA4204F8013DEFD92146FFF75C
:10461C00C3FF0BB030BD2DE9F04186B000AF0546AD
:10462C000E46381D142114463B60FFF725FF132856
:10463C000ED8391D2846FFF7AFFF04461EB1284699
:10464C00FFF7BFFF044420461837BD46BDE8F08194
:10465C0000F1080323F00703E846ADEB030D2246F7
:10466C00411C3B686846FFF707FF69462846FFF781
:10467C0093FF0446C546E1E7002340681A461946F5
:10468C00FFF7A2BE014B024A1A607047D4E6032022
:10469C0068500B00024B1A68024B1A60704700BF3F
:1046AC0030E60320D8E60320014B00229A607047C5
:1046BC00DCE60320014B1860704700BF34E6032092
:1046CC0008B50B4B43B100F063F903681B699847BD
:1046DC00002801DDAFF30080064B43B100F07AFBFC
:1046EC0003681B699847002801DDAFF3008008BD03
:1046FC00000000000000000008B5FFF7E1FFFFF725
:10470C0057FD014B186008BD40E703200548064AD9
:10471C00064908B5121A00F0C5FB054B054A1A608C
:10472C0008BD00BF00F4032004F4032060520B000A
:10473C0000F403201E1C279A07B5002300931A4689
:10474C006FF07701FFF716FE03B05DF804FB000075
:10475C0007B543880A2B08D0502B0BD1094B1B688B
:10476C004BB103B05DF804EB1847FFF7E5FF03B05E
:10477C005DF804FB002300931A466FF07701FFF7F6
:10478C00F9FDF4E7F0E6032010B512480021FFF71D
:10479C0083FE114B1A68114B9A42114B0CBF01222C
:1047AC0000221A7001D0FFF7B1FFFFF7F9FC0446A5
:1047BC0000F08EFB0B4B13B12046AFF300800021B1
:1047CC000848FFF741FEBDE8104007480021FFF7FD
:1047DC00C7BD00BFC1460B0000F403201E1C279A66
:1047EC00ECE60320000000005D470B00704710B59D
:1047FC0018210446FFF749FC204610BDF0B5037D97
:10480C00062B8DB00E4600F104074FF0000412D0B9
:10481C0000F1080515F8011D0A223046FFF7DDFEF0
:10482C00AF42044419D0002CF4D02E213046FFF7AF
:10483C00C5FE0444EEE72F236A4639460A208DF85C
:10484C000040FFF7C5FC684600F070FB3368024679
:10485C00DB68694630469847044620460DB0F0BDEB
:10486C0010B5054B0446112240F8043B002100F022
:10487C0027FB204610BD00BF90500B000346074A93
:10488C0010B543F8042B01F1100251F8044B43F816
:10489C00044B9142F9D10A781A7010BD90500B005C
:1048AC0010B59DF8084044EA032343EA024242EA69
:1048BC00016104234160037510BD000007B5064B70
:1048CC000360CB7800938B784A780978FFF7E8FF80
:1048DC0003B05DF804FB00BF90500B0041747047AF
:1048EC007047704708B50021007CFFF719FD40EABE
:1048FC00E07008BD08B50121007CFFF711FD40EA0E
:10490C00E07008BD08B5007CFFF702FD20EAE070FE
:10491C0008BD08B5007CFFF7F3FC20EAE07008BD89
:10492C0013B50446007C0191FFF7F2FC00280199B5
:10493C0001DC607C20B1207CFFF7FAFC20EAE070FF
:10494C0002B010BD007CFFF7FBBC10B5142104466F
:10495C00FFF79BFB204610BD10B54FF47A7304464D
:10496C0008460021C4E90113044B23600123207481
:10497C0063741146FFF7BCFC204610BDA4500B001D
:10498C0010B514220446002100F09AFA204610BDFE
:10499C0010B50F4C88B003A8FFF7F2FF2178BFF3D6
:1049AC005B8F11F001010FD120460191FFF76FFBD6
:1049BC00019948B103AA0748FFF7CEFF2046FFF73D
:1049CC006BFB054800F068FA024808B010BD00BF48
:1049DC00F4E60320F8E60320ED480B007047417421
:1049EC00704708B5007CFFF72BFC20EAE07008BD8F
:1049FC0008B5007CFFF7FCFB20EAE07008BD08B5A9
:104A0C00007CFFF705FC40EAE07008BD08B5007CAF
:104A1C00FFF7F6FB40EAE07008BD007CFFF700BC36
:104A2C0037B5457C04462DB1207C03B0BDE8304041
:104A3C00FFF7D6BB007C0191FFF702FC002801991F
:104A4C00F2DC284603B030BD10B514210446FFF744
:104A5C001CFB204610BD000010B54FF47A730446C1
:104A6C00084611460022C4E90123044B23600123AC
:104A7C0020746374FFF7ECFB204610BDD4500B0080
:104A8C007047F8B5064615460C468F18BC4206D042
:104A9C00336814F8011B9B6830469847F6E72846A4
:104AAC00F8BD007C0022FFF7DBBB007C0021FFF788
:104ABC00DFBB007C0021FFF7E3BB007C0021FFF78C
:104ACC00E7BB007C0021FFF7EBBB10B514210446BB
:104ADC00FFF7DBFA204610BD10B54FF47A7304468D
:104AEC0008460021C4E90113034B236020741146CE
:104AFC00FFF7E6FB204610BD04510B000022406876
:104B0C001146FFF759BC002240681146FFF774BCF0
:104B1C00002240681146FFF77FBC40680022FFF777
:104B2C0073BC4068002281F00101FFF75DBC0023DB
:104B3C0040681A461946FFF74FBC002240681146E0
:104B4C00FFF72ABC406800220221FFF72DBC00238E
:104B5C0040681A46FFF718BC024B04225A60024AFE
:104B6C001A6070470CE703202C510B00002340689F
:104B7C001A46FFF709BC406800220221FFF714BC5B
:104B8C00002240681146FFF707BC0022406811461E
:104B9C00FFF712BC002340681A461946FFF714BCF5
:104BAC00002340681A461946FFF716BC40680021DE
:104BBC00FFF73ABC40680021FFF73EBC406800227A
:104BCC0081F00101FFF710BC40680022FFF71CBC0C
:104BDC00002240681146FFF71FBC002240681146B6
:104BEC00FFF70ABC2DE9F04395B014460D46074675
:104BFC00FFF736FE00211C220DA8009100F060F991
:104C0C0040230C9320466B460CAA0021FFF7A8FA10
:104C1C00044600284BD1024601216868FFF7CCFB03
:104C2C000221804622466868FFF7C6FB009E81463B
:104C3C002146002E3BD0002939D17368022B03D0BA
:104C4C000A2B11D0F669F4E7B8F1000FFAD07169AC
:104C5C0006A8043107ADFFF731FE0FCD3C1D0FC484
:104C6C002B6823704146EDE7B9F1000FEAD0746967
:104C7C00102201A800F024F906238DF8143001ADA0
:104C8C0004F108031834186859682A4603C208331B
:104C9C00A3421546F7D101A906A807ADFFF7EEFD13
:104CAC000FCD3C1D0FC42B6823704946CAE70098F2
:104CBC00FFF74EFA384615B0BDE8F083024B034AB5
:104CCC001A6000225A60704714E7032068510B00E9
:104CDC00232813B502D9002002B010BDA0F10B039C
:104CEC00022B1AD8174C2178BFF35B8F11F00101FE
:104CFC000BD120460191FFF7CAF9019928B112484E
:104D0C00FFF710FC2046FFF7C7F90F4B1878FFF799
:104D1C00E7FA0028DFD10120DEE7012809D800F0EE
:104D2C0095F80021007CFFF7C3FA80F00100C0B2B7
:104D3C00D2E709380128EED800F04CF8007CFFF7D8
:104D4C0077FAF2E71CE7032020E70320232838B585
:104D5C0004460D460AD8FF2908D0FFF7B9FF28B141
:104D6C0029462046BDE83840FFF70ABA38BD0D2861
:104D7C0010B504469CBF0E34A4B22046FFF7A8FF22
:104D8C0050B103212046FFF7F3F9032804D1204644
:104D9C00BDE81040FFF7FCB9002010BD70470000C3
:104DAC0038B5044614252A46002100F089F82580E0
:104DBC004025074925812846258200F06BF80449D7
:104DCC006060284600F066F8E060204638BD00BF01
:104DDC009C510B0030B50E4D2978BFF35B8F11F051
:104DEC00010487B011D12846FFF751F968B101A829
:104DFC00FFF7D6FF01AA21460648FFF72DFE2846ED
:104E0C00FFF74AF9044800F047F8024807B030BDF4
:104E1C0028E703202CE70320A94D0B007047000066
:104E2C0038B52025142304460360856005610649C6
:104E3C00284600F02FF804496060284600F02AF854
:104E4C00E060204638BD00BF9C510B0030B50E4DC4
:104E5C002978BFF35B8F11F0010487B011D128467C
:104E6C00FFF715F968B101A8FFF7DAFF01AA21468F
:104E7C000648FFF731FE2846FFF70EF9044800F00C
:104E8C000BF8024807B030BD44E7032048E7032085
:104E9C00294E0B00FFF7F7B8002301461A461846B7
:104EAC0000F04CB80A44914200F1FF3300D1704736
:104EBC0010B511F8014B03F8014F9142F9D110BD17
:104ECC0002440346934200D1704703F8011BF9E7F3
:104EDC0038B5104B1D68AB6B0446B3B91820FFF7FF
:104EEC00BBFA0246A86320B90B4B0C484221FFF7D2
:104EFC00CBFA0B490B4BC0E900130B4B83600B2314
:104F0C00838100210120C2E90401AB6B00221C61EA
:104F1C005A6138BD34E603209D510B00B4510B008F
:104F2C000E33CDAB34126DE6ECDE0500034613F800
:104F3C00012B002AFBD1181A013870472DE9F843D0
:104F4C00DFF8B8800646D8F800001F460D4691469B
:104F5C0000F056F8254B1C6834B9254C1C60254BC9
:104F6C0013B11B68C4F8883063681F2B07DDD8F8B1
:104F7C00000000F047F84FF0FF30BDE8F8834EB367
:104F8C00D4F8880088B91C4B23B9D8F8000000F07D
:104F9C0038F8F0E74FF48470FFF75EFA0028F4D08D
:104FAC000023C0E94033C4F88800636840F82390BC
:104FBC0001229A4000EB8301D0F800311343C0F872
:104FCC000031022EC1F8807002BFD0F804311343B7
:104FDC00C0F804316368D8F800005A1C02336260D0
:104FEC0044F8235000F00EF80020C6E7E8E7032051
:104FFC005CE703200000000065440B0098E60320EA
:10500C0070477047704700001D400B0059400B0063
:10501C0081400B0085400B000000000025690A0050
:10502C00000000000000000013450B0009450B00B8
:10503C00FF440B00F5440B00E9440B00DD440B006E
:10504C00B94B0B00C14B0B00D1440B00C9440B00F6
:10505C00BF440B00B5440B00F14B0B0061707000AA
:10506C0025592D256D2D25645425483A254D3A2575
:10507C0053257A0061736374696D6500000000004C
:10508C000000000009480B00F9470B00FB470B0020
:10509C000000000000000000EF480B0057490B0017
:1050AC002D490B0079450B001F490B00F1480B00F3
:1050BC0001490B0051490B0011490B00E9480B0049
:1050CC000000000000000000E9490B00554A0B00ED
:1050DC002D4A0B0079450B00FD490B00194A0B00BA
:1050EC000B4A0B00274A0B00EB490B00EF490B0056
:1050FC0000000000000000008D4A0B00D74A0B0096
:10510C00AF4A0B008F4A0B00B74A0B00BF4A0B008B
:10511C00C74A0B00CF4A0B00000000000000000043
:10512C005B4B0B00514B0B00474B0B00094B0B001F
:10513C0085460B003B4B0B00B94B0B00C14B0B00D6
:10514C002F4B0B00274B0B001D4B0B00134B0B0075
:10515C00F14B0B000000000000000000794B0B002D
:10516C00834B0B008D4B0B00974B0B00A14B0B0093
:10517C00AD4B0B00B94B0B00C14B0B00C94B0B00DB
:10518C00D54B0B00DD4B0B00E74B0B00F14B0B0031
:10519C00005245454E54206D616C6C6F63207375E5
:1051AC0063636565646564002F6D6E742F776F7231
:1051BC006B73706163652F776F726B73706163656E
:1051CC002F4743432D31302D706970656C696E65C6
:1051DC002F6A656E6B696E732D4743432D31302DED
:1051EC00706970656C696E652D34385F32303230A1
:1051FC00313132345F313630363138303634312F4C
:10520C007372632F6E65776C69622F6E65776C694C
:10521C00622F6C6962632F7374646C69622F7261A4
:10522C006E642E630000000045410B001D450B0011
:10523C0045450B0069450B0091460B00A1460B0040
:10524C00B5460B00654B0B00C94C0B000000000071
:04525C00000000004E
:04526000000000004A
:1052640080500B0038E6032000000000000000001E
:10527400000000000000000000000000000000002A
:10528400000000000000000000000000000000001A
:10529400000000000000000000000000000000000A
:1052A40000000000000000000000000000000000FA
:1052B40000000000000000000000000000000000EA
:0C52C4000000000000000000ECE70320E8
:1052D000FFFFFFFF00000102030405060708090A9B
:1052E0000B0C0D0E0F101112131415161718191A96
:0852F0001B1C1D1E1F202800DD
:0452F800785634129E
:04000003B000401CED
:00000001FF
