:02000002B0004C
:1040000000400B00F0610B00000006000C000502F0
:084010000401810C0000000016
:044018003C5C0B0001
:10401C0009480A49884208B505D0094A824202D0AB
:10402C00121A01F0ABFC0748074A0021121A01F0E2
:10403C00B3FC014808BD00BFDCFA022054610B0040
:10404C0050FB022050FB0220EDE7032070B5074E19
:10405C00074C01F0B1F8A41BA4080025AC4200D118
:10406C0070BD56F8043B98470135F7E720610B000B
:10407C0044610B0000F04AB808B500F0BFF9BDE888
:10408C00084001F051B800F097BD00F09DBD0078DC
:10409C00B0FA80F0400970470123037070470000AC
:1040AC000B4A08B5002313600A4A13600A4A1360CE
:1040BC000A4A13600A4A012111700A4A0A49106817
:1040CC000860136000F00CFC084B186008BD00BFC2
:1040DC00F8E5032008E60320FCE5032004E60320B2
:1040EC0070E60320A8E603200CE6032074E6032008
:1040FC000EB403B503AB002153F8042B019300F06D
:10410C0070FF02B05DF804EB03B0704710B586B0D9
:10411C0001F05AF94FF4165101F04AF940F6B83053
:10412C0000F0D6FF01F050F99D49FFF7E1FF01F0D7
:10413C00B9FB4FF4E13101F0EFF901F0B3FB994910
:10414C00FFF7D6FFC82000F0C3FF01F0ABFB0368FC
:10415C001B699847002819DD01F036F99249934CF8
:10416C00FFF7C6FF01F09EFB0A22014602A800F0F1
:10417C007FFF02A9204600F068FE02A800F0E9FDCE
:10418C0001F022F922688A49FFF7B2FF01F08AFB9D
:10419C00884B89491A68FFF7ABFFC82000F098FFDD
:1041AC0001F080FB03681B699847002819DD01F0BA
:1041BC000BF982497D4CFFF79BFF01F073FB0A2240
:1041CC00014602A800F054FF02A9204600F03DFE73
:1041DC0002A800F0BEFD01F0F7F822687849FFF75D
:1041EC0087FF01F05FFB774B77491A68FFF780FF79
:1041FC00C82000F06DFF01F055FB03681B69984760
:10420C00002819DD01F0E0F87049684CFFF770FFE9
:10421C0001F048FB0A22014602A800F029FF02A97E
:10422C00204600F012FE02A800F093FD01F0CCF83D
:10423C0022686749FFF75CFF01F034FB6549FFF723
:10424C0057FFC82000F044FF01F02CFB03681B69EA
:10425C009847002819DD01F0B7F85349534CFFF784
:10426C0047FF01F01FFB0A22014602A800F000FFE5
:10427C0002A9204600F0E9FD02A800F06AFD01F059
:10428C00A3F822685449FFF733FF01F00BFB5349A5
:10429C00FFF72EFFC82000F01BFF01F003FB0368A3
:1042AC001B699847002819DD01F08EF83E493F4CF8
:1042BC00FFF71EFF01F0F6FA0A22014602A800F0F1
:1042CC00D7FE02A9204600F0C0FD02A800F041FD77
:1042DC0001F07AF822684249FFF70AFF01F0E2FA8E
:1042EC004049FFF705FFC82000F0F2FE01F0DAFAB2
:1042FC0003681B69984700281EDD01F065F82A4900
:10430C00FFF7F6FE01F0CEFA0A22014602A800F0F1
:10431C00AFFE02A9254800F098FD02A800F019FD97
:10432C00314922482822002300F0E0FD01F04CF82E
:10433C002D4A2E49FFF7DCFE4FF4FA7000F0C8FE50
:10434C000021122001F052FA0021112001F04EFA46
:10435C000021102001F04AFA00210F2001F046FA4A
:10436C00234B0024012108201C7001F03FFA01218D
:10437C00062001F03BFA0121072001F037FA214613
:10438C00052001F033FA1B4900944FF0FF33012252
:10439C00052001F041F8184B1C7006B010BD00BF91
:1043AC00505C0B00655C0B006A5C0B0090E6032014
:1043BC007A5C0B00DCFA0220855C0B00955C0B0030
:1043CC00B25C0B00E0FA0220C55C0B00D75C0B0062
:1043DC00F65C0B00095D0B00175D0B002E5D0B00EE
:1043EC003E5D0B00555D0B0064FB0220605D0B0015
:1043FC00F4E50320AD400B0070E603202DE9F043FB
:10440C0089B001F04FFA0368A94D1B699847002841
:10441C0000F0A28000F0D8FFA649A74FA74EA84CE9
:10442C00DFF80483DFF80493FFF762FE01F03AFA39
:10443C002C22014604A800F01BFE04A9384600F00B
:10444C0004FD04A800F085FC01F02CFA2C22014696
:10445C0004A800F00DFE04A9304600F0F6FC04A8F8
:10446C0000F077FC01F01EFA2C22014604A800F0A3
:10447C00FFFD04A9204600F0E8FC04A800F069FC4C
:10448C0001F010FA2C22014604A800F0F1FD04A959
:10449C00404600F0DAFC04A800F05BFC01F002FAE4
:1044AC000A22014604A800F0E3FD04A9484600F0E6
:1044BC00CCFC04A800F04DFC00F086FFD9F80030CD
:1044CC000293D8F800300193236800933A6833685C
:1044DC007C497D4FFFF70CFE304600F01FFD386025
:1044EC00204600F01BFD794C052820600AD100F015
:1044FC00EFF9774B186000F067FF7649FFF7F8FD8E
:10450C0000232B602368092B26D1734B734E19683B
:10451C00DFF81C820A2204A800F0B1FC04A9304682
:10452C0000F093FC04A800F014FCB368C8F8003049
:10453C0001F0B8F93368D8F800206949FFF7D8FDC5
:10454C0000F042FF6749FFF7D3FD00F03DFF236801
:10455C003A686549FFF7CCFD132001F071F92B681F
:10456C00624E634C3060984213DD01232860237047
:10457C0000F0AEF9564B584D1B68C01A002323703F
:10458C00286000F021FF33682A685A49FFF7B0FD14
:10459C0002E02378002BEBD1574A584D1368296859
:1045AC0064338B42564B23DA1160002421460620DB
:1045BC001C7001F02CF92146072001F028F901218B
:1045CC00082001F024F92146082001F020F900F020
:1045DC0087F94C4A4C4B4D491860136801331360F2
:1045EC000C225343CA18CC502B685060936002E0E5
:1045FC001A78002AD9D1464A464D13682968643383
:10460C008B42454B24DA11600024214606201C7095
:10461C0001F0FDF80121072001F0F9F80121082033
:10462C0001F0F5F82146082001F0F1F800F058F9F6
:10463C00344A354B354918601368013313600C222A
:10464C005343CA180124CC502B685060936002E08D
:10465C001A78002AD8D1314A314D1368296864334D
:10466C008B42304B66DA11600024012106201C704D
:10467C0001F0CDF82146072001F0C9F801210820EE
:10468C0001F0C5F82146082001F0C1F800F028F926
:10469C001C4A1D4B1D4918601368013313600C2212
:1046AC005343CA180224CC502B685060936044E0EA
:1046BC0000E60320785D0B0018E6032028E60320B3
:1046CC0038E60320925D0B00ECE50320F0E50320B7
:1046DC00ACE60320B45D0B0078E6032080E60320F3
:1046EC00C45D0B00D85D0B00DE5D0B006CE6032097
:1046FC00F4E50320005E0B0008E60320B4E603207B
:10470C00B0E60320A8E6032068E603208CFB022019
:10471C00FCE5032014E6032010E6032004E6032046
:10472C00A4E60320A0E6032048E6032058E6032075
:10473C007CE603201A78002A96D1194A194C136882
:10474C00216864338B42184B24DA11600025012157
:10475C0006201D7001F05BF80121072001F057F8CD
:10476C000121082001F053F82946082001F04FF8E8
:10477C0000F0B6F80D4A0E4B0E4918601368013361
:10478C0013600C225343CA180325CD502368506084
:10479C00936002E01A78002AD8D109B0BDE8F08302
:1047AC00F8E5032060FB02205CFB0220A8E6032056
:1047BC0068E603208CFB022008B5144B0022C3E9E9
:1047CC000022A2F580329A60022000F069F91049AB
:1047DC00104800F009FB0E490F4800F005FB0C498E
:1047EC000E4800F001FB0A490D4800F0FDFA08499B
:1047FC000C4800F0F9FA06490B4800F0F5FABDE850
:10480C0008400349094800F0EFBA00BF50FB0220F2
:10481C003D5D0B0090E6032080E6032018E60320A4
:10482C0028E6032038E6032048E6032058E6032058
:10483C0008B5024B1B689B68019308BD6802030016
:10484C0008B5024B1B68DB68019308BD68020300C6
:10485C0008B5024B1B685B68019308BD2C02030072
:10486C0008B5024B1B689B68019308BD2C02030022
:10487C0008B5024B1B68DB68019308BD2C020300D2
:10488C0008B5024B1B681B69019308BD2C02030081
:10489C0008B5024B1B689B69019308BD2C020300F1
:1048AC0008B5024B1B68DB69019308BD2C020300A1
:1048BC0008B5024B1B681B6B019308BD2C0203004F
:1048CC0008B5024B1B685B68019308BD1802030016
:1048DC0008B5024B1B681B69019308BD1802030045
:1048EC0008B5024B1B685B69019308BD18020300F5
:1048FC0008B5024B1B685B6C019308BD48020300B2
:10490C0008B5024B1B685B69019308BD6402030088
:10491C0008B5024B1B68DB68019308BD3C02030021
:10492C0008B5024B1B681B69019308BD3C020300D0
:10493C0008B5024B1B685B69019308BD3C02030080
:10494C0008B5024B1B689B69019308BD3C02030030
:10495C0008B5024B1B68DB69019308BD3C020300E0
:10496C0008B5024B1B681B6A019308BD3C0203008F
:10497C0008B5024B1B689B6A019308BD3C020300FF
:10498C0008B5024B1B68DB6A019308BD3C020300AF
:10499C0008B5024B1B681B6C019308BD3C0203005D
:1049AC0008B5024B1B681B6A019308BD2802030063
:1049BC0008B5024B1B685B6A019308BD2802030013
:1049CC0008B5024B1B689B6A019308BD28020300C3
:1049DC0008B5024B1B68DB6A019308BD2802030073
:1049EC0008B5024B1B681B6B019308BD2802030022
:1049FC0008B5024B1B685B6B019308BD28020300D2
:104A0C0008B5024B1B681B6C019308BD2802030000
:104A1C0008B5024B1B68DB69019308BD300203002B
:104A2C0008B5024B1B681B6A019308BD30020300DA
:104A3C0008B5024B1B681B68019308BD4C020300B0
:104A4C0008B5024B1B685B68019308BD4C02030060
:104A5C0008B5024B1B681B69019308BD4C0203008F
:104A6C0008B5024B1B685B69019308BD4C0203003F
:104A7C0008B5024B1B689B69019308BD4C020300EF
:104A8C0008B5024B1B68DB69019308BD4C0203009F
:104A9C0008B5024B1B681B6A019308BD4C0203004E
:104AAC0008B5024B1B685B68019308BD200203002C
:104ABC0008B5024B1B685B69019308BD200203001B
:104ACC0008B5034B1B68D3F88830019308BD000070
:104ADC002002030008B5034B1B68D3F894300193F4
:104AEC0008BD00002002030008B5024B1B685B6880
:104AFC00019308BD4002030008B5024B1B689B687C
:104B0C00019308BD4002030008B5024B1B68DB682B
:104B1C00019308BD4002030008B5024B1B681B69DA
:104B2C00019308BD4002030008B5024B1B685B698A
:104B3C00019308BD4002030008B5024B1B689B693A
:104B4C00019308BD4002030008B5024B1B68DB69EA
:104B5C00019308BD4002030008B5024B1B681B6A99
:104B6C00019308BD4002030008B5024B1B681B6B88
:104B7C00019308BD4002030008B5024B1B685B6B38
:104B8C00019308BD4002030008B5024B1B681B6C67
:104B9C00019308BD4002030008B5024B1B685B6C17
:104BAC00019308BD4002030008B5024B1B68DB6B88
:104BBC00019308BD4402030008B5024B1B681B6837
:104BCC00019308BD1C02030008B5024B1B685B680F
:104BDC00019308BD1C02030008B5024B1B689B68BF
:104BEC00019308BD1C02030008B5024B1B685B6AED
:104BFC00019308BD1C02030008B5024B1B68DB6B5C
:104C0C00019308BD1C02030008B5024B1B681B6C0A
:104C1C00019308BD1C02030008B5024B1B685B6CBA
:104C2C00019308BD1C020300002240681146FFF7E7
:104C3C0093BF002240681146FFF79EBF40680022D8
:104C4C00FFF792BF4068002281F00101FFF77CBFA3
:104C5C00002340681A461946FFF76EBF00234068D0
:104C6C001A461946FFF760BF002240681146FFF74D
:104C7C0053BF002240681146FFF73EBF4068002238
:104C8C000221FFF741BF002340681A46FFF72CBFF3
:104C9C00024B03225A60024A1A607047B8E603209E
:104CAC00205E0B0010B5044608462170FFF7B0FEDD
:104CBC0000236360204610BD054B02221A60054B91
:104CCC00054A9A600020C3E90000FFF7E9BE00BF67
:104CDC00CCE60320C0E603200000FFFF10B504461D
:104CEC0000F098FE013823182046834206D902783A
:104CFC00197800F8011B03F80129F6E710BD70B50F
:104D0C000C46911E22291DD8254630B92344302249
:104D1C009D4210D205F8012BFAE7B0FBF2F602FB2C
:104D2C001600C1B2092894BF30315731C9B205F809
:104D3C00011B3046E9E7002320462B70FFF7CEFF1E
:104D4C00204670BD0020FCE708B50123FFF7D7FF14
:104D5C0008BD10B504460068FFF736FF204610BDAD
:104D6C0010B50446006808B1FFF72EFF0023C4E914
:104D7C000133236010BD38B504460D46006801317F
:104D8C00FFF72AFF10B1C4E90005012038BD10B5AA
:104D9C000368044623B143688B4201D3012010BD44
:104DAC002046FFF7E8FF0028F9D0A368002BF5D1C7
:104DBC0022681370F2E737B50D461146019204468E
:104DCC00FFF7E5FF019A28B92046FFF7C9FF2046F7
:104DDC0003B030BDA2602946206800F0CFFD2268E8
:104DEC00A3680021D154F2E7002313B5C0E90033C6
:104DFC0004468360037341B10846019100F00AFE3A
:104E0C00019902462046FFF7D6FF204602B010BD9E
:104E1C0038B5054600680C4668B16A688B689A42DA
:104E2C0007D3096800F0EEFDA368AB600023A36014
:104E3C0038BDFFF7C9FE23682B6063686B60A368FD
:104E4C00AB600023C4E90033F1E7884210B5044697
:104E5C0001D0FFF7DDFF204610BD13B5044659B154
:104E6C000846019100F0D6FD019902462046FFF755
:104E7C00A2FF204602B010BDFFF772FFF9E710B594
:104E8C0004468AB00023C4E90033A36023730846A8
:104E9C0001A9FFF759FF01A92046FFF7DEFF2046C5
:104EAC000AB010BD70B505460E4609B9002070BD9C
:104EBC006AB1846814442146FFF769FF0028F5D0D5
:104ECC002868AB683146184400F09CFDAC600120AA
:104EDC00EDE707B500238DF80410012201A98DF828
:104EEC000530FFF7DFFF03B05DF804FB58B50E4645
:104EFC002AB121B18468A34202D300230B7058BDA0
:104F0C00E41A013A0168944228BF14461944224617
:104F1C00304600F087FD00233355F0E7006808B1F8
:104F2C0000F028BD70470000024800230360FFF723
:104F3C00DFBC00BFD0E60320F8B506460D468F183F
:104F4C000024BD420CD0336815F8011B9B68304619
:104F5C009847031E01DB1C44F3E7002C08BF1C46DA
:104F6C002046F8BD13B50446084659B1019100F02E
:104F7C0051FD23680199DB680246204602B0BDE86A
:104F8C001040184702B010BD03689B68184738B52D
:104F9C000D210546FFF7F8FF0A2104462846FFF7C6
:104FAC00F3FF204438BD30B58BB00023012A8DF8B7
:104FBC00243098BF0A2209AC0D46B1FBF2F101FB7B
:104FCC00125303F0FF03092B94BF30333733DBB29A
:104FDC00AA4204F8013DEFD92146FFF7C3FF0BB0FD
:104FEC0030BD2DE9F04186B000AF05460E46381DA8
:104FFC00142114463B60FFF7F7FD13280ED8391D1A
:10500C002846FFF7AFFF04461EB12846FFF7BFFF47
:10501C00044420461837BD46BDE8F08100F1080372
:10502C0023F00703E846ADEB030D2246411C3B6819
:10503C006846FFF7D9FD69462846FFF793FF0446FB
:10504C00C546E1E710B50446FFF74AFCE06023686B
:10505C0020465B699847002808DAFFF741FCE368B3
:10506C00C01AA3689842F2D34FF0FF3010BD000075
:10507C0070B50D46094904461646FFF7B5FE28469D
:10508C00FFF7E0FF002806DB864204D0C1B22046C1
:10509C00FFF71FFFF3E7204670BD00BF3D5D0B001F
:1050AC00002340681A461946FFF73EBD014B024AE1
:1050BC001A607047D4E60320545E0B00024B1A684A
:1050CC00024B1A60704700BFE4FA0220D8E60320B6
:1050DC000021FFF7EDBC0000014B00229A607047E5
:1050EC00DCE60320014B1860704700BFE8FA022091
:1050FC0008B50B4B43B100F067F903681B6998477F
:10510C00002801DDAFF30080064B43B100F0CAFB71
:10511C0003681B699847002801DDAFF3008008BDC8
:10512C00000000000000000008B5FFF7E1FFFFF7EA
:10513C00D7FB014B186008BD40E703200548064A21
:10514C00064908B5121A00F019FC054B054A1A60FD
:10515C0008BD00BF00F4032004F4032050610B00D1
:10516C0000F403201E1C279A07B5002300931A464F
:10517C006FF07701FFF7AEFC03B05DF804FB0000A5
:10518C0007B543880A2B08D0502B0BD1094B1B6851
:10519C004BB103B05DF804EB1847FFF7E5FF03B024
:1051AC005DF804FB002300931A466FF07701FFF7BC
:1051BC0091FCF4E7F0E6032010B512480021FFF74C
:1051CC002BFD114B1A68114B9A42114B0CBF01224B
:1051DC0000221A7001D0FFF7B1FFFFF771FB0446F4
:1051EC0000F0E2FB0B4B13B12046AFF30080002123
:1051FC000848FFF7D9FCBDE8104007480021FFF72D
:10520C005FBC00BFF1500B0000F403201E1C279A5A
:10521C00ECE60320000000008D510B00704710B528
:10522C0018210446FEF731FF204610BDF0B5037D72
:10523C00062B8DB00E4600F104074FF0000412D07F
:10524C0000F1080515F8011D0A223046FFF7ABFEE8
:10525C00AF42044419D0002CF4D02E213046FFF775
:10526C0093FE0444EEE72F236A4639460A208DF854
:10527C000040FFF745FB684600F0CCFB3368024664
:10528C00DB68694630469847044620460DB0F0BDB1
:10529C0010B5054B0446112240F8043B002100F0E8
:1052AC007BFB204610BD00BF7C5E0B000346074A0B
:1052BC0010B543F8042B01F1100251F8044B43F8DC
:1052CC00044B9142F9D10A781A7010BD7C5E0B0028
:1052DC0010B59DF8084044EA032343EA024242EA2F
:1052EC00016104234160037510BD000007B5064B36
:1052FC000360CB7800938B784A780978FFF7E8FF46
:10530C0003B05DF804FB00BF7C5E0B00417470477A
:10531C007047704708B50021007CFFF7A9FB40EAF5
:10532C00E07008BD08B50121007CFFF7A1FB40EA45
:10533C00E07008BD08B5007CFFF792FB20EAE07036
:10534C0008BD08B5007CFFF783FB20EAE07008BDC0
:10535C0013B50446007C0191FFF782FB00280199EC
:10536C0001DC607C20B1207CFFF78AFB20EAE07036
:10537C0002B010BD007CFFF78BBB10B514210446A6
:10538C00FEF783FE204610BD10B54FF47A73044629
:10539C0008460021C4E90113044B23600123207447
:1053AC0063741146FFF744FB204610BD905E0B0062
:1053BC00007C0022FFF744BB10B5142204460021E8
:1053CC0000F0EAFA204610BD10B50F4C88B003A8C7
:1053DC00FFF7F2FF2178BFF35B8F11F001010FD1C2
:1053EC0020460191FEF753FE019948B103AA0748E4
:1053FC00FFF7CAFF2046FEF74FFE054800F0B4FA4F
:10540C00024808B010BD00BFF4E60320F8E6032004
:10541C001D530B00004700002DE9FF4100241D46E1
:10542C000F4690460646FFF73BFAA5424FF00403A1
:10543C00ADF80D408DF80C308DF80F40A2BF9DF8E3
:10544C0028308DF80E3003AC0749009443463A4699
:10545C003046A8BF8DF80D50FFF71AFAB0FA80F05D
:10546C00400904B0BDE8F08121540B007047417431
:10547C00704708B5007CFFF77BFA20EAE07008BDA6
:10548C0008B5007CFFF74CFA20EAE07008BD08B5BF
:10549C00007CFFF755FA40EAE07008BD08B5007CC7
:1054AC00FFF746FA40EAE07008BD007CFFF750BAFF
:1054BC0037B5457C04462DB1207C03B0BDE83040A7
:1054CC00FFF726BA007C0191FFF752FA00280199E8
:1054DC00F2DC284603B030BD10B514210446FEF7AB
:1054EC00D4FD204610BD000010B54FF47A7304466D
:1054FC00084611460022C4E90123044B2360012312
:10550C0020746374FFF744FA204610BDC05E0B0094
:10551C00007C0023FFF734BA0022FFF7F9BF704775
:10552C00F8B5064615460C468F18BC4206D03368B3
:10553C0014F8011B9B6830469847F6E72846F8BDDF
:10554C00007C0022FFF72CBA007C0021FFF730BA58
:10555C00007C0021FFF734BA007C0021FFF738BA39
:10556C00007C0021FFF73CBA10B514210446FEF76D
:10557C008CFD204610BD000010B54FF47A73044624
:10558C0008460021C4E90113034B23602074114623
:10559C00FFF736FA204610BDF05E0B000022406883
:1055AC001146FFF7B9BA002240681146FFF7D4BA8A
:1055BC00002240681146FFF7DFBA40680022FFF76F
:1055CC00D3BA4068002281F00101FFF7BDBA002375
:1055DC0040681A461946FFF7AFBA002240681146D8
:1055EC00FFF78ABA406800220221FFF78DBA002328
:1055FC0040681A46FFF778BA024B04225A60024AF6
:10560C001A6070470CE70320185F0B0000234068FA
:10561C001A46FFF769BA406800220221FFF774BAF4
:10562C00002240681146FFF767BA00224068114615
:10563C00FFF772BA002340681A461946FFF774BA8E
:10564C00002340681A461946FFF776BA40680021D5
:10565C00FFF79ABA40680021FFF79EBA4068002213
:10566C0081F00101FFF770BA40680022FFF77CBAA5
:10567C00002240681146FFF77FBA002240681146AD
:10568C00FFF76ABA2DE9F04395B014460D4607466C
:10569C00FFF7FEFD00211C220DA8009100F07CF903
:1056AC0040230C9320466B460CAA0021FFF7C8F848
:1056BC00044600284BD1024601216868FFF72CFAFA
:1056CC000221804622466868FFF726FA009E814632
:1056DC002146002E3BD0002939D17368022B03D010
:1056EC000A2B11D0F669F4E7B8F1000FFAD0716902
:1056FC0006A8043107ADFFF7F9FD0FCD3C1D0FC413
:10570C002B6823704146EDE7B9F1000FEAD07469BC
:10571C00102201A800F040F906238DF8143001ADD9
:10572C0004F108031834186859682A4603C2083370
:10573C00A3421546F7D101A906A807ADFFF7B6FDA0
:10574C000FCD3C1D0FC42B6823704946CAE7009847
:10575C00FFF76EF8384615B0BDE8F083024B034AEC
:10576C001A6000225A60704714E70320545F0B0044
:10577C00232813B502D9002002B010BDA0F10B03F1
:10578C00022B1AD8174C2178BFF35B8F11F0010153
:10579C000BD120460191FEF77AFC019928B11248F1
:1057AC00FFF780FA2046FEF777FC0F4B1878FFF7CF
:1057BC0037F90028DFD10120DEE7012809D800F0F5
:1057CC00ADF80021007CFFF713F980F00100C0B2A6
:1057DC00D2E709380128EED800F064F8007CFFF716
:1057EC00BFF8F2E71CE7032020E70320232838B595
:1057FC0004460D460AD8FF2908D0FFF7B9FF28B197
:10580C0029462046BDE83840FFF72AB838BD38B5E0
:10581C0004460D46FFF72CF8FF2810D0062804D8B4
:10582C004D2323FA00F0C30709D42046FFF7A0FF4D
:10583C0028B129462046BDE83840FFF721B838BDCD
:10584C000D2810B504469CBF0E34A4B22046FFF7B9
:10585C008FFF50B103212046FEF7FAFF032804D135
:10586C002046BDE81040FFF723B8002010BD70475C
:10587C0038B5044614252A46002100F08DF8258001
:10588C004025074925812846258200F06BF80449FC
:10589C006060284600F066F8E060204638BD00BF26
:1058AC00885F0B0030B50E4D2978BFF35B8F11F07C
:1058BC00010487B011D12846FEF7E9FB68B101A8B5
:1058CC00FFF7D6FF01AA21460648FFF70DFE284632
:1058DC00FEF7E2FB044800F047F8024807B030BD81
:1058EC0028E703202CE703207B580B0070470000AF
:1058FC0038B52025142304460360856005610649EC
:10590C00284600F02FF804496060284600F02AF879
:10591C00E060204638BD00BF885F0B0030B50E4DEF
:10592C002978BFF35B8F11F0010487B011D12846A1
:10593C00FEF7ADFB68B101A8FFF7DAFF01AA21461B
:10594C000648FFF719FE2846FEF7A6FB044800F0B0
:10595C000BF8024807B030BD44E7032048E70320AA
:10596C00F9580B00FEF78FBB002301461A46184668
:10597C0000F0F8B80A22002100F0EAB80A4491427B
:10598C0000F1FF3300D1704710B511F8014B03F84B
:10599C00014F9142F9D110BD02440346934200D10C
:1059AC00704703F8011BF9E738B5104B1D68AB6B5A
:1059BC000446B3B91820FFF7FFF80246A86320B9D4
:1059CC000B4B0C484221FFF71FF90B490B4BC0E95D
:1059DC0000130B4B83600B23838100210120C2E950
:1059EC000401AB6B00221C615A6138BDE8FA02203D
:1059FC00895F0B00A05F0B000E33CDAB34126DE64C
:105A0C00ECDE0500034611F8012B03F8012B002AEC
:105A1C00F9D17047034613F8012B002AFBD1181A51
:105A2C000138704710B50139034632B111F8014FF6
:105A3C0003F8014B013A002CF7D11A440021934290
:105A4C0000D110BD03F8011BF9E70000012B2DE973
:105A5C00F04701D0242B06D9FFF7CEF816230360AC
:105A6C000020BDE8F087DFF8E4C00D462E4615F89F
:105A7C00014B14F80C7017F00807F7D12D2C32D10C
:105A8C002C780127B51C002B5BD0102B09D1302CA6
:105A9C0007D12C7804F0DF04582C4DD16C781023EE
:105AAC00023507F1004808F1FF384FF0000CB8FB45
:105ABC00F3F9664603FB198AA4F1300EBEF1090F07
:105ACC0016D87446A34224DDBCF1000F1EDBB14591
:105ADC001CD301D1A24519DB06FB03464FF0010C88
:105AEC0015F8014BE8E72B2C04BF2C78B51CCAE742
:105AFC00A4F1410EBEF1190F01D8373CE2E7A4F135
:105B0C00610EBEF1190F04D8573CDBE74FF0FF3C98
:105B1C00E6E7BCF1000F05DA22230360464642B9E2
:105B2C0030469EE707B17642002AF9D0BCF1000F4F
:105B3C0000D0691E1160F3E73024002BB1D108238B
:105B4C00AFE7302CA5D00A23ABE700BF1E600B00DB
:105B5C0013460A46014602480068FFF777BF00BFAC
:105B6C00E8FA02202DE9F843DFF8B8800646D8F8A9
:105B7C0000001F460D46914600F056F8254B1C6858
:105B8C0034B9254C1C60254B13B11B68C4F8883004
:105B9C0063681F2B07DDD8F8000000F047F84FF0C2
:105BAC00FF30BDE8F8834EB3D4F8880088B91C4B9D
:105BBC0023B9D8F8000000F038F8F0E74FF48470FF
:105BCC00FEF7FAFF0028F4D00023C0E94033C4F8F4
:105BDC008800636840F8239001229A4000EB83010F
:105BEC00D0F800311343C0F80031022EC1F8807098
:105BFC0002BFD0F804311343C0F804316368D8F8FD
:105C0C0000005A1C0233626044F8235000F00EF876
:105C1C000020C6E7E8E703205CE703200000000053
:105C2C00C54B0B004CFB02207047704770470000BF
:105C3C001D400B0059400B0081400B0085400B00B0
:105C4C0000000000426567696E6E696E6720436FE5
:105C5C006D6D616E6473200A0041540D0A0041772A
:105C6C00616974696E67205265706C790A005265BF
:105C7C00706C793A2025730A0041542B41444452EC
:105C8C004553533D25690D0A004177616974696E6E
:105C9C0067205265706C792066726F6D2061646448
:105CAC00726573730A005265706C7920616464725A
:105CBC006573733A2025730A0041542B4E45545793
:105CCC004F524B49443D25690D0A00417761697477
:105CDC00696E67205265706C792066726F6D206EEC
:105CEC006574776F726B69640A005265706C792009
:105CFC006E6574776F726B3A2025730A0041542BD2
:105D0C00414444524553533F0D0A005265706C791F
:105D1C002067657420616464726573733A2025731F
:105D2C000A0041542B4E4554574F524B49443F0D9A
:105D3C000A005265706C7920676574206E65747703
:105D4C006F726B3A2025730A0041542B4350494E15
:105D5C003F0D0A005265706C792067657420706184
:105D6C007373776F72643A2025730A004177616907
:105D7C0074696E6720496E636F6D696E67204D653F
:105D8C00737361676500496E636F6D696E67204D53
:105D9C006573736167653B2025730A25730A257348
:105DAC000A25730A25730A005374617274696E674D
:105DBC002054696D65720A0041542B53454E443D85
:105DCC003939392C25692C25730D0A0053656E74ED
:105DDC000A00496E636F6D696E67204C656E2025F5
:105DEC00692C20496E636F6D696E67446174612024
:105DFC0025690A004E657756616C2025692C207048
:105E0C00686F746F76616C2025690A0000000000D1
:105E1C0000000000934C0B00894C0B007F4C0B00D6
:105E2C00754C0B00694C0B005D4C0B0059560B006C
:105E3C0061560B00514C0B00494C0B003F4C0B00B6
:105E4C00354C0B0091560B006170700025592D25B7
:105E5C006D2D25645425483A254D3A2553257A0055
:105E6C0061736374696D6500000000000000000040
:105E7C0039520B0029520B002B520B000000000072
:105E8C00000000001F530B0087530B005D530B00E9
:105E9C00454F0B004F530B0021530B0031530B009C
:105EAC0081530B0041530B0019530B0000000000F1
:105EBC000000000079540B00E5540B00BD540B009E
:105ECC00454F0B008D540B00A9540B009B540B0039
:105EDC00B7540B007B540B007F540B0000000000E8
:105EEC00000000002B550B0075550B004D550B0099
:105EFC002D550B0055550B005D550B0065550B00D2
:105F0C006D550B000000000000000000FB550B005D
:105F1C00F1550B00E7550B00A9550B00AD500B00CC
:105F2C00DB550B0059560B0061560B00CF550B007F
:105F3C00C7550B00BD550B00B3550B0091560B000C
:105F4C00000000000000000019560B0023560B0047
:105F5C002D560B0037560B0041560B004D560B00BF
:105F6C0059560B0061560B0069560B0075560B0009
:105F7C007D560B0087560B0091560B000052454581
:105F8C004E54206D616C6C6F632073756363656533
:105F9C00646564002F6D6E742F776F726B73706114
:105FAC0063652F776F726B73706163652F47434323
:105FBC002D31302D706970656C696E652F6A656E58
:105FCC006B696E732D4743432D31302D70697065AD
:105FDC006C696E652D34385F323032303131323489
:105FEC005F313630363138303634312F7372632F9F
:105FFC006E65776C69622F6E65776C69622F6C6960
:10600C0062632F7374646C69622F72616E642E63A9
:10601C00000020202020202020202028282828288C
:10602C002020202020202020202020202020202064
:10603C0020208810101010101010101010101010BC
:10604C0010100404040404040404040410101010BC
:10605C001010104141414141410101010101010177
:10606C0001010101010101010101010101101010E7
:10607C00101010424242424242020202020202024A
:10608C0002020202020202020202020202101010BA
:10609C0010200000000000000000000000000000C4
:1060AC0000000000000000000000000000000000E4
:1060BC0000000000000000000000000000000000D4
:1060CC0000000000000000000000000000000000C4
:1060DC0000000000000000000000000000000000B4
:1060EC0000000000000000000000000000000000A4
:1060FC000000000000000000000000000000000094
:10610C000000000000000000000000000000000083
:10611C0000000000C5470B009D4C0B00C54C0B004C
:10612C00354F0B00B9500B00C9500B00E5500B005C
:10613C0005560B0069570B00000000000000000022
:04614C00000000004F
:04615000000000004B
:1061540078030000050000006C5E0B00ECFA0220DE
:10616400000000000000000000000000000000002B
:10617400000000000000000000000000000000001B
:10618400000000000000000000000000000000000B
:1061940000000000000000000000000000000000FB
:1061A40000000000000000000000000000000000EB
:1061B40000000000000000000000000000000000DB
:0461C400ECE70320E1
:1061C800FFFFFFFF00000102030405060708090A94
:1061D8000B0C0D0E0F101112131415161718191A8F
:0861E8001B1C1D1E1F202800D6
:0461F0007856341297
:04000003B000401CED
:00000001FF
